{
  "contracts/BandwidthGenerator.sol": {
    "BandwidthGenerator": {
      "abi": [
        {
          "inputs": [
            {
              "internalType": "contract CosmosERC20",
              "name": "_erc20",
              "type": "address"
            },
            {
              "internalType": "contract Gravity",
              "name": "_gravityBridge",
              "type": "address"
            }
          ],
          "stateMutability": "nonpayable",
          "type": "constructor"
        },
        {
          "anonymous": false,
          "inputs": [
            {
              "indexed": false,
              "internalType": "uint256",
              "name": "Bandwidth",
              "type": "uint256"
            },
            {
              "indexed": true,
              "internalType": "uint256",
              "name": "VerificationKey",
              "type": "uint256"
            },
            {
              "indexed": false,
              "internalType": "bytes",
              "name": "SignedVerificationKey",
              "type": "bytes"
            }
          ],
          "name": "BBCredentialPurchased",
          "type": "event"
        },
        {
          "inputs": [],
          "name": "erc20",
          "outputs": [
            {
              "internalType": "contract CosmosERC20",
              "name": "",
              "type": "address"
            }
          ],
          "stateMutability": "view",
          "type": "function"
        },
        {
          "inputs": [
            {
              "internalType": "uint256",
              "name": "amount",
              "type": "uint256"
            },
            {
              "internalType": "uint256",
              "name": "verificationKey",
              "type": "uint256"
            },
            {
              "internalType": "bytes",
              "name": "signedVerificationKey",
              "type": "bytes"
            },
            {
              "internalType": "bytes32",
              "name": "cosmosRecipient",
              "type": "bytes32"
            }
          ],
          "name": "generateBasicBandwidthCredential",
          "outputs": [],
          "stateMutability": "nonpayable",
          "type": "function"
        },
        {
          "inputs": [],
          "name": "gravityBridge",
          "outputs": [
            {
              "internalType": "contract Gravity",
              "name": "",
              "type": "address"
            }
          ],
          "stateMutability": "view",
          "type": "function"
        }
      ],
      "evm": {
        "bytecode": {
          "linkReferences": {},
          "object": "608060405234801561001057600080fd5b5060405161059c38038061059c8339818101604052604081101561003357600080fd5b5080516020909101516001600160a01b0382166100815760405162461bcd60e51b815260040180806020018281038252603081526020018061056c6030913960400191505060405180910390fd5b6001600160a01b0381166100c65760405162461bcd60e51b81526004018080602001828103825260398152602001806105336039913960400191505060405180910390fd5b600080546001600160a01b039384166001600160a01b03199182161790915560018054929093169116179055610432806101016000396000f3fe608060405234801561001057600080fd5b50600436106100415760003560e01c806373f4867714610046578063785e9e86146100fc578063a4da2d0214610120575b600080fd5b6100fa6004803603608081101561005c57600080fd5b81359160208101359181019060608101604082013564010000000081111561008357600080fd5b82018360208201111561009557600080fd5b803590602001918460018302840111640100000000831117156100b757600080fd5b91908080601f0160208091040260200160405190810160405280939291908181526020018383808284376000920191909152509295505091359250610128915050565b005b6101046103a2565b604080516001600160a01b039092168252519081900360200190f35b6101046103b1565b81516040146101685760405162461bcd60e51b81526004018080602001828103825260338152602001806103ca6033913960400191505060405180910390fd5b60008054604080516323b872dd60e01b81523360048201523060248201526044810188905290516001600160a01b03909216926323b872dd926064808401936020939083900390910190829087803b1580156101c357600080fd5b505af11580156101d7573d6000803e3d6000fd5b505050506040513d60208110156101ed57600080fd5b5050600080546001546040805163095ea7b360e01b81526001600160a01b039283166004820152602481018990529051919092169263095ea7b392604480820193602093909283900390910190829087803b15801561024b57600080fd5b505af115801561025f573d6000803e3d6000fd5b505050506040513d602081101561027557600080fd5b50506001546000805460408051631ffbe7f960e01b81526001600160a01b039283166004820152602481018690526044810189905290519190931692631ffbe7f992606480830193919282900301818387803b1580156102d457600080fd5b505af11580156102e8573d6000803e3d6000fd5b5050505060006102f7856103c0565b9050837fdf00ac1789fb2195deae1d8aa18846660c6b431833c5a52b6e68d4772439ca9d82856040518083815260200180602001828103825283818151815260200191508051906020019080838360005b83811015610360578181015183820152602001610348565b50505050905090810190601f16801561038d5780820380516001836020036101000a031916815260200191505b50935050505060405180910390a25050505050565b6000546001600160a01b031681565b6001546001600160a01b031681565b6340000000029056fe42616e64776964746847656e657261746f723a205369676e617475726520646f65736e27742068617665203634206279746573a26469706673582212206cf18759e5d47dc9818933f72eedb8a626eeec94942bcaaa21968c5801cc59e464736f6c6343000606003342616e64776964746847656e657261746f723a20677261766974792062726964676520616464726573732063616e6e6f74206265206e756c6c42616e64776964746847656e657261746f723a20657263323020616464726573732063616e6e6f74206265206e756c6c",
          "opcodes": "PUSH1 0x80 PUSH1 0x40 MSTORE CALLVALUE DUP1 ISZERO PUSH2 0x10 JUMPI PUSH1 0x0 DUP1 REVERT JUMPDEST POP PUSH1 0x40 MLOAD PUSH2 0x59C CODESIZE SUB DUP1 PUSH2 0x59C DUP4 CODECOPY DUP2 DUP2 ADD PUSH1 0x40 MSTORE PUSH1 0x40 DUP2 LT ISZERO PUSH2 0x33 JUMPI PUSH1 0x0 DUP1 REVERT JUMPDEST POP DUP1 MLOAD PUSH1 0x20 SWAP1 SWAP2 ADD MLOAD PUSH1 0x1 PUSH1 0x1 PUSH1 0xA0 SHL SUB DUP3 AND PUSH2 0x81 JUMPI PUSH1 0x40 MLOAD PUSH3 0x461BCD PUSH1 0xE5 SHL DUP2 MSTORE PUSH1 0x4 ADD DUP1 DUP1 PUSH1 0x20 ADD DUP3 DUP2 SUB DUP3 MSTORE PUSH1 0x30 DUP2 MSTORE PUSH1 0x20 ADD DUP1 PUSH2 0x56C PUSH1 0x30 SWAP2 CODECOPY PUSH1 0x40 ADD SWAP2 POP POP PUSH1 0x40 MLOAD DUP1 SWAP2 SUB SWAP1 REVERT JUMPDEST PUSH1 0x1 PUSH1 0x1 PUSH1 0xA0 SHL SUB DUP2 AND PUSH2 0xC6 JUMPI PUSH1 0x40 MLOAD PUSH3 0x461BCD PUSH1 0xE5 SHL DUP2 MSTORE PUSH1 0x4 ADD DUP1 DUP1 PUSH1 0x20 ADD DUP3 DUP2 SUB DUP3 MSTORE PUSH1 0x39 DUP2 MSTORE PUSH1 0x20 ADD DUP1 PUSH2 0x533 PUSH1 0x39 SWAP2 CODECOPY PUSH1 0x40 ADD SWAP2 POP POP PUSH1 0x40 MLOAD DUP1 SWAP2 SUB SWAP1 REVERT JUMPDEST PUSH1 0x0 DUP1 SLOAD PUSH1 0x1 PUSH1 0x1 PUSH1 0xA0 SHL SUB SWAP4 DUP5 AND PUSH1 0x1 PUSH1 0x1 PUSH1 0xA0 SHL SUB NOT SWAP2 DUP3 AND OR SWAP1 SWAP2 SSTORE PUSH1 0x1 DUP1 SLOAD SWAP3 SWAP1 SWAP4 AND SWAP2 AND OR SWAP1 SSTORE PUSH2 0x432 DUP1 PUSH2 0x101 PUSH1 0x0 CODECOPY PUSH1 0x0 RETURN INVALID PUSH1 0x80 PUSH1 0x40 MSTORE CALLVALUE DUP1 ISZERO PUSH2 0x10 JUMPI PUSH1 0x0 DUP1 REVERT JUMPDEST POP PUSH1 0x4 CALLDATASIZE LT PUSH2 0x41 JUMPI PUSH1 0x0 CALLDATALOAD PUSH1 0xE0 SHR DUP1 PUSH4 0x73F48677 EQ PUSH2 0x46 JUMPI DUP1 PUSH4 0x785E9E86 EQ PUSH2 0xFC JUMPI DUP1 PUSH4 0xA4DA2D02 EQ PUSH2 0x120 JUMPI JUMPDEST PUSH1 0x0 DUP1 REVERT JUMPDEST PUSH2 0xFA PUSH1 0x4 DUP1 CALLDATASIZE SUB PUSH1 0x80 DUP2 LT ISZERO PUSH2 0x5C JUMPI PUSH1 0x0 DUP1 REVERT JUMPDEST DUP2 CALLDATALOAD SWAP2 PUSH1 0x20 DUP2 ADD CALLDATALOAD SWAP2 DUP2 ADD SWAP1 PUSH1 0x60 DUP2 ADD PUSH1 0x40 DUP3 ADD CALLDATALOAD PUSH5 0x100000000 DUP2 GT ISZERO PUSH2 0x83 JUMPI PUSH1 0x0 DUP1 REVERT JUMPDEST DUP3 ADD DUP4 PUSH1 0x20 DUP3 ADD GT ISZERO PUSH2 0x95 JUMPI PUSH1 0x0 DUP1 REVERT JUMPDEST DUP1 CALLDATALOAD SWAP1 PUSH1 0x20 ADD SWAP2 DUP5 PUSH1 0x1 DUP4 MUL DUP5 ADD GT PUSH5 0x100000000 DUP4 GT OR ISZERO PUSH2 0xB7 JUMPI PUSH1 0x0 DUP1 REVERT JUMPDEST SWAP2 SWAP1 DUP1 DUP1 PUSH1 0x1F ADD PUSH1 0x20 DUP1 SWAP2 DIV MUL PUSH1 0x20 ADD PUSH1 0x40 MLOAD SWAP1 DUP2 ADD PUSH1 0x40 MSTORE DUP1 SWAP4 SWAP3 SWAP2 SWAP1 DUP2 DUP2 MSTORE PUSH1 0x20 ADD DUP4 DUP4 DUP1 DUP3 DUP5 CALLDATACOPY PUSH1 0x0 SWAP3 ADD SWAP2 SWAP1 SWAP2 MSTORE POP SWAP3 SWAP6 POP POP SWAP2 CALLDATALOAD SWAP3 POP PUSH2 0x128 SWAP2 POP POP JUMP JUMPDEST STOP JUMPDEST PUSH2 0x104 PUSH2 0x3A2 JUMP JUMPDEST PUSH1 0x40 DUP1 MLOAD PUSH1 0x1 PUSH1 0x1 PUSH1 0xA0 SHL SUB SWAP1 SWAP3 AND DUP3 MSTORE MLOAD SWAP1 DUP2 SWAP1 SUB PUSH1 0x20 ADD SWAP1 RETURN JUMPDEST PUSH2 0x104 PUSH2 0x3B1 JUMP JUMPDEST DUP2 MLOAD PUSH1 0x40 EQ PUSH2 0x168 JUMPI PUSH1 0x40 MLOAD PUSH3 0x461BCD PUSH1 0xE5 SHL DUP2 MSTORE PUSH1 0x4 ADD DUP1 DUP1 PUSH1 0x20 ADD DUP3 DUP2 SUB DUP3 MSTORE PUSH1 0x33 DUP2 MSTORE PUSH1 0x20 ADD DUP1 PUSH2 0x3CA PUSH1 0x33 SWAP2 CODECOPY PUSH1 0x40 ADD SWAP2 POP POP PUSH1 0x40 MLOAD DUP1 SWAP2 SUB SWAP1 REVERT JUMPDEST PUSH1 0x0 DUP1 SLOAD PUSH1 0x40 DUP1 MLOAD PUSH4 0x23B872DD PUSH1 0xE0 SHL DUP2 MSTORE CALLER PUSH1 0x4 DUP3 ADD MSTORE ADDRESS PUSH1 0x24 DUP3 ADD MSTORE PUSH1 0x44 DUP2 ADD DUP9 SWAP1 MSTORE SWAP1 MLOAD PUSH1 0x1 PUSH1 0x1 PUSH1 0xA0 SHL SUB SWAP1 SWAP3 AND SWAP3 PUSH4 0x23B872DD SWAP3 PUSH1 0x64 DUP1 DUP5 ADD SWAP4 PUSH1 0x20 SWAP4 SWAP1 DUP4 SWAP1 SUB SWAP1 SWAP2 ADD SWAP1 DUP3 SWAP1 DUP8 DUP1 EXTCODESIZE ISZERO DUP1 ISZERO PUSH2 0x1C3 JUMPI PUSH1 0x0 DUP1 REVERT JUMPDEST POP GAS CALL ISZERO DUP1 ISZERO PUSH2 0x1D7 JUMPI RETURNDATASIZE PUSH1 0x0 DUP1 RETURNDATACOPY RETURNDATASIZE PUSH1 0x0 REVERT JUMPDEST POP POP POP POP PUSH1 0x40 MLOAD RETURNDATASIZE PUSH1 0x20 DUP2 LT ISZERO PUSH2 0x1ED JUMPI PUSH1 0x0 DUP1 REVERT JUMPDEST POP POP PUSH1 0x0 DUP1 SLOAD PUSH1 0x1 SLOAD PUSH1 0x40 DUP1 MLOAD PUSH4 0x95EA7B3 PUSH1 0xE0 SHL DUP2 MSTORE PUSH1 0x1 PUSH1 0x1 PUSH1 0xA0 SHL SUB SWAP3 DUP4 AND PUSH1 0x4 DUP3 ADD MSTORE PUSH1 0x24 DUP2 ADD DUP10 SWAP1 MSTORE SWAP1 MLOAD SWAP2 SWAP1 SWAP3 AND SWAP3 PUSH4 0x95EA7B3 SWAP3 PUSH1 0x44 DUP1 DUP3 ADD SWAP4 PUSH1 0x20 SWAP4 SWAP1 SWAP3 DUP4 SWAP1 SUB SWAP1 SWAP2 ADD SWAP1 DUP3 SWAP1 DUP8 DUP1 EXTCODESIZE ISZERO DUP1 ISZERO PUSH2 0x24B JUMPI PUSH1 0x0 DUP1 REVERT JUMPDEST POP GAS CALL ISZERO DUP1 ISZERO PUSH2 0x25F JUMPI RETURNDATASIZE PUSH1 0x0 DUP1 RETURNDATACOPY RETURNDATASIZE PUSH1 0x0 REVERT JUMPDEST POP POP POP POP PUSH1 0x40 MLOAD RETURNDATASIZE PUSH1 0x20 DUP2 LT ISZERO PUSH2 0x275 JUMPI PUSH1 0x0 DUP1 REVERT JUMPDEST POP POP PUSH1 0x1 SLOAD PUSH1 0x0 DUP1 SLOAD PUSH1 0x40 DUP1 MLOAD PUSH4 0x1FFBE7F9 PUSH1 0xE0 SHL DUP2 MSTORE PUSH1 0x1 PUSH1 0x1 PUSH1 0xA0 SHL SUB SWAP3 DUP4 AND PUSH1 0x4 DUP3 ADD MSTORE PUSH1 0x24 DUP2 ADD DUP7 SWAP1 MSTORE PUSH1 0x44 DUP2 ADD DUP10 SWAP1 MSTORE SWAP1 MLOAD SWAP2 SWAP1 SWAP4 AND SWAP3 PUSH4 0x1FFBE7F9 SWAP3 PUSH1 0x64 DUP1 DUP4 ADD SWAP4 SWAP2 SWAP3 DUP3 SWAP1 SUB ADD DUP2 DUP4 DUP8 DUP1 EXTCODESIZE ISZERO DUP1 ISZERO PUSH2 0x2D4 JUMPI PUSH1 0x0 DUP1 REVERT JUMPDEST POP GAS CALL ISZERO DUP1 ISZERO PUSH2 0x2E8 JUMPI RETURNDATASIZE PUSH1 0x0 DUP1 RETURNDATACOPY RETURNDATASIZE PUSH1 0x0 REVERT JUMPDEST POP POP POP POP PUSH1 0x0 PUSH2 0x2F7 DUP6 PUSH2 0x3C0 JUMP JUMPDEST SWAP1 POP DUP4 PUSH32 0xDF00AC1789FB2195DEAE1D8AA18846660C6B431833C5A52B6E68D4772439CA9D DUP3 DUP6 PUSH1 0x40 MLOAD DUP1 DUP4 DUP2 MSTORE PUSH1 0x20 ADD DUP1 PUSH1 0x20 ADD DUP3 DUP2 SUB DUP3 MSTORE DUP4 DUP2 DUP2 MLOAD DUP2 MSTORE PUSH1 0x20 ADD SWAP2 POP DUP1 MLOAD SWAP1 PUSH1 0x20 ADD SWAP1 DUP1 DUP4 DUP4 PUSH1 0x0 JUMPDEST DUP4 DUP2 LT ISZERO PUSH2 0x360 JUMPI DUP2 DUP2 ADD MLOAD DUP4 DUP3 ADD MSTORE PUSH1 0x20 ADD PUSH2 0x348 JUMP JUMPDEST POP POP POP POP SWAP1 POP SWAP1 DUP2 ADD SWAP1 PUSH1 0x1F AND DUP1 ISZERO PUSH2 0x38D JUMPI DUP1 DUP3 SUB DUP1 MLOAD PUSH1 0x1 DUP4 PUSH1 0x20 SUB PUSH2 0x100 EXP SUB NOT AND DUP2 MSTORE PUSH1 0x20 ADD SWAP2 POP JUMPDEST POP SWAP4 POP POP POP POP PUSH1 0x40 MLOAD DUP1 SWAP2 SUB SWAP1 LOG2 POP POP POP POP POP JUMP JUMPDEST PUSH1 0x0 SLOAD PUSH1 0x1 PUSH1 0x1 PUSH1 0xA0 SHL SUB AND DUP2 JUMP JUMPDEST PUSH1 0x1 SLOAD PUSH1 0x1 PUSH1 0x1 PUSH1 0xA0 SHL SUB AND DUP2 JUMP JUMPDEST PUSH4 0x40000000 MUL SWAP1 JUMP INVALID TIMESTAMP PUSH2 0x6E64 PUSH24 0x6964746847656E657261746F723A205369676E6174757265 KECCAK256 PUSH5 0x6F65736E27 PUSH21 0x2068617665203634206279746573A2646970667358 0x22 SLT KECCAK256 PUSH13 0xF18759E5D47DC9818933F72EED 0xB8 0xA6 0x26 0xEE 0xEC SWAP5 SWAP5 0x2B 0xCA 0xAA 0x21 SWAP7 DUP13 PC ADD 0xCC MSIZE 0xE4 PUSH5 0x736F6C6343 STOP MOD MOD STOP CALLER TIMESTAMP PUSH2 0x6E64 PUSH24 0x6964746847656E657261746F723A20677261766974792062 PUSH19 0x6964676520616464726573732063616E6E6F74 KECCAK256 PUSH3 0x65206E PUSH22 0x6C6C42616E64776964746847656E657261746F723A20 PUSH6 0x726332302061 PUSH5 0x6472657373 KECCAK256 PUSH4 0x616E6E6F PUSH21 0x206265206E756C6C00000000000000000000000000 "
        },
        "methodIdentifiers": {
          "erc20()": "785e9e86",
          "generateBasicBandwidthCredential(uint256,uint256,bytes,bytes32)": "73f48677",
          "gravityBridge()": "a4da2d02"
        }
      }
    }
  }
}