{
  "contracts/Gravity.sol": {
    "Gravity": {
      "abi": [
        {
          "inputs": [
            {
              "internalType": "bytes32",
              "name": "_gravityId",
              "type": "bytes32"
            },
            {
              "internalType": "uint256",
              "name": "_powerThreshold",
              "type": "uint256"
            },
            {
              "internalType": "address[]",
              "name": "_validators",
              "type": "address[]"
            },
            {
              "internalType": "uint256[]",
              "name": "_powers",
              "type": "uint256[]"
            }
          ],
          "stateMutability": "nonpayable",
          "type": "constructor"
        },
        {
          "anonymous": false,
          "inputs": [
            {
              "indexed": false,
              "internalType": "string",
              "name": "_cosmosDenom",
              "type": "string"
            },
            {
              "indexed": true,
              "internalType": "address",
              "name": "_tokenContract",
              "type": "address"
            },
            {
              "indexed": false,
              "internalType": "string",
              "name": "_name",
              "type": "string"
            },
            {
              "indexed": false,
              "internalType": "string",
              "name": "_symbol",
              "type": "string"
            },
            {
              "indexed": false,
              "internalType": "uint8",
              "name": "_decimals",
              "type": "uint8"
            },
            {
              "indexed": false,
              "internalType": "uint256",
              "name": "_eventNonce",
              "type": "uint256"
            }
          ],
          "name": "ERC20DeployedEvent",
          "type": "event"
        },
        {
          "anonymous": false,
          "inputs": [
            {
              "indexed": false,
              "internalType": "bytes32",
              "name": "_invalidationId",
              "type": "bytes32"
            },
            {
              "indexed": false,
              "internalType": "uint256",
              "name": "_invalidationNonce",
              "type": "uint256"
            },
            {
              "indexed": false,
              "internalType": "bytes",
              "name": "_returnData",
              "type": "bytes"
            },
            {
              "indexed": false,
              "internalType": "uint256",
              "name": "_eventNonce",
              "type": "uint256"
            }
          ],
          "name": "LogicCallEvent",
          "type": "event"
        },
        {
          "anonymous": false,
          "inputs": [
            {
              "indexed": true,
              "internalType": "address",
              "name": "_tokenContract",
              "type": "address"
            },
            {
              "indexed": true,
              "internalType": "address",
              "name": "_sender",
              "type": "address"
            },
            {
              "indexed": true,
              "internalType": "bytes32",
              "name": "_destination",
              "type": "bytes32"
            },
            {
              "indexed": false,
              "internalType": "uint256",
              "name": "_amount",
              "type": "uint256"
            },
            {
              "indexed": false,
              "internalType": "uint256",
              "name": "_eventNonce",
              "type": "uint256"
            }
          ],
          "name": "SendToCosmosEvent",
          "type": "event"
        },
        {
          "anonymous": false,
          "inputs": [
            {
              "indexed": true,
              "internalType": "uint256",
              "name": "_batchNonce",
              "type": "uint256"
            },
            {
              "indexed": true,
              "internalType": "address",
              "name": "_token",
              "type": "address"
            },
            {
              "indexed": false,
              "internalType": "uint256",
              "name": "_eventNonce",
              "type": "uint256"
            }
          ],
          "name": "TransactionBatchExecutedEvent",
          "type": "event"
        },
        {
          "anonymous": false,
          "inputs": [
            {
              "indexed": true,
              "internalType": "uint256",
              "name": "_newValsetNonce",
              "type": "uint256"
            },
            {
              "indexed": false,
              "internalType": "uint256",
              "name": "_eventNonce",
              "type": "uint256"
            },
            {
              "indexed": false,
              "internalType": "address[]",
              "name": "_validators",
              "type": "address[]"
            },
            {
              "indexed": false,
              "internalType": "uint256[]",
              "name": "_powers",
              "type": "uint256[]"
            }
          ],
          "name": "ValsetUpdatedEvent",
          "type": "event"
        },
        {
          "inputs": [
            {
              "internalType": "string",
              "name": "_cosmosDenom",
              "type": "string"
            },
            {
              "internalType": "string",
              "name": "_name",
              "type": "string"
            },
            {
              "internalType": "string",
              "name": "_symbol",
              "type": "string"
            },
            {
              "internalType": "uint8",
              "name": "_decimals",
              "type": "uint8"
            }
          ],
          "name": "deployERC20",
          "outputs": [],
          "stateMutability": "nonpayable",
          "type": "function"
        },
        {
          "inputs": [
            {
              "internalType": "address",
              "name": "_erc20Address",
              "type": "address"
            }
          ],
          "name": "lastBatchNonce",
          "outputs": [
            {
              "internalType": "uint256",
              "name": "",
              "type": "uint256"
            }
          ],
          "stateMutability": "view",
          "type": "function"
        },
        {
          "inputs": [
            {
              "internalType": "bytes32",
              "name": "_invalidation_id",
              "type": "bytes32"
            }
          ],
          "name": "lastLogicCallNonce",
          "outputs": [
            {
              "internalType": "uint256",
              "name": "",
              "type": "uint256"
            }
          ],
          "stateMutability": "view",
          "type": "function"
        },
        {
          "inputs": [
            {
              "internalType": "address",
              "name": "_tokenContract",
              "type": "address"
            },
            {
              "internalType": "bytes32",
              "name": "_destination",
              "type": "bytes32"
            },
            {
              "internalType": "uint256",
              "name": "_amount",
              "type": "uint256"
            }
          ],
          "name": "sendToCosmos",
          "outputs": [],
          "stateMutability": "nonpayable",
          "type": "function"
        },
        {
          "inputs": [],
          "name": "state_gravityId",
          "outputs": [
            {
              "internalType": "bytes32",
              "name": "",
              "type": "bytes32"
            }
          ],
          "stateMutability": "view",
          "type": "function"
        },
        {
          "inputs": [
            {
              "internalType": "bytes32",
              "name": "",
              "type": "bytes32"
            }
          ],
          "name": "state_invalidationMapping",
          "outputs": [
            {
              "internalType": "uint256",
              "name": "",
              "type": "uint256"
            }
          ],
          "stateMutability": "view",
          "type": "function"
        },
        {
          "inputs": [
            {
              "internalType": "address",
              "name": "",
              "type": "address"
            }
          ],
          "name": "state_lastBatchNonces",
          "outputs": [
            {
              "internalType": "uint256",
              "name": "",
              "type": "uint256"
            }
          ],
          "stateMutability": "view",
          "type": "function"
        },
        {
          "inputs": [],
          "name": "state_lastEventNonce",
          "outputs": [
            {
              "internalType": "uint256",
              "name": "",
              "type": "uint256"
            }
          ],
          "stateMutability": "view",
          "type": "function"
        },
        {
          "inputs": [],
          "name": "state_lastValsetCheckpoint",
          "outputs": [
            {
              "internalType": "bytes32",
              "name": "",
              "type": "bytes32"
            }
          ],
          "stateMutability": "view",
          "type": "function"
        },
        {
          "inputs": [],
          "name": "state_lastValsetNonce",
          "outputs": [
            {
              "internalType": "uint256",
              "name": "",
              "type": "uint256"
            }
          ],
          "stateMutability": "view",
          "type": "function"
        },
        {
          "inputs": [],
          "name": "state_powerThreshold",
          "outputs": [
            {
              "internalType": "uint256",
              "name": "",
              "type": "uint256"
            }
          ],
          "stateMutability": "view",
          "type": "function"
        },
        {
          "inputs": [
            {
              "internalType": "address[]",
              "name": "_currentValidators",
              "type": "address[]"
            },
            {
              "internalType": "uint256[]",
              "name": "_currentPowers",
              "type": "uint256[]"
            },
            {
              "internalType": "uint256",
              "name": "_currentValsetNonce",
              "type": "uint256"
            },
            {
              "internalType": "uint8[]",
              "name": "_v",
              "type": "uint8[]"
            },
            {
              "internalType": "bytes32[]",
              "name": "_r",
              "type": "bytes32[]"
            },
            {
              "internalType": "bytes32[]",
              "name": "_s",
              "type": "bytes32[]"
            },
            {
              "internalType": "uint256[]",
              "name": "_amounts",
              "type": "uint256[]"
            },
            {
              "internalType": "address[]",
              "name": "_destinations",
              "type": "address[]"
            },
            {
              "internalType": "uint256[]",
              "name": "_fees",
              "type": "uint256[]"
            },
            {
              "internalType": "uint256",
              "name": "_batchNonce",
              "type": "uint256"
            },
            {
              "internalType": "address",
              "name": "_tokenContract",
              "type": "address"
            },
            {
              "internalType": "uint256",
              "name": "_batchTimeout",
              "type": "uint256"
            }
          ],
          "name": "submitBatch",
          "outputs": [],
          "stateMutability": "nonpayable",
          "type": "function"
        },
        {
          "inputs": [
            {
              "internalType": "address[]",
              "name": "_currentValidators",
              "type": "address[]"
            },
            {
              "internalType": "uint256[]",
              "name": "_currentPowers",
              "type": "uint256[]"
            },
            {
              "internalType": "uint256",
              "name": "_currentValsetNonce",
              "type": "uint256"
            },
            {
              "internalType": "uint8[]",
              "name": "_v",
              "type": "uint8[]"
            },
            {
              "internalType": "bytes32[]",
              "name": "_r",
              "type": "bytes32[]"
            },
            {
              "internalType": "bytes32[]",
              "name": "_s",
              "type": "bytes32[]"
            },
            {
              "components": [
                {
                  "internalType": "uint256[]",
                  "name": "transferAmounts",
                  "type": "uint256[]"
                },
                {
                  "internalType": "address[]",
                  "name": "transferTokenContracts",
                  "type": "address[]"
                },
                {
                  "internalType": "uint256[]",
                  "name": "feeAmounts",
                  "type": "uint256[]"
                },
                {
                  "internalType": "address[]",
                  "name": "feeTokenContracts",
                  "type": "address[]"
                },
                {
                  "internalType": "address",
                  "name": "logicContractAddress",
                  "type": "address"
                },
                {
                  "internalType": "bytes",
                  "name": "payload",
                  "type": "bytes"
                },
                {
                  "internalType": "uint256",
                  "name": "timeOut",
                  "type": "uint256"
                },
                {
                  "internalType": "bytes32",
                  "name": "invalidationId",
                  "type": "bytes32"
                },
                {
                  "internalType": "uint256",
                  "name": "invalidationNonce",
                  "type": "uint256"
                }
              ],
              "internalType": "struct LogicCallArgs",
              "name": "_args",
              "type": "tuple"
            }
          ],
          "name": "submitLogicCall",
          "outputs": [],
          "stateMutability": "nonpayable",
          "type": "function"
        },
        {
          "inputs": [
            {
              "internalType": "address[]",
              "name": "_currentValidators",
              "type": "address[]"
            },
            {
              "internalType": "uint256[]",
              "name": "_currentPowers",
              "type": "uint256[]"
            },
            {
              "internalType": "uint8[]",
              "name": "_v",
              "type": "uint8[]"
            },
            {
              "internalType": "bytes32[]",
              "name": "_r",
              "type": "bytes32[]"
            },
            {
              "internalType": "bytes32[]",
              "name": "_s",
              "type": "bytes32[]"
            },
            {
              "internalType": "bytes32",
              "name": "_theHash",
              "type": "bytes32"
            },
            {
              "internalType": "uint256",
              "name": "_powerThreshold",
              "type": "uint256"
            }
          ],
          "name": "testCheckValidatorSignatures",
          "outputs": [],
          "stateMutability": "pure",
          "type": "function"
        },
        {
          "inputs": [
            {
              "internalType": "address[]",
              "name": "_validators",
              "type": "address[]"
            },
            {
              "internalType": "uint256[]",
              "name": "_powers",
              "type": "uint256[]"
            },
            {
              "internalType": "uint256",
              "name": "_valsetNonce",
              "type": "uint256"
            },
            {
              "internalType": "bytes32",
              "name": "_gravityId",
              "type": "bytes32"
            }
          ],
          "name": "testMakeCheckpoint",
          "outputs": [],
          "stateMutability": "pure",
          "type": "function"
        },
        {
          "inputs": [
            {
              "internalType": "address[]",
              "name": "_newValidators",
              "type": "address[]"
            },
            {
              "internalType": "uint256[]",
              "name": "_newPowers",
              "type": "uint256[]"
            },
            {
              "internalType": "uint256",
              "name": "_newValsetNonce",
              "type": "uint256"
            },
            {
              "internalType": "address[]",
              "name": "_currentValidators",
              "type": "address[]"
            },
            {
              "internalType": "uint256[]",
              "name": "_currentPowers",
              "type": "uint256[]"
            },
            {
              "internalType": "uint256",
              "name": "_currentValsetNonce",
              "type": "uint256"
            },
            {
              "internalType": "uint8[]",
              "name": "_v",
              "type": "uint8[]"
            },
            {
              "internalType": "bytes32[]",
              "name": "_r",
              "type": "bytes32[]"
            },
            {
              "internalType": "bytes32[]",
              "name": "_s",
              "type": "bytes32[]"
            }
          ],
          "name": "updateValset",
          "outputs": [],
          "stateMutability": "nonpayable",
          "type": "function"
        }
      ],
      "evm": {
        "bytecode": {
          "linkReferences": {},
          "object": "6080604052600060045560016005553480156200001b57600080fd5b50604051620038c0380380620038c08339810160408190526200003e9162000233565b60016000558051825114620000705760405162461bcd60e51b8152600401620000679062000431565b60405180910390fd5b6000805b8251811015620000af578281815181106200008b57fe5b60200260200101518201915084821115620000a657620000af565b60010162000074565b50838111620000d25760405162461bcd60e51b81526004016200006790620003d4565b6000620000eb848483896001600160e01b036200014d16565b60068790556007869055600181905560045460055460405192935090917fb119f1f36224601586b5037da909ecf37e83864dddea5d32ad4e32ac1d97e62b9162000139918890889062000468565b60405180910390a2505050505050620004e8565b6040516000906918da1958dadc1bda5b9d60b21b9082906200017c908590849088908b908b906020016200038d565b60408051808303601f190181529190528051602090910120979650505050505050565b80516001600160a01b0381168114620001b757600080fd5b92915050565b600082601f830112620001ce578081fd5b8151620001e5620001df82620004c8565b620004a1565b8181529150602080830190848101818402860182018710156200020757600080fd5b60005b8481101562000228578151845292820192908201906001016200020a565b505050505092915050565b6000806000806080858703121562000249578384fd5b845160208087015160408801519296509450906001600160401b038082111562000271578485fd5b81880189601f82011262000283578586fd5b8051925062000296620001df84620004c8565b83815284810190828601868602840187018d1015620002b3578889fd5b8893505b85841015620002e157620002cc8d826200019f565b835260019390930192918601918601620002b7565b5060608b01519097509450505080831115620002fb578384fd5b50506200030b87828801620001bd565b91505092959194509250565b6000815180845260208085019450808401835b83811015620003515781516001600160a01b0316875295820195908201906001016200032a565b509495945050505050565b6000815180845260208085019450808401835b8381101562000351578151875295820195908201906001016200036f565b600086825285602083015284604083015260a06060830152620003b460a083018562000317565b8281036080840152620003c881856200035c565b98975050505050505050565b6020808252603c908201527f5375626d69747465642076616c696461746f7220736574207369676e6174757260408201527f657320646f206e6f74206861766520656e6f75676820706f7765722e00000000606082015260800190565b6020808252601f908201527f4d616c666f726d65642063757272656e742076616c696461746f722073657400604082015260600190565b60008482526060602083015262000483606083018562000317565b82810360408401526200049781856200035c565b9695505050505050565b6040518181016001600160401b0381118282101715620004c057600080fd5b604052919050565b60006001600160401b03821115620004de578081fd5b5060209081020190565b6133c880620004f86000396000f3fe60806040523480156200001157600080fd5b5060043610620001185760003560e01c8063c227c30b11620000a5578063e3cb9f62116200006f578063e3cb9f621462000224578063e5a2b5d2146200023b578063f2b533071462000245578063f7955637146200024f5762000118565b8063c227c30b14620001c8578063c9d194d514620001df578063db7c4e5714620001f6578063df97174b146200020d5762000118565b80637dfb6f8611620000e75780637dfb6f86146200018657806383b435db146200019d578063b56561fe14620001b4578063bdda81d414620001be5762000118565b8063011b2174146200011d5780630c246c82146200014c5780631ffbe7f9146200016557806373b20547146200017c575b600080fd5b620001346200012e366004620013ef565b62000266565b60405162000143919062001c0d565b60405180910390f35b620001636200015d36600462001830565b62000281565b005b62000163620001763660046200140d565b620005ce565b6200013462000684565b6200013462000197366004620019d4565b6200068a565b62000163620001ae36600462001678565b6200069c565b6200013462000968565b620001346200096e565b62000163620001d93660046200193b565b62000974565b62000134620001f0366004620019d4565b62000989565b62000163620002073660046200144e565b6200099b565b620001346200021e366004620013ef565b620009b5565b62000163620002353660046200153c565b620009c7565b6200013462000b53565b6200013462000b59565b6200016362000260366004620019ed565b62000b5f565b6001600160a01b031660009081526002602052604090205490565b60026000541415620002b05760405162461bcd60e51b8152600401620002a790620022df565b60405180910390fd5b600260005560c08101514310620002db5760405162461bcd60e51b8152600401620002a79062001fec565b61010081015160e082015160009081526003602052604090205410620003155760405162461bcd60e51b8152600401620002a79062001f58565b8551875114801562000328575083518751145b801562000336575082518751145b801562000344575081518751145b620003635760405162461bcd60e51b8152600401620002a790620022a8565b6001546200037688888860065462000c11565b14620003965760405162461bcd60e51b8152600401620002a79062001e6e565b60208101515181515114620003bf5760405162461bcd60e51b8152600401620002a790620020f5565b80606001515181604001515114620003eb5760405162461bcd60e51b8152600401620002a79062001e3e565b6000600654681b1bd9da58d0d85b1b60ba1b836000015184602001518560400151866060015187608001518860a001518960c001518a60e001518b6101000151604051602001620004479b9a9998979695949392919062001c5d565b6040516020818303038152906040528051906020012090506200047288888787878660075462000c63565b61010082015160e08301516000908152600360205260408120919091555b825151811015620004f857620004ef836080015184600001518381518110620004b557fe5b602002602001015185602001518481518110620004ce57fe5b60200260200101516001600160a01b031662000d6d9092919063ffffffff16565b60010162000490565b5060606200050f83608001518460a0015162000dcc565b905060005b8360400151518110156200055a576200055133856040015183815181106200053857fe5b602002602001015186606001518481518110620004ce57fe5b60010162000514565b506005546200057190600163ffffffff62000e1916565b600581905560e08401516101008501516040517f7c2bb24f8e1b3725cb613d7f11ef97d9745cc97a0e40f730621c052d684077a193620005b693929186919062001d83565b60405180910390a15050600160005550505050505050565b60026000541415620005f45760405162461bcd60e51b8152600401620002a790620022df565b6002600055620006166001600160a01b03841633308463ffffffff62000e4116565b6005546200062c90600163ffffffff62000e1916565b6005819055604051839133916001600160a01b038716917fd7767894d73c589daeca9643f445f03d7be61aad2950c117e7cbff4176fca7e491620006729187916200234f565b60405180910390a45050600160005550565b60055481565b60036020526000908152604090205481565b60026000541415620006c25760405162461bcd60e51b8152600401620002a790620022df565b600260008181556001600160a01b038416815260209190915260409020548311620007015760405162461bcd60e51b8152600401620002a79062001ecb565b804310620007235760405162461bcd60e51b8152600401620002a79062002098565b8a518c5114801562000736575088518c51145b801562000744575087518c51145b801562000752575086518c51145b620007715760405162461bcd60e51b8152600401620002a790620022a8565b600154620007848d8d8d60065462000c11565b14620007a45760405162461bcd60e51b8152600401620002a79062001e6e565b84518651148015620007b7575083518651145b620007d65760405162461bcd60e51b8152600401620002a79062001f21565b620008348c8c8b8b8b6006546f0e8e4c2dce6c2c6e8d2dedc84c2e8c6d60831b8d8d8d8d8d8d6040516020016200081598979695949392919062001d0c565b6040516020818303038152906040528051906020012060075462000c63565b6001600160a01b0382166000908152600260205260408120849055805b8751811015620008d757620008a38782815181106200086c57fe5b60200260200101518983815181106200088157fe5b6020026020010151866001600160a01b031662000d6d9092919063ffffffff16565b620008cc868281518110620008b457fe5b60200260200101518362000e1990919063ffffffff16565b915060010162000851565b50620008f46001600160a01b038416338363ffffffff62000d6d16565b506005546200090b90600163ffffffff62000e1916565b60058190556040516001600160a01b0384169185917f02c7e81975f8edb86e2a0c038b7b86a49c744236abf0f6177ff5afc6986ab708916200094d9162001c0d565b60405180910390a35050600160005550505050505050505050565b60045481565b60065481565b620009828484848462000c11565b5050505050565b60009081526003602052604090205490565b620009ac8787878787878762000c63565b50505050505050565b60026020526000908152604090205481565b60026000541415620009ed5760405162461bcd60e51b8152600401620002a790620022df565b600260005583871162000a145760405162461bcd60e51b8152600401620002a790620021ca565b875189511462000a385760405162461bcd60e51b8152600401620002a79062002136565b8451865114801562000a4b575082518651145b801562000a59575081518651145b801562000a67575080518651145b62000a865760405162461bcd60e51b8152600401620002a790620022a8565b60015462000a9987878760065462000c11565b1462000ab95760405162461bcd60e51b8152600401620002a79062001e6e565b600062000acb8a8a8a60065462000c11565b905062000ae087878686868660075462000c63565b6001818155600489905560055462000afe9163ffffffff62000e1916565b600581905560405189917fb119f1f36224601586b5037da909ecf37e83864dddea5d32ad4e32ac1d97e62b9162000b3a91908e908e9062002316565b60405180910390a2505060016000555050505050505050565b60075481565b60015481565b60003084848460405162000b7390620010d0565b62000b82949392919062001ba5565b604051809103906000f08015801562000b9f573d6000803e3d6000fd5b5060055490915062000bb990600163ffffffff62000e1916565b60058190556040516001600160a01b038316917f82fe3a4fa49c6382d0c085746698ddbbafe6c2bf61285b19410644b5b26287c79162000c029189918991899189919062001de8565b60405180910390a25050505050565b6040516000906918da1958dadc1bda5b9d60b21b90829062000c40908590849088908b908b9060200162001c16565b60408051808303601f190181529190528051602090910120979650505050505050565b6000805b885181101562000d405786818151811062000c7e57fe5b602002602001015160ff1660001462000d375762000cf089828151811062000ca257fe5b60200260200101518589848151811062000cb857fe5b602002602001015189858151811062000ccd57fe5b602002602001015189868151811062000ce257fe5b602002602001015162000e6b565b62000d0f5760405162461bcd60e51b8152600401620002a7906200200f565b87818151811062000d1c57fe5b6020026020010151820191508282111562000d375762000d40565b60010162000c67565b5081811162000d635760405162461bcd60e51b8152600401620002a7906200216d565b5050505050505050565b62000dc78363a9059cbb60e01b848460405160240162000d8f92919062001bf4565b60408051601f198184030181529190526020810180516001600160e01b03166001600160e01b03199093169290921790915262000f0b565b505050565b606062000e1083836040518060400160405280601e81526020017f416464726573733a206c6f772d6c6576656c2063616c6c206661696c6564000081525062000fa2565b90505b92915050565b60008282018381101562000e105760405162461bcd60e51b8152600401620002a79062001fb5565b62000e65846323b872dd60e01b85858560405160240162000d8f9392919062001b81565b50505050565b6000808560405160200162000e81919062001b50565b6040516020818303038152906040528051906020012090506001818686866040516000815260200160405260405162000ebe949392919062001db5565b6020604051602081039080840390855afa15801562000ee1573d6000803e3d6000fd5b505050602060405103516001600160a01b0316876001600160a01b03161491505095945050505050565b606062000f62826040518060400160405280602081526020017f5361666545524332303a206c6f772d6c6576656c2063616c6c206661696c6564815250856001600160a01b031662000fa29092919063ffffffff16565b80519091501562000dc7578080602001905181019062000f839190620019b2565b62000dc75760405162461bcd60e51b8152600401620002a7906200225e565b606062000fb3848460008562000fbd565b90505b9392505050565b60608247101562000fe25760405162461bcd60e51b8152600401620002a79062002052565b62000fed856200108c565b6200100c5760405162461bcd60e51b8152600401620002a79062002227565b60006060866001600160a01b031685876040516200102b919062001b32565b60006040518083038185875af1925050503d80600081146200106a576040519150601f19603f3d011682016040523d82523d6000602084013e6200106f565b606091505b50915091506200108182828662001092565b979650505050505050565b3b151590565b60608315620010a357508162000fb6565b825115620010b45782518084602001fd5b8160405162461bcd60e51b8152600401620002a7919062001dd3565b610fbf80620023d483390190565b80356001600160a01b038116811462000e1357600080fd5b600082601f83011262001107578081fd5b81356200111e620011188262002384565b6200235d565b8181529150602080830190848101818402860182018710156200114057600080fd5b60005b848110156200116b57620011588883620010de565b8452928201929082019060010162001143565b505050505092915050565b600082601f83011262001187578081fd5b813562001198620011188262002384565b818152915060208083019084810181840286018201871015620011ba57600080fd5b60005b848110156200116b57813584529282019290820190600101620011bd565b600082601f830112620011ec578081fd5b8135620011fd620011188262002384565b8181529150602080830190848101818402860182018710156200121f57600080fd5b60005b848110156200116b57620012378883620013dd565b8452928201929082019060010162001222565b600082601f8301126200125b578081fd5b81356001600160401b0381111562001271578182fd5b62001286601f8201601f19166020016200235d565b91508082528360208285010111156200129e57600080fd5b8060208401602084013760009082016020015292915050565b6000610120808385031215620012cb578182fd5b620012d6816200235d565b91505081356001600160401b0380821115620012f157600080fd5b620012ff8583860162001176565b835260208401359150808211156200131657600080fd5b6200132485838601620010f6565b602084015260408401359150808211156200133e57600080fd5b6200134c8583860162001176565b604084015260608401359150808211156200136657600080fd5b6200137485838601620010f6565b6060840152620013888560808601620010de565b608084015260a0840135915080821115620013a257600080fd5b50620013b1848285016200124a565b60a08301525060c082013560c082015260e082013560e082015261010080830135818301525092915050565b803560ff8116811462000e1357600080fd5b60006020828403121562001401578081fd5b62000e108383620010de565b60008060006060848603121562001422578182fd5b83356001600160a01b038116811462001439578283fd5b95602085013595506040909401359392505050565b600080600080600080600060e0888a03121562001469578283fd5b87356001600160401b038082111562001480578485fd5b6200148e8b838c01620010f6565b985060208a0135915080821115620014a4578485fd5b620014b28b838c0162001176565b975060408a0135915080821115620014c8578485fd5b620014d68b838c01620011db565b965060608a0135915080821115620014ec578485fd5b620014fa8b838c0162001176565b955060808a013591508082111562001510578485fd5b506200151f8a828b0162001176565b93505060a0880135915060c0880135905092959891949750929550565b60008060008060008060008060006101208a8c0312156200155b578182fd5b89356001600160401b038082111562001572578384fd5b620015808d838e01620010f6565b9a5060208c013591508082111562001596578384fd5b620015a48d838e0162001176565b995060408c0135985060608c0135915080821115620015c1578384fd5b620015cf8d838e01620010f6565b975060808c0135915080821115620015e5578384fd5b620015f38d838e0162001176565b965060a08c0135955060c08c013591508082111562001610578384fd5b6200161e8d838e01620011db565b945060e08c013591508082111562001634578384fd5b620016428d838e0162001176565b93506101008c013591508082111562001659578283fd5b50620016688c828d0162001176565b9150509295985092959850929598565b6000806000806000806000806000806000806101808d8f0312156200169b578586fd5b6001600160401b038d351115620016b0578586fd5b620016bf8e8e358f01620010f6565b9b506001600160401b0360208e01351115620016d9578586fd5b620016eb8e60208f01358f0162001176565b9a5060408d013599506001600160401b0360608e013511156200170c578586fd5b6200171e8e60608f01358f01620011db565b98506001600160401b0360808e0135111562001738578586fd5b6200174a8e60808f01358f0162001176565b97506001600160401b0360a08e0135111562001764578586fd5b620017768e60a08f01358f0162001176565b96506001600160401b0360c08e0135111562001790578586fd5b620017a28e60c08f01358f0162001176565b95506001600160401b0360e08e01351115620017bc578283fd5b620017ce8e60e08f01358f01620010f6565b94506001600160401b036101008e01351115620017e9578283fd5b620017fc8e6101008f01358f0162001176565b93506101208d01359250620018168e6101408f01620010de565b91506101608d013590509295989b509295989b509295989b565b600080600080600080600060e0888a0312156200184b578081fd5b87356001600160401b038082111562001862578283fd5b620018708b838c01620010f6565b985060208a013591508082111562001886578283fd5b620018948b838c0162001176565b975060408a0135965060608a0135915080821115620018b1578283fd5b620018bf8b838c01620011db565b955060808a0135915080821115620018d5578283fd5b620018e38b838c0162001176565b945060a08a0135915080821115620018f9578283fd5b620019078b838c0162001176565b935060c08a01359150808211156200191d578283fd5b506200192c8a828b01620012b7565b91505092959891949750929550565b6000806000806080858703121562001951578182fd5b84356001600160401b038082111562001968578384fd5b6200197688838901620010f6565b955060208701359150808211156200198c578384fd5b506200199b8782880162001176565b949794965050505060408301359260600135919050565b600060208284031215620019c4578081fd5b8151801515811462000e10578182fd5b600060208284031215620019e6578081fd5b5035919050565b6000806000806080858703121562001a03578182fd5b84356001600160401b038082111562001a1a578384fd5b62001a28888389016200124a565b9550602087013591508082111562001a3e578384fd5b62001a4c888389016200124a565b9450604087013591508082111562001a62578384fd5b5062001a71878288016200124a565b92505062001a838660608701620013dd565b905092959194509250565b6000815180845260208085019450808401835b8381101562001ac85781516001600160a01b03168752958201959082019060010162001aa1565b509495945050505050565b6000815180845260208085019450808401835b8381101562001ac85781518752958201959082019060010162001ae6565b6000815180845262001b1e816020860160208601620023a4565b601f01601f19169290920160200192915050565b6000825162001b46818460208701620023a4565b9190910192915050565b7f19457468657265756d205369676e6564204d6573736167653a0a3332000000008152601c810191909152603c0190565b6001600160a01b039384168152919092166020820152604081019190915260600190565b6001600160a01b038516815260806020820181905260009062001bcb9083018662001b04565b828103604084015262001bdf818662001b04565b91505060ff8316606083015295945050505050565b6001600160a01b03929092168252602082015260400190565b90815260200190565b600086825285602083015284604083015260a0606083015262001c3d60a083018562001a8e565b828103608084015262001c51818562001ad3565b98975050505050505050565b60006101608d83528c602084015280604084015262001c7f8184018d62001ad3565b838103606085015262001c93818d62001a8e565b915050828103608084015262001caa818b62001ad3565b83810360a085015262001cbe818b62001a8e565b6001600160a01b038a1660c086015284810360e0860152915062001ce59050818862001b04565b61010084019690965250506101208101929092526101409091015298975050505050505050565b60006101008a835289602084015280604084015262001d2e8184018a62001ad3565b838103606085015262001d42818a62001a8e565b915050828103608084015262001d59818862001ad3565b60a084019690965250506001600160a01b039290921660c083015260e09091015295945050505050565b60008582528460208301526080604083015262001da4608083018562001b04565b905082606083015295945050505050565b93845260ff9290921660208401526040830152606082015260800190565b60006020825262000e10602083018462001b04565b600060a0825262001dfd60a083018862001b04565b828103602084015262001e11818862001b04565b838103604085015262001e25818862001b04565b60ff969096166060850152505050608001529392505050565b6020808252601690820152754d616c666f726d6564206c697374206f66206665657360501b604082015260600190565b6020808252603f908201527f537570706c6965642063757272656e742076616c696461746f727320616e642060408201527f706f7765727320646f206e6f74206d6174636820636865636b706f696e742e00606082015260800190565b60208082526036908201527f4e6577206261746368206e6f6e6365206d7573742062652067726561746572206040820152757468616e207468652063757272656e74206e6f6e636560501b606082015260800190565b6020808252601f908201527f4d616c666f726d6564206261746368206f66207472616e73616374696f6e7300604082015260600190565b6020808252603d908201527f4e657720696e76616c69646174696f6e206e6f6e6365206d757374206265206760408201527f726561746572207468616e207468652063757272656e74206e6f6e6365000000606082015260800190565b6020808252601b908201527f536166654d6174683a206164646974696f6e206f766572666c6f770000000000604082015260600190565b602080825260099082015268151a5b5959081bdd5d60ba1b604082015260600190565b60208082526023908201527f56616c696461746f72207369676e617475726520646f6573206e6f74206d617460408201526231b41760e91b606082015260800190565b60208082526026908201527f416464726573733a20696e73756666696369656e742062616c616e636520666f6040820152651c8818d85b1b60d21b606082015260800190565b6020808252603b908201527f42617463682074696d656f7574206d757374206265206772656174657220746860408201527f616e207468652063757272656e7420626c6f636b206865696768740000000000606082015260800190565b60208082526021908201527f4d616c666f726d6564206c697374206f6620746f6b656e207472616e736665726040820152607360f81b606082015260800190565b6020808252601b908201527f4d616c666f726d6564206e65772076616c696461746f72207365740000000000604082015260600190565b6020808252603c908201527f5375626d69747465642076616c696461746f7220736574207369676e6174757260408201527f657320646f206e6f74206861766520656e6f75676820706f7765722e00000000606082015260800190565b60208082526037908201527f4e65772076616c736574206e6f6e6365206d757374206265206772656174657260408201527f207468616e207468652063757272656e74206e6f6e6365000000000000000000606082015260800190565b6020808252601d908201527f416464726573733a2063616c6c20746f206e6f6e2d636f6e7472616374000000604082015260600190565b6020808252602a908201527f5361666545524332303a204552433230206f7065726174696f6e20646964206e6040820152691bdd081cdd58d8d9595960b21b606082015260800190565b6020808252601f908201527f4d616c666f726d65642063757272656e742076616c696461746f722073657400604082015260600190565b6020808252601f908201527f5265656e7472616e637947756172643a207265656e7472616e742063616c6c00604082015260600190565b60008482526060602083015262002331606083018562001a8e565b828103604084015262002345818562001ad3565b9695505050505050565b918252602082015260400190565b6040518181016001600160401b03811182821017156200237c57600080fd5b604052919050565b60006001600160401b038211156200239a578081fd5b5060209081020190565b60005b83811015620023c1578181015183820152602001620023a7565b8381111562000e65575050600091015256fe60806040526063196006553480156200001757600080fd5b5060405162000fbf38038062000fbf833981810160405260808110156200003d57600080fd5b8151602083018051604051929492938301929190846401000000008211156200006557600080fd5b9083019060208201858111156200007b57600080fd5b82516401000000008111828201881017156200009657600080fd5b82525081516020918201929091019080838360005b83811015620000c5578181015183820152602001620000ab565b50505050905090810190601f168015620000f35780820380516001836020036101000a031916815260200191505b50604052602001805160405193929190846401000000008211156200011757600080fd5b9083019060208201858111156200012d57600080fd5b82516401000000008111828201881017156200014857600080fd5b82525081516020918201929091019080838360005b83811015620001775781810151838201526020016200015d565b50505050905090810190601f168015620001a55780820380516001836020036101000a031916815260200191505b5060405260209081015185519093508592508491620001ca91600391850190620003b7565b508051620001e0906004906020840190620003b7565b50506005805460ff191660121790555062000204816001600160e01b036200022216565b62000218846006546200023860201b60201c565b505050506200045c565b6005805460ff191660ff92909216919091179055565b6001600160a01b03821662000294576040805162461bcd60e51b815260206004820152601f60248201527f45524332303a206d696e7420746f20746865207a65726f206164647265737300604482015290519081900360640190fd5b620002ab600083836001600160e01b036200035016565b620002c7816002546200035560201b620009b61790919060201c565b6002556001600160a01b03821660009081526020818152604090912054620002fa918390620009b662000355821b17901c565b6001600160a01b0383166000818152602081815260408083209490945583518581529351929391927fddf252ad1be2c89b69c2b068fc378daa952ba7f163c4a11628f55a4df523b3ef9281900390910190a35050565b505050565b600082820183811015620003b0576040805162461bcd60e51b815260206004820152601b60248201527f536166654d6174683a206164646974696f6e206f766572666c6f770000000000604482015290519081900360640190fd5b9392505050565b828054600181600116156101000203166002900490600052602060002090601f016020900481019282601f10620003fa57805160ff19168380011785556200042a565b828001600101855582156200042a579182015b828111156200042a5782518255916020019190600101906200040d565b50620004389291506200043c565b5090565b6200045991905b8082111562000438576000815560010162000443565b90565b610b53806200046c6000396000f3fe608060405234801561001057600080fd5b50600436106100b45760003560e01c80633950935111610071578063395093511461021257806370a082311461023e57806395d89b4114610264578063a457c2d71461026c578063a9059cbb14610298578063dd62ed3e146102c4576100b4565b806306fdde03146100b9578063095ea7b31461013657806318160ddd1461017657806323b872dd146101905780632ebdf54d146101c6578063313ce567146101f4575b600080fd5b6100c16102f2565b6040805160208082528351818301528351919283929083019185019080838360005b838110156100fb5781810151838201526020016100e3565b50505050905090810190601f1680156101285780820380516001836020036101000a031916815260200191505b509250505060405180910390f35b6101626004803603604081101561014c57600080fd5b506001600160a01b038135169060200135610388565b604080519115158252519081900360200190f35b61017e6103a5565b60408051918252519081900360200190f35b610162600480360360608110156101a657600080fd5b506001600160a01b038135811691602081013590911690604001356103ab565b6101f2600480360360408110156101dc57600080fd5b506001600160a01b038135169060200135610438565b005b6101fc610446565b6040805160ff9092168252519081900360200190f35b6101626004803603604081101561022857600080fd5b506001600160a01b03813516906020013561044f565b61017e6004803603602081101561025457600080fd5b50356001600160a01b03166104a3565b6100c16104be565b6101626004803603604081101561028257600080fd5b506001600160a01b03813516906020013561051f565b610162600480360360408110156102ae57600080fd5b506001600160a01b03813516906020013561058d565b61017e600480360360408110156102da57600080fd5b506001600160a01b03813581169160200135166105a1565b60038054604080516020601f600260001961010060018816150201909516949094049384018190048102820181019092528281526060939092909183018282801561037e5780601f106103535761010080835404028352916020019161037e565b820191906000526020600020905b81548152906001019060200180831161036157829003601f168201915b5050505050905090565b600061039c6103956105cc565b84846105d0565b50600192915050565b60025490565b60006103b88484846106bc565b61042e846103c46105cc565b61042985604051806060016040528060288152602001610a88602891396001600160a01b038a166000908152600160205260408120906104026105cc565b6001600160a01b03168152602081019190915260400160002054919063ffffffff61082316565b6105d0565b5060019392505050565b61044282826108ba565b5050565b60055460ff1690565b600061039c61045c6105cc565b84610429856001600061046d6105cc565b6001600160a01b03908116825260208083019390935260409182016000908120918c16815292529020549063ffffffff6109b616565b6001600160a01b031660009081526020819052604090205490565b60048054604080516020601f600260001961010060018816150201909516949094049384018190048102820181019092528281526060939092909183018282801561037e5780601f106103535761010080835404028352916020019161037e565b600061039c61052c6105cc565b8461042985604051806060016040528060258152602001610af960259139600160006105566105cc565b6001600160a01b03908116825260208083019390935260409182016000908120918d1681529252902054919063ffffffff61082316565b600061039c61059a6105cc565b84846106bc565b6001600160a01b03918216600090815260016020908152604080832093909416825291909152205490565b3390565b6001600160a01b0383166106155760405162461bcd60e51b8152600401808060200182810382526024815260200180610ad56024913960400191505060405180910390fd5b6001600160a01b03821661065a5760405162461bcd60e51b8152600401808060200182810382526022815260200180610a406022913960400191505060405180910390fd5b6001600160a01b03808416600081815260016020908152604080832094871680845294825291829020859055815185815291517f8c5be1e5ebec7d5bd14f71427d1e84f3dd0314c0f7b2291e5b200ac8c7c3b9259281900390910190a3505050565b6001600160a01b0383166107015760405162461bcd60e51b8152600401808060200182810382526025815260200180610ab06025913960400191505060405180910390fd5b6001600160a01b0382166107465760405162461bcd60e51b8152600401808060200182810382526023815260200180610a1d6023913960400191505060405180910390fd5b610751838383610a17565b61079481604051806060016040528060268152602001610a62602691396001600160a01b038616600090815260208190526040902054919063ffffffff61082316565b6001600160a01b0380851660009081526020819052604080822093909355908416815220546107c9908263ffffffff6109b616565b6001600160a01b038084166000818152602081815260409182902094909455805185815290519193928716927fddf252ad1be2c89b69c2b068fc378daa952ba7f163c4a11628f55a4df523b3ef92918290030190a3505050565b600081848411156108b25760405162461bcd60e51b81526004018080602001828103825283818151815260200191508051906020019080838360005b8381101561087757818101518382015260200161085f565b50505050905090810190601f1680156108a45780820380516001836020036101000a031916815260200191505b509250505060405180910390fd5b505050900390565b6001600160a01b038216610915576040805162461bcd60e51b815260206004820152601f60248201527f45524332303a206d696e7420746f20746865207a65726f206164647265737300604482015290519081900360640190fd5b61092160008383610a17565b600254610934908263ffffffff6109b616565b6002556001600160a01b038216600090815260208190526040902054610960908263ffffffff6109b616565b6001600160a01b0383166000818152602081815260408083209490945583518581529351929391927fddf252ad1be2c89b69c2b068fc378daa952ba7f163c4a11628f55a4df523b3ef9281900390910190a35050565b600082820183811015610a10576040805162461bcd60e51b815260206004820152601b60248201527f536166654d6174683a206164646974696f6e206f766572666c6f770000000000604482015290519081900360640190fd5b9392505050565b50505056fe45524332303a207472616e7366657220746f20746865207a65726f206164647265737345524332303a20617070726f766520746f20746865207a65726f206164647265737345524332303a207472616e7366657220616d6f756e7420657863656564732062616c616e636545524332303a207472616e7366657220616d6f756e74206578636565647320616c6c6f77616e636545524332303a207472616e736665722066726f6d20746865207a65726f206164647265737345524332303a20617070726f76652066726f6d20746865207a65726f206164647265737345524332303a2064656372656173656420616c6c6f77616e63652062656c6f77207a65726fa2646970667358221220ab158517efdaec8a042b9b7d85e1f6fac1f74cd318bce4ac375d542bf5a5fc1464736f6c63430006060033a2646970667358221220dc8ed73b30510e673685bb664bdeacb3d8ad43b43effde01fd8cde79299a21f264736f6c63430006060033",
          "opcodes": "PUSH1 0x80 PUSH1 0x40 MSTORE PUSH1 0x0 PUSH1 0x4 SSTORE PUSH1 0x1 PUSH1 0x5 SSTORE CALLVALUE DUP1 ISZERO PUSH3 0x1B JUMPI PUSH1 0x0 DUP1 REVERT JUMPDEST POP PUSH1 0x40 MLOAD PUSH3 0x38C0 CODESIZE SUB DUP1 PUSH3 0x38C0 DUP4 CODECOPY DUP2 ADD PUSH1 0x40 DUP2 SWAP1 MSTORE PUSH3 0x3E SWAP2 PUSH3 0x233 JUMP JUMPDEST PUSH1 0x1 PUSH1 0x0 SSTORE DUP1 MLOAD DUP3 MLOAD EQ PUSH3 0x70 JUMPI PUSH1 0x40 MLOAD PUSH3 0x461BCD PUSH1 0xE5 SHL DUP2 MSTORE PUSH1 0x4 ADD PUSH3 0x67 SWAP1 PUSH3 0x431 JUMP JUMPDEST PUSH1 0x40 MLOAD DUP1 SWAP2 SUB SWAP1 REVERT JUMPDEST PUSH1 0x0 DUP1 JUMPDEST DUP3 MLOAD DUP2 LT ISZERO PUSH3 0xAF JUMPI DUP3 DUP2 DUP2 MLOAD DUP2 LT PUSH3 0x8B JUMPI INVALID JUMPDEST PUSH1 0x20 MUL PUSH1 0x20 ADD ADD MLOAD DUP3 ADD SWAP2 POP DUP5 DUP3 GT ISZERO PUSH3 0xA6 JUMPI PUSH3 0xAF JUMP JUMPDEST PUSH1 0x1 ADD PUSH3 0x74 JUMP JUMPDEST POP DUP4 DUP2 GT PUSH3 0xD2 JUMPI PUSH1 0x40 MLOAD PUSH3 0x461BCD PUSH1 0xE5 SHL DUP2 MSTORE PUSH1 0x4 ADD PUSH3 0x67 SWAP1 PUSH3 0x3D4 JUMP JUMPDEST PUSH1 0x0 PUSH3 0xEB DUP5 DUP5 DUP4 DUP10 PUSH1 0x1 PUSH1 0x1 PUSH1 0xE0 SHL SUB PUSH3 0x14D AND JUMP JUMPDEST PUSH1 0x6 DUP8 SWAP1 SSTORE PUSH1 0x7 DUP7 SWAP1 SSTORE PUSH1 0x1 DUP2 SWAP1 SSTORE PUSH1 0x4 SLOAD PUSH1 0x5 SLOAD PUSH1 0x40 MLOAD SWAP3 SWAP4 POP SWAP1 SWAP2 PUSH32 0xB119F1F36224601586B5037DA909ECF37E83864DDDEA5D32AD4E32AC1D97E62B SWAP2 PUSH3 0x139 SWAP2 DUP9 SWAP1 DUP9 SWAP1 PUSH3 0x468 JUMP JUMPDEST PUSH1 0x40 MLOAD DUP1 SWAP2 SUB SWAP1 LOG2 POP POP POP POP POP POP PUSH3 0x4E8 JUMP JUMPDEST PUSH1 0x40 MLOAD PUSH1 0x0 SWAP1 PUSH10 0x18DA1958DADC1BDA5B9D PUSH1 0xB2 SHL SWAP1 DUP3 SWAP1 PUSH3 0x17C SWAP1 DUP6 SWAP1 DUP5 SWAP1 DUP9 SWAP1 DUP12 SWAP1 DUP12 SWAP1 PUSH1 0x20 ADD PUSH3 0x38D JUMP JUMPDEST PUSH1 0x40 DUP1 MLOAD DUP1 DUP4 SUB PUSH1 0x1F NOT ADD DUP2 MSTORE SWAP2 SWAP1 MSTORE DUP1 MLOAD PUSH1 0x20 SWAP1 SWAP2 ADD KECCAK256 SWAP8 SWAP7 POP POP POP POP POP POP POP JUMP JUMPDEST DUP1 MLOAD PUSH1 0x1 PUSH1 0x1 PUSH1 0xA0 SHL SUB DUP2 AND DUP2 EQ PUSH3 0x1B7 JUMPI PUSH1 0x0 DUP1 REVERT JUMPDEST SWAP3 SWAP2 POP POP JUMP JUMPDEST PUSH1 0x0 DUP3 PUSH1 0x1F DUP4 ADD SLT PUSH3 0x1CE JUMPI DUP1 DUP2 REVERT JUMPDEST DUP2 MLOAD PUSH3 0x1E5 PUSH3 0x1DF DUP3 PUSH3 0x4C8 JUMP JUMPDEST PUSH3 0x4A1 JUMP JUMPDEST DUP2 DUP2 MSTORE SWAP2 POP PUSH1 0x20 DUP1 DUP4 ADD SWAP1 DUP5 DUP2 ADD DUP2 DUP5 MUL DUP7 ADD DUP3 ADD DUP8 LT ISZERO PUSH3 0x207 JUMPI PUSH1 0x0 DUP1 REVERT JUMPDEST PUSH1 0x0 JUMPDEST DUP5 DUP2 LT ISZERO PUSH3 0x228 JUMPI DUP2 MLOAD DUP5 MSTORE SWAP3 DUP3 ADD SWAP3 SWAP1 DUP3 ADD SWAP1 PUSH1 0x1 ADD PUSH3 0x20A JUMP JUMPDEST POP POP POP POP POP SWAP3 SWAP2 POP POP JUMP JUMPDEST PUSH1 0x0 DUP1 PUSH1 0x0 DUP1 PUSH1 0x80 DUP6 DUP8 SUB SLT ISZERO PUSH3 0x249 JUMPI DUP4 DUP5 REVERT JUMPDEST DUP5 MLOAD PUSH1 0x20 DUP1 DUP8 ADD MLOAD PUSH1 0x40 DUP9 ADD MLOAD SWAP3 SWAP7 POP SWAP5 POP SWAP1 PUSH1 0x1 PUSH1 0x1 PUSH1 0x40 SHL SUB DUP1 DUP3 GT ISZERO PUSH3 0x271 JUMPI DUP5 DUP6 REVERT JUMPDEST DUP2 DUP9 ADD DUP10 PUSH1 0x1F DUP3 ADD SLT PUSH3 0x283 JUMPI DUP6 DUP7 REVERT JUMPDEST DUP1 MLOAD SWAP3 POP PUSH3 0x296 PUSH3 0x1DF DUP5 PUSH3 0x4C8 JUMP JUMPDEST DUP4 DUP2 MSTORE DUP5 DUP2 ADD SWAP1 DUP3 DUP7 ADD DUP7 DUP7 MUL DUP5 ADD DUP8 ADD DUP14 LT ISZERO PUSH3 0x2B3 JUMPI DUP9 DUP10 REVERT JUMPDEST DUP9 SWAP4 POP JUMPDEST DUP6 DUP5 LT ISZERO PUSH3 0x2E1 JUMPI PUSH3 0x2CC DUP14 DUP3 PUSH3 0x19F JUMP JUMPDEST DUP4 MSTORE PUSH1 0x1 SWAP4 SWAP1 SWAP4 ADD SWAP3 SWAP2 DUP7 ADD SWAP2 DUP7 ADD PUSH3 0x2B7 JUMP JUMPDEST POP PUSH1 0x60 DUP12 ADD MLOAD SWAP1 SWAP8 POP SWAP5 POP POP POP DUP1 DUP4 GT ISZERO PUSH3 0x2FB JUMPI DUP4 DUP5 REVERT JUMPDEST POP POP PUSH3 0x30B DUP8 DUP3 DUP9 ADD PUSH3 0x1BD JUMP JUMPDEST SWAP2 POP POP SWAP3 SWAP6 SWAP2 SWAP5 POP SWAP3 POP JUMP JUMPDEST PUSH1 0x0 DUP2 MLOAD DUP1 DUP5 MSTORE PUSH1 0x20 DUP1 DUP6 ADD SWAP5 POP DUP1 DUP5 ADD DUP4 JUMPDEST DUP4 DUP2 LT ISZERO PUSH3 0x351 JUMPI DUP2 MLOAD PUSH1 0x1 PUSH1 0x1 PUSH1 0xA0 SHL SUB AND DUP8 MSTORE SWAP6 DUP3 ADD SWAP6 SWAP1 DUP3 ADD SWAP1 PUSH1 0x1 ADD PUSH3 0x32A JUMP JUMPDEST POP SWAP5 SWAP6 SWAP5 POP POP POP POP POP JUMP JUMPDEST PUSH1 0x0 DUP2 MLOAD DUP1 DUP5 MSTORE PUSH1 0x20 DUP1 DUP6 ADD SWAP5 POP DUP1 DUP5 ADD DUP4 JUMPDEST DUP4 DUP2 LT ISZERO PUSH3 0x351 JUMPI DUP2 MLOAD DUP8 MSTORE SWAP6 DUP3 ADD SWAP6 SWAP1 DUP3 ADD SWAP1 PUSH1 0x1 ADD PUSH3 0x36F JUMP JUMPDEST PUSH1 0x0 DUP7 DUP3 MSTORE DUP6 PUSH1 0x20 DUP4 ADD MSTORE DUP5 PUSH1 0x40 DUP4 ADD MSTORE PUSH1 0xA0 PUSH1 0x60 DUP4 ADD MSTORE PUSH3 0x3B4 PUSH1 0xA0 DUP4 ADD DUP6 PUSH3 0x317 JUMP JUMPDEST DUP3 DUP2 SUB PUSH1 0x80 DUP5 ADD MSTORE PUSH3 0x3C8 DUP2 DUP6 PUSH3 0x35C JUMP JUMPDEST SWAP9 SWAP8 POP POP POP POP POP POP POP POP JUMP JUMPDEST PUSH1 0x20 DUP1 DUP3 MSTORE PUSH1 0x3C SWAP1 DUP3 ADD MSTORE PUSH32 0x5375626D69747465642076616C696461746F7220736574207369676E61747572 PUSH1 0x40 DUP3 ADD MSTORE PUSH32 0x657320646F206E6F74206861766520656E6F75676820706F7765722E00000000 PUSH1 0x60 DUP3 ADD MSTORE PUSH1 0x80 ADD SWAP1 JUMP JUMPDEST PUSH1 0x20 DUP1 DUP3 MSTORE PUSH1 0x1F SWAP1 DUP3 ADD MSTORE PUSH32 0x4D616C666F726D65642063757272656E742076616C696461746F722073657400 PUSH1 0x40 DUP3 ADD MSTORE PUSH1 0x60 ADD SWAP1 JUMP JUMPDEST PUSH1 0x0 DUP5 DUP3 MSTORE PUSH1 0x60 PUSH1 0x20 DUP4 ADD MSTORE PUSH3 0x483 PUSH1 0x60 DUP4 ADD DUP6 PUSH3 0x317 JUMP JUMPDEST DUP3 DUP2 SUB PUSH1 0x40 DUP5 ADD MSTORE PUSH3 0x497 DUP2 DUP6 PUSH3 0x35C JUMP JUMPDEST SWAP7 SWAP6 POP POP POP POP POP POP JUMP JUMPDEST PUSH1 0x40 MLOAD DUP2 DUP2 ADD PUSH1 0x1 PUSH1 0x1 PUSH1 0x40 SHL SUB DUP2 GT DUP3 DUP3 LT OR ISZERO PUSH3 0x4C0 JUMPI PUSH1 0x0 DUP1 REVERT JUMPDEST PUSH1 0x40 MSTORE SWAP2 SWAP1 POP JUMP JUMPDEST PUSH1 0x0 PUSH1 0x1 PUSH1 0x1 PUSH1 0x40 SHL SUB DUP3 GT ISZERO PUSH3 0x4DE JUMPI DUP1 DUP2 REVERT JUMPDEST POP PUSH1 0x20 SWAP1 DUP2 MUL ADD SWAP1 JUMP JUMPDEST PUSH2 0x33C8 DUP1 PUSH3 0x4F8 PUSH1 0x0 CODECOPY PUSH1 0x0 RETURN INVALID PUSH1 0x80 PUSH1 0x40 MSTORE CALLVALUE DUP1 ISZERO PUSH3 0x11 JUMPI PUSH1 0x0 DUP1 REVERT JUMPDEST POP PUSH1 0x4 CALLDATASIZE LT PUSH3 0x118 JUMPI PUSH1 0x0 CALLDATALOAD PUSH1 0xE0 SHR DUP1 PUSH4 0xC227C30B GT PUSH3 0xA5 JUMPI DUP1 PUSH4 0xE3CB9F62 GT PUSH3 0x6F JUMPI DUP1 PUSH4 0xE3CB9F62 EQ PUSH3 0x224 JUMPI DUP1 PUSH4 0xE5A2B5D2 EQ PUSH3 0x23B JUMPI DUP1 PUSH4 0xF2B53307 EQ PUSH3 0x245 JUMPI DUP1 PUSH4 0xF7955637 EQ PUSH3 0x24F JUMPI PUSH3 0x118 JUMP JUMPDEST DUP1 PUSH4 0xC227C30B EQ PUSH3 0x1C8 JUMPI DUP1 PUSH4 0xC9D194D5 EQ PUSH3 0x1DF JUMPI DUP1 PUSH4 0xDB7C4E57 EQ PUSH3 0x1F6 JUMPI DUP1 PUSH4 0xDF97174B EQ PUSH3 0x20D JUMPI PUSH3 0x118 JUMP JUMPDEST DUP1 PUSH4 0x7DFB6F86 GT PUSH3 0xE7 JUMPI DUP1 PUSH4 0x7DFB6F86 EQ PUSH3 0x186 JUMPI DUP1 PUSH4 0x83B435DB EQ PUSH3 0x19D JUMPI DUP1 PUSH4 0xB56561FE EQ PUSH3 0x1B4 JUMPI DUP1 PUSH4 0xBDDA81D4 EQ PUSH3 0x1BE JUMPI PUSH3 0x118 JUMP JUMPDEST DUP1 PUSH4 0x11B2174 EQ PUSH3 0x11D JUMPI DUP1 PUSH4 0xC246C82 EQ PUSH3 0x14C JUMPI DUP1 PUSH4 0x1FFBE7F9 EQ PUSH3 0x165 JUMPI DUP1 PUSH4 0x73B20547 EQ PUSH3 0x17C JUMPI JUMPDEST PUSH1 0x0 DUP1 REVERT JUMPDEST PUSH3 0x134 PUSH3 0x12E CALLDATASIZE PUSH1 0x4 PUSH3 0x13EF JUMP JUMPDEST PUSH3 0x266 JUMP JUMPDEST PUSH1 0x40 MLOAD PUSH3 0x143 SWAP2 SWAP1 PUSH3 0x1C0D JUMP JUMPDEST PUSH1 0x40 MLOAD DUP1 SWAP2 SUB SWAP1 RETURN JUMPDEST PUSH3 0x163 PUSH3 0x15D CALLDATASIZE PUSH1 0x4 PUSH3 0x1830 JUMP JUMPDEST PUSH3 0x281 JUMP JUMPDEST STOP JUMPDEST PUSH3 0x163 PUSH3 0x176 CALLDATASIZE PUSH1 0x4 PUSH3 0x140D JUMP JUMPDEST PUSH3 0x5CE JUMP JUMPDEST PUSH3 0x134 PUSH3 0x684 JUMP JUMPDEST PUSH3 0x134 PUSH3 0x197 CALLDATASIZE PUSH1 0x4 PUSH3 0x19D4 JUMP JUMPDEST PUSH3 0x68A JUMP JUMPDEST PUSH3 0x163 PUSH3 0x1AE CALLDATASIZE PUSH1 0x4 PUSH3 0x1678 JUMP JUMPDEST PUSH3 0x69C JUMP JUMPDEST PUSH3 0x134 PUSH3 0x968 JUMP JUMPDEST PUSH3 0x134 PUSH3 0x96E JUMP JUMPDEST PUSH3 0x163 PUSH3 0x1D9 CALLDATASIZE PUSH1 0x4 PUSH3 0x193B JUMP JUMPDEST PUSH3 0x974 JUMP JUMPDEST PUSH3 0x134 PUSH3 0x1F0 CALLDATASIZE PUSH1 0x4 PUSH3 0x19D4 JUMP JUMPDEST PUSH3 0x989 JUMP JUMPDEST PUSH3 0x163 PUSH3 0x207 CALLDATASIZE PUSH1 0x4 PUSH3 0x144E JUMP JUMPDEST PUSH3 0x99B JUMP JUMPDEST PUSH3 0x134 PUSH3 0x21E CALLDATASIZE PUSH1 0x4 PUSH3 0x13EF JUMP JUMPDEST PUSH3 0x9B5 JUMP JUMPDEST PUSH3 0x163 PUSH3 0x235 CALLDATASIZE PUSH1 0x4 PUSH3 0x153C JUMP JUMPDEST PUSH3 0x9C7 JUMP JUMPDEST PUSH3 0x134 PUSH3 0xB53 JUMP JUMPDEST PUSH3 0x134 PUSH3 0xB59 JUMP JUMPDEST PUSH3 0x163 PUSH3 0x260 CALLDATASIZE PUSH1 0x4 PUSH3 0x19ED JUMP JUMPDEST PUSH3 0xB5F JUMP JUMPDEST PUSH1 0x1 PUSH1 0x1 PUSH1 0xA0 SHL SUB AND PUSH1 0x0 SWAP1 DUP2 MSTORE PUSH1 0x2 PUSH1 0x20 MSTORE PUSH1 0x40 SWAP1 KECCAK256 SLOAD SWAP1 JUMP JUMPDEST PUSH1 0x2 PUSH1 0x0 SLOAD EQ ISZERO PUSH3 0x2B0 JUMPI PUSH1 0x40 MLOAD PUSH3 0x461BCD PUSH1 0xE5 SHL DUP2 MSTORE PUSH1 0x4 ADD PUSH3 0x2A7 SWAP1 PUSH3 0x22DF JUMP JUMPDEST PUSH1 0x40 MLOAD DUP1 SWAP2 SUB SWAP1 REVERT JUMPDEST PUSH1 0x2 PUSH1 0x0 SSTORE PUSH1 0xC0 DUP2 ADD MLOAD NUMBER LT PUSH3 0x2DB JUMPI PUSH1 0x40 MLOAD PUSH3 0x461BCD PUSH1 0xE5 SHL DUP2 MSTORE PUSH1 0x4 ADD PUSH3 0x2A7 SWAP1 PUSH3 0x1FEC JUMP JUMPDEST PUSH2 0x100 DUP2 ADD MLOAD PUSH1 0xE0 DUP3 ADD MLOAD PUSH1 0x0 SWAP1 DUP2 MSTORE PUSH1 0x3 PUSH1 0x20 MSTORE PUSH1 0x40 SWAP1 KECCAK256 SLOAD LT PUSH3 0x315 JUMPI PUSH1 0x40 MLOAD PUSH3 0x461BCD PUSH1 0xE5 SHL DUP2 MSTORE PUSH1 0x4 ADD PUSH3 0x2A7 SWAP1 PUSH3 0x1F58 JUMP JUMPDEST DUP6 MLOAD DUP8 MLOAD EQ DUP1 ISZERO PUSH3 0x328 JUMPI POP DUP4 MLOAD DUP8 MLOAD EQ JUMPDEST DUP1 ISZERO PUSH3 0x336 JUMPI POP DUP3 MLOAD DUP8 MLOAD EQ JUMPDEST DUP1 ISZERO PUSH3 0x344 JUMPI POP DUP2 MLOAD DUP8 MLOAD EQ JUMPDEST PUSH3 0x363 JUMPI PUSH1 0x40 MLOAD PUSH3 0x461BCD PUSH1 0xE5 SHL DUP2 MSTORE PUSH1 0x4 ADD PUSH3 0x2A7 SWAP1 PUSH3 0x22A8 JUMP JUMPDEST PUSH1 0x1 SLOAD PUSH3 0x376 DUP9 DUP9 DUP9 PUSH1 0x6 SLOAD PUSH3 0xC11 JUMP JUMPDEST EQ PUSH3 0x396 JUMPI PUSH1 0x40 MLOAD PUSH3 0x461BCD PUSH1 0xE5 SHL DUP2 MSTORE PUSH1 0x4 ADD PUSH3 0x2A7 SWAP1 PUSH3 0x1E6E JUMP JUMPDEST PUSH1 0x20 DUP2 ADD MLOAD MLOAD DUP2 MLOAD MLOAD EQ PUSH3 0x3BF JUMPI PUSH1 0x40 MLOAD PUSH3 0x461BCD PUSH1 0xE5 SHL DUP2 MSTORE PUSH1 0x4 ADD PUSH3 0x2A7 SWAP1 PUSH3 0x20F5 JUMP JUMPDEST DUP1 PUSH1 0x60 ADD MLOAD MLOAD DUP2 PUSH1 0x40 ADD MLOAD MLOAD EQ PUSH3 0x3EB JUMPI PUSH1 0x40 MLOAD PUSH3 0x461BCD PUSH1 0xE5 SHL DUP2 MSTORE PUSH1 0x4 ADD PUSH3 0x2A7 SWAP1 PUSH3 0x1E3E JUMP JUMPDEST PUSH1 0x0 PUSH1 0x6 SLOAD PUSH9 0x1B1BD9DA58D0D85B1B PUSH1 0xBA SHL DUP4 PUSH1 0x0 ADD MLOAD DUP5 PUSH1 0x20 ADD MLOAD DUP6 PUSH1 0x40 ADD MLOAD DUP7 PUSH1 0x60 ADD MLOAD DUP8 PUSH1 0x80 ADD MLOAD DUP9 PUSH1 0xA0 ADD MLOAD DUP10 PUSH1 0xC0 ADD MLOAD DUP11 PUSH1 0xE0 ADD MLOAD DUP12 PUSH2 0x100 ADD MLOAD PUSH1 0x40 MLOAD PUSH1 0x20 ADD PUSH3 0x447 SWAP12 SWAP11 SWAP10 SWAP9 SWAP8 SWAP7 SWAP6 SWAP5 SWAP4 SWAP3 SWAP2 SWAP1 PUSH3 0x1C5D JUMP JUMPDEST PUSH1 0x40 MLOAD PUSH1 0x20 DUP2 DUP4 SUB SUB DUP2 MSTORE SWAP1 PUSH1 0x40 MSTORE DUP1 MLOAD SWAP1 PUSH1 0x20 ADD KECCAK256 SWAP1 POP PUSH3 0x472 DUP9 DUP9 DUP8 DUP8 DUP8 DUP7 PUSH1 0x7 SLOAD PUSH3 0xC63 JUMP JUMPDEST PUSH2 0x100 DUP3 ADD MLOAD PUSH1 0xE0 DUP4 ADD MLOAD PUSH1 0x0 SWAP1 DUP2 MSTORE PUSH1 0x3 PUSH1 0x20 MSTORE PUSH1 0x40 DUP2 KECCAK256 SWAP2 SWAP1 SWAP2 SSTORE JUMPDEST DUP3 MLOAD MLOAD DUP2 LT ISZERO PUSH3 0x4F8 JUMPI PUSH3 0x4EF DUP4 PUSH1 0x80 ADD MLOAD DUP5 PUSH1 0x0 ADD MLOAD DUP4 DUP2 MLOAD DUP2 LT PUSH3 0x4B5 JUMPI INVALID JUMPDEST PUSH1 0x20 MUL PUSH1 0x20 ADD ADD MLOAD DUP6 PUSH1 0x20 ADD MLOAD DUP5 DUP2 MLOAD DUP2 LT PUSH3 0x4CE JUMPI INVALID JUMPDEST PUSH1 0x20 MUL PUSH1 0x20 ADD ADD MLOAD PUSH1 0x1 PUSH1 0x1 PUSH1 0xA0 SHL SUB AND PUSH3 0xD6D SWAP1 SWAP3 SWAP2 SWAP1 PUSH4 0xFFFFFFFF AND JUMP JUMPDEST PUSH1 0x1 ADD PUSH3 0x490 JUMP JUMPDEST POP PUSH1 0x60 PUSH3 0x50F DUP4 PUSH1 0x80 ADD MLOAD DUP5 PUSH1 0xA0 ADD MLOAD PUSH3 0xDCC JUMP JUMPDEST SWAP1 POP PUSH1 0x0 JUMPDEST DUP4 PUSH1 0x40 ADD MLOAD MLOAD DUP2 LT ISZERO PUSH3 0x55A JUMPI PUSH3 0x551 CALLER DUP6 PUSH1 0x40 ADD MLOAD DUP4 DUP2 MLOAD DUP2 LT PUSH3 0x538 JUMPI INVALID JUMPDEST PUSH1 0x20 MUL PUSH1 0x20 ADD ADD MLOAD DUP7 PUSH1 0x60 ADD MLOAD DUP5 DUP2 MLOAD DUP2 LT PUSH3 0x4CE JUMPI INVALID JUMPDEST PUSH1 0x1 ADD PUSH3 0x514 JUMP JUMPDEST POP PUSH1 0x5 SLOAD PUSH3 0x571 SWAP1 PUSH1 0x1 PUSH4 0xFFFFFFFF PUSH3 0xE19 AND JUMP JUMPDEST PUSH1 0x5 DUP2 SWAP1 SSTORE PUSH1 0xE0 DUP5 ADD MLOAD PUSH2 0x100 DUP6 ADD MLOAD PUSH1 0x40 MLOAD PUSH32 0x7C2BB24F8E1B3725CB613D7F11EF97D9745CC97A0E40F730621C052D684077A1 SWAP4 PUSH3 0x5B6 SWAP4 SWAP3 SWAP2 DUP7 SWAP2 SWAP1 PUSH3 0x1D83 JUMP JUMPDEST PUSH1 0x40 MLOAD DUP1 SWAP2 SUB SWAP1 LOG1 POP POP PUSH1 0x1 PUSH1 0x0 SSTORE POP POP POP POP POP POP POP JUMP JUMPDEST PUSH1 0x2 PUSH1 0x0 SLOAD EQ ISZERO PUSH3 0x5F4 JUMPI PUSH1 0x40 MLOAD PUSH3 0x461BCD PUSH1 0xE5 SHL DUP2 MSTORE PUSH1 0x4 ADD PUSH3 0x2A7 SWAP1 PUSH3 0x22DF JUMP JUMPDEST PUSH1 0x2 PUSH1 0x0 SSTORE PUSH3 0x616 PUSH1 0x1 PUSH1 0x1 PUSH1 0xA0 SHL SUB DUP5 AND CALLER ADDRESS DUP5 PUSH4 0xFFFFFFFF PUSH3 0xE41 AND JUMP JUMPDEST PUSH1 0x5 SLOAD PUSH3 0x62C SWAP1 PUSH1 0x1 PUSH4 0xFFFFFFFF PUSH3 0xE19 AND JUMP JUMPDEST PUSH1 0x5 DUP2 SWAP1 SSTORE PUSH1 0x40 MLOAD DUP4 SWAP2 CALLER SWAP2 PUSH1 0x1 PUSH1 0x1 PUSH1 0xA0 SHL SUB DUP8 AND SWAP2 PUSH32 0xD7767894D73C589DAECA9643F445F03D7BE61AAD2950C117E7CBFF4176FCA7E4 SWAP2 PUSH3 0x672 SWAP2 DUP8 SWAP2 PUSH3 0x234F JUMP JUMPDEST PUSH1 0x40 MLOAD DUP1 SWAP2 SUB SWAP1 LOG4 POP POP PUSH1 0x1 PUSH1 0x0 SSTORE POP JUMP JUMPDEST PUSH1 0x5 SLOAD DUP2 JUMP JUMPDEST PUSH1 0x3 PUSH1 0x20 MSTORE PUSH1 0x0 SWAP1 DUP2 MSTORE PUSH1 0x40 SWAP1 KECCAK256 SLOAD DUP2 JUMP JUMPDEST PUSH1 0x2 PUSH1 0x0 SLOAD EQ ISZERO PUSH3 0x6C2 JUMPI PUSH1 0x40 MLOAD PUSH3 0x461BCD PUSH1 0xE5 SHL DUP2 MSTORE PUSH1 0x4 ADD PUSH3 0x2A7 SWAP1 PUSH3 0x22DF JUMP JUMPDEST PUSH1 0x2 PUSH1 0x0 DUP2 DUP2 SSTORE PUSH1 0x1 PUSH1 0x1 PUSH1 0xA0 SHL SUB DUP5 AND DUP2 MSTORE PUSH1 0x20 SWAP2 SWAP1 SWAP2 MSTORE PUSH1 0x40 SWAP1 KECCAK256 SLOAD DUP4 GT PUSH3 0x701 JUMPI PUSH1 0x40 MLOAD PUSH3 0x461BCD PUSH1 0xE5 SHL DUP2 MSTORE PUSH1 0x4 ADD PUSH3 0x2A7 SWAP1 PUSH3 0x1ECB JUMP JUMPDEST DUP1 NUMBER LT PUSH3 0x723 JUMPI PUSH1 0x40 MLOAD PUSH3 0x461BCD PUSH1 0xE5 SHL DUP2 MSTORE PUSH1 0x4 ADD PUSH3 0x2A7 SWAP1 PUSH3 0x2098 JUMP JUMPDEST DUP11 MLOAD DUP13 MLOAD EQ DUP1 ISZERO PUSH3 0x736 JUMPI POP DUP9 MLOAD DUP13 MLOAD EQ JUMPDEST DUP1 ISZERO PUSH3 0x744 JUMPI POP DUP8 MLOAD DUP13 MLOAD EQ JUMPDEST DUP1 ISZERO PUSH3 0x752 JUMPI POP DUP7 MLOAD DUP13 MLOAD EQ JUMPDEST PUSH3 0x771 JUMPI PUSH1 0x40 MLOAD PUSH3 0x461BCD PUSH1 0xE5 SHL DUP2 MSTORE PUSH1 0x4 ADD PUSH3 0x2A7 SWAP1 PUSH3 0x22A8 JUMP JUMPDEST PUSH1 0x1 SLOAD PUSH3 0x784 DUP14 DUP14 DUP14 PUSH1 0x6 SLOAD PUSH3 0xC11 JUMP JUMPDEST EQ PUSH3 0x7A4 JUMPI PUSH1 0x40 MLOAD PUSH3 0x461BCD PUSH1 0xE5 SHL DUP2 MSTORE PUSH1 0x4 ADD PUSH3 0x2A7 SWAP1 PUSH3 0x1E6E JUMP JUMPDEST DUP5 MLOAD DUP7 MLOAD EQ DUP1 ISZERO PUSH3 0x7B7 JUMPI POP DUP4 MLOAD DUP7 MLOAD EQ JUMPDEST PUSH3 0x7D6 JUMPI PUSH1 0x40 MLOAD PUSH3 0x461BCD PUSH1 0xE5 SHL DUP2 MSTORE PUSH1 0x4 ADD PUSH3 0x2A7 SWAP1 PUSH3 0x1F21 JUMP JUMPDEST PUSH3 0x834 DUP13 DUP13 DUP12 DUP12 DUP12 PUSH1 0x6 SLOAD PUSH16 0xE8E4C2DCE6C2C6E8D2DEDC84C2E8C6D PUSH1 0x83 SHL DUP14 DUP14 DUP14 DUP14 DUP14 DUP14 PUSH1 0x40 MLOAD PUSH1 0x20 ADD PUSH3 0x815 SWAP9 SWAP8 SWAP7 SWAP6 SWAP5 SWAP4 SWAP3 SWAP2 SWAP1 PUSH3 0x1D0C JUMP JUMPDEST PUSH1 0x40 MLOAD PUSH1 0x20 DUP2 DUP4 SUB SUB DUP2 MSTORE SWAP1 PUSH1 0x40 MSTORE DUP1 MLOAD SWAP1 PUSH1 0x20 ADD KECCAK256 PUSH1 0x7 SLOAD PUSH3 0xC63 JUMP JUMPDEST PUSH1 0x1 PUSH1 0x1 PUSH1 0xA0 SHL SUB DUP3 AND PUSH1 0x0 SWAP1 DUP2 MSTORE PUSH1 0x2 PUSH1 0x20 MSTORE PUSH1 0x40 DUP2 KECCAK256 DUP5 SWAP1 SSTORE DUP1 JUMPDEST DUP8 MLOAD DUP2 LT ISZERO PUSH3 0x8D7 JUMPI PUSH3 0x8A3 DUP8 DUP3 DUP2 MLOAD DUP2 LT PUSH3 0x86C JUMPI INVALID JUMPDEST PUSH1 0x20 MUL PUSH1 0x20 ADD ADD MLOAD DUP10 DUP4 DUP2 MLOAD DUP2 LT PUSH3 0x881 JUMPI INVALID JUMPDEST PUSH1 0x20 MUL PUSH1 0x20 ADD ADD MLOAD DUP7 PUSH1 0x1 PUSH1 0x1 PUSH1 0xA0 SHL SUB AND PUSH3 0xD6D SWAP1 SWAP3 SWAP2 SWAP1 PUSH4 0xFFFFFFFF AND JUMP JUMPDEST PUSH3 0x8CC DUP7 DUP3 DUP2 MLOAD DUP2 LT PUSH3 0x8B4 JUMPI INVALID JUMPDEST PUSH1 0x20 MUL PUSH1 0x20 ADD ADD MLOAD DUP4 PUSH3 0xE19 SWAP1 SWAP2 SWAP1 PUSH4 0xFFFFFFFF AND JUMP JUMPDEST SWAP2 POP PUSH1 0x1 ADD PUSH3 0x851 JUMP JUMPDEST POP PUSH3 0x8F4 PUSH1 0x1 PUSH1 0x1 PUSH1 0xA0 SHL SUB DUP5 AND CALLER DUP4 PUSH4 0xFFFFFFFF PUSH3 0xD6D AND JUMP JUMPDEST POP PUSH1 0x5 SLOAD PUSH3 0x90B SWAP1 PUSH1 0x1 PUSH4 0xFFFFFFFF PUSH3 0xE19 AND JUMP JUMPDEST PUSH1 0x5 DUP2 SWAP1 SSTORE PUSH1 0x40 MLOAD PUSH1 0x1 PUSH1 0x1 PUSH1 0xA0 SHL SUB DUP5 AND SWAP2 DUP6 SWAP2 PUSH32 0x2C7E81975F8EDB86E2A0C038B7B86A49C744236ABF0F6177FF5AFC6986AB708 SWAP2 PUSH3 0x94D SWAP2 PUSH3 0x1C0D JUMP JUMPDEST PUSH1 0x40 MLOAD DUP1 SWAP2 SUB SWAP1 LOG3 POP POP PUSH1 0x1 PUSH1 0x0 SSTORE POP POP POP POP POP POP POP POP POP POP JUMP JUMPDEST PUSH1 0x4 SLOAD DUP2 JUMP JUMPDEST PUSH1 0x6 SLOAD DUP2 JUMP JUMPDEST PUSH3 0x982 DUP5 DUP5 DUP5 DUP5 PUSH3 0xC11 JUMP JUMPDEST POP POP POP POP POP JUMP JUMPDEST PUSH1 0x0 SWAP1 DUP2 MSTORE PUSH1 0x3 PUSH1 0x20 MSTORE PUSH1 0x40 SWAP1 KECCAK256 SLOAD SWAP1 JUMP JUMPDEST PUSH3 0x9AC DUP8 DUP8 DUP8 DUP8 DUP8 DUP8 DUP8 PUSH3 0xC63 JUMP JUMPDEST POP POP POP POP POP POP POP JUMP JUMPDEST PUSH1 0x2 PUSH1 0x20 MSTORE PUSH1 0x0 SWAP1 DUP2 MSTORE PUSH1 0x40 SWAP1 KECCAK256 SLOAD DUP2 JUMP JUMPDEST PUSH1 0x2 PUSH1 0x0 SLOAD EQ ISZERO PUSH3 0x9ED JUMPI PUSH1 0x40 MLOAD PUSH3 0x461BCD PUSH1 0xE5 SHL DUP2 MSTORE PUSH1 0x4 ADD PUSH3 0x2A7 SWAP1 PUSH3 0x22DF JUMP JUMPDEST PUSH1 0x2 PUSH1 0x0 SSTORE DUP4 DUP8 GT PUSH3 0xA14 JUMPI PUSH1 0x40 MLOAD PUSH3 0x461BCD PUSH1 0xE5 SHL DUP2 MSTORE PUSH1 0x4 ADD PUSH3 0x2A7 SWAP1 PUSH3 0x21CA JUMP JUMPDEST DUP8 MLOAD DUP10 MLOAD EQ PUSH3 0xA38 JUMPI PUSH1 0x40 MLOAD PUSH3 0x461BCD PUSH1 0xE5 SHL DUP2 MSTORE PUSH1 0x4 ADD PUSH3 0x2A7 SWAP1 PUSH3 0x2136 JUMP JUMPDEST DUP5 MLOAD DUP7 MLOAD EQ DUP1 ISZERO PUSH3 0xA4B JUMPI POP DUP3 MLOAD DUP7 MLOAD EQ JUMPDEST DUP1 ISZERO PUSH3 0xA59 JUMPI POP DUP2 MLOAD DUP7 MLOAD EQ JUMPDEST DUP1 ISZERO PUSH3 0xA67 JUMPI POP DUP1 MLOAD DUP7 MLOAD EQ JUMPDEST PUSH3 0xA86 JUMPI PUSH1 0x40 MLOAD PUSH3 0x461BCD PUSH1 0xE5 SHL DUP2 MSTORE PUSH1 0x4 ADD PUSH3 0x2A7 SWAP1 PUSH3 0x22A8 JUMP JUMPDEST PUSH1 0x1 SLOAD PUSH3 0xA99 DUP8 DUP8 DUP8 PUSH1 0x6 SLOAD PUSH3 0xC11 JUMP JUMPDEST EQ PUSH3 0xAB9 JUMPI PUSH1 0x40 MLOAD PUSH3 0x461BCD PUSH1 0xE5 SHL DUP2 MSTORE PUSH1 0x4 ADD PUSH3 0x2A7 SWAP1 PUSH3 0x1E6E JUMP JUMPDEST PUSH1 0x0 PUSH3 0xACB DUP11 DUP11 DUP11 PUSH1 0x6 SLOAD PUSH3 0xC11 JUMP JUMPDEST SWAP1 POP PUSH3 0xAE0 DUP8 DUP8 DUP7 DUP7 DUP7 DUP7 PUSH1 0x7 SLOAD PUSH3 0xC63 JUMP JUMPDEST PUSH1 0x1 DUP2 DUP2 SSTORE PUSH1 0x4 DUP10 SWAP1 SSTORE PUSH1 0x5 SLOAD PUSH3 0xAFE SWAP2 PUSH4 0xFFFFFFFF PUSH3 0xE19 AND JUMP JUMPDEST PUSH1 0x5 DUP2 SWAP1 SSTORE PUSH1 0x40 MLOAD DUP10 SWAP2 PUSH32 0xB119F1F36224601586B5037DA909ECF37E83864DDDEA5D32AD4E32AC1D97E62B SWAP2 PUSH3 0xB3A SWAP2 SWAP1 DUP15 SWAP1 DUP15 SWAP1 PUSH3 0x2316 JUMP JUMPDEST PUSH1 0x40 MLOAD DUP1 SWAP2 SUB SWAP1 LOG2 POP POP PUSH1 0x1 PUSH1 0x0 SSTORE POP POP POP POP POP POP POP POP JUMP JUMPDEST PUSH1 0x7 SLOAD DUP2 JUMP JUMPDEST PUSH1 0x1 SLOAD DUP2 JUMP JUMPDEST PUSH1 0x0 ADDRESS DUP5 DUP5 DUP5 PUSH1 0x40 MLOAD PUSH3 0xB73 SWAP1 PUSH3 0x10D0 JUMP JUMPDEST PUSH3 0xB82 SWAP5 SWAP4 SWAP3 SWAP2 SWAP1 PUSH3 0x1BA5 JUMP JUMPDEST PUSH1 0x40 MLOAD DUP1 SWAP2 SUB SWAP1 PUSH1 0x0 CREATE DUP1 ISZERO DUP1 ISZERO PUSH3 0xB9F JUMPI RETURNDATASIZE PUSH1 0x0 DUP1 RETURNDATACOPY RETURNDATASIZE PUSH1 0x0 REVERT JUMPDEST POP PUSH1 0x5 SLOAD SWAP1 SWAP2 POP PUSH3 0xBB9 SWAP1 PUSH1 0x1 PUSH4 0xFFFFFFFF PUSH3 0xE19 AND JUMP JUMPDEST PUSH1 0x5 DUP2 SWAP1 SSTORE PUSH1 0x40 MLOAD PUSH1 0x1 PUSH1 0x1 PUSH1 0xA0 SHL SUB DUP4 AND SWAP2 PUSH32 0x82FE3A4FA49C6382D0C085746698DDBBAFE6C2BF61285B19410644B5B26287C7 SWAP2 PUSH3 0xC02 SWAP2 DUP10 SWAP2 DUP10 SWAP2 DUP10 SWAP2 DUP10 SWAP2 SWAP1 PUSH3 0x1DE8 JUMP JUMPDEST PUSH1 0x40 MLOAD DUP1 SWAP2 SUB SWAP1 LOG2 POP POP POP POP POP JUMP JUMPDEST PUSH1 0x40 MLOAD PUSH1 0x0 SWAP1 PUSH10 0x18DA1958DADC1BDA5B9D PUSH1 0xB2 SHL SWAP1 DUP3 SWAP1 PUSH3 0xC40 SWAP1 DUP6 SWAP1 DUP5 SWAP1 DUP9 SWAP1 DUP12 SWAP1 DUP12 SWAP1 PUSH1 0x20 ADD PUSH3 0x1C16 JUMP JUMPDEST PUSH1 0x40 DUP1 MLOAD DUP1 DUP4 SUB PUSH1 0x1F NOT ADD DUP2 MSTORE SWAP2 SWAP1 MSTORE DUP1 MLOAD PUSH1 0x20 SWAP1 SWAP2 ADD KECCAK256 SWAP8 SWAP7 POP POP POP POP POP POP POP JUMP JUMPDEST PUSH1 0x0 DUP1 JUMPDEST DUP9 MLOAD DUP2 LT ISZERO PUSH3 0xD40 JUMPI DUP7 DUP2 DUP2 MLOAD DUP2 LT PUSH3 0xC7E JUMPI INVALID JUMPDEST PUSH1 0x20 MUL PUSH1 0x20 ADD ADD MLOAD PUSH1 0xFF AND PUSH1 0x0 EQ PUSH3 0xD37 JUMPI PUSH3 0xCF0 DUP10 DUP3 DUP2 MLOAD DUP2 LT PUSH3 0xCA2 JUMPI INVALID JUMPDEST PUSH1 0x20 MUL PUSH1 0x20 ADD ADD MLOAD DUP6 DUP10 DUP5 DUP2 MLOAD DUP2 LT PUSH3 0xCB8 JUMPI INVALID JUMPDEST PUSH1 0x20 MUL PUSH1 0x20 ADD ADD MLOAD DUP10 DUP6 DUP2 MLOAD DUP2 LT PUSH3 0xCCD JUMPI INVALID JUMPDEST PUSH1 0x20 MUL PUSH1 0x20 ADD ADD MLOAD DUP10 DUP7 DUP2 MLOAD DUP2 LT PUSH3 0xCE2 JUMPI INVALID JUMPDEST PUSH1 0x20 MUL PUSH1 0x20 ADD ADD MLOAD PUSH3 0xE6B JUMP JUMPDEST PUSH3 0xD0F JUMPI PUSH1 0x40 MLOAD PUSH3 0x461BCD PUSH1 0xE5 SHL DUP2 MSTORE PUSH1 0x4 ADD PUSH3 0x2A7 SWAP1 PUSH3 0x200F JUMP JUMPDEST DUP8 DUP2 DUP2 MLOAD DUP2 LT PUSH3 0xD1C JUMPI INVALID JUMPDEST PUSH1 0x20 MUL PUSH1 0x20 ADD ADD MLOAD DUP3 ADD SWAP2 POP DUP3 DUP3 GT ISZERO PUSH3 0xD37 JUMPI PUSH3 0xD40 JUMP JUMPDEST PUSH1 0x1 ADD PUSH3 0xC67 JUMP JUMPDEST POP DUP2 DUP2 GT PUSH3 0xD63 JUMPI PUSH1 0x40 MLOAD PUSH3 0x461BCD PUSH1 0xE5 SHL DUP2 MSTORE PUSH1 0x4 ADD PUSH3 0x2A7 SWAP1 PUSH3 0x216D JUMP JUMPDEST POP POP POP POP POP POP POP POP JUMP JUMPDEST PUSH3 0xDC7 DUP4 PUSH4 0xA9059CBB PUSH1 0xE0 SHL DUP5 DUP5 PUSH1 0x40 MLOAD PUSH1 0x24 ADD PUSH3 0xD8F SWAP3 SWAP2 SWAP1 PUSH3 0x1BF4 JUMP JUMPDEST PUSH1 0x40 DUP1 MLOAD PUSH1 0x1F NOT DUP2 DUP5 SUB ADD DUP2 MSTORE SWAP2 SWAP1 MSTORE PUSH1 0x20 DUP2 ADD DUP1 MLOAD PUSH1 0x1 PUSH1 0x1 PUSH1 0xE0 SHL SUB AND PUSH1 0x1 PUSH1 0x1 PUSH1 0xE0 SHL SUB NOT SWAP1 SWAP4 AND SWAP3 SWAP1 SWAP3 OR SWAP1 SWAP2 MSTORE PUSH3 0xF0B JUMP JUMPDEST POP POP POP JUMP JUMPDEST PUSH1 0x60 PUSH3 0xE10 DUP4 DUP4 PUSH1 0x40 MLOAD DUP1 PUSH1 0x40 ADD PUSH1 0x40 MSTORE DUP1 PUSH1 0x1E DUP2 MSTORE PUSH1 0x20 ADD PUSH32 0x416464726573733A206C6F772D6C6576656C2063616C6C206661696C65640000 DUP2 MSTORE POP PUSH3 0xFA2 JUMP JUMPDEST SWAP1 POP JUMPDEST SWAP3 SWAP2 POP POP JUMP JUMPDEST PUSH1 0x0 DUP3 DUP3 ADD DUP4 DUP2 LT ISZERO PUSH3 0xE10 JUMPI PUSH1 0x40 MLOAD PUSH3 0x461BCD PUSH1 0xE5 SHL DUP2 MSTORE PUSH1 0x4 ADD PUSH3 0x2A7 SWAP1 PUSH3 0x1FB5 JUMP JUMPDEST PUSH3 0xE65 DUP5 PUSH4 0x23B872DD PUSH1 0xE0 SHL DUP6 DUP6 DUP6 PUSH1 0x40 MLOAD PUSH1 0x24 ADD PUSH3 0xD8F SWAP4 SWAP3 SWAP2 SWAP1 PUSH3 0x1B81 JUMP JUMPDEST POP POP POP POP JUMP JUMPDEST PUSH1 0x0 DUP1 DUP6 PUSH1 0x40 MLOAD PUSH1 0x20 ADD PUSH3 0xE81 SWAP2 SWAP1 PUSH3 0x1B50 JUMP JUMPDEST PUSH1 0x40 MLOAD PUSH1 0x20 DUP2 DUP4 SUB SUB DUP2 MSTORE SWAP1 PUSH1 0x40 MSTORE DUP1 MLOAD SWAP1 PUSH1 0x20 ADD KECCAK256 SWAP1 POP PUSH1 0x1 DUP2 DUP7 DUP7 DUP7 PUSH1 0x40 MLOAD PUSH1 0x0 DUP2 MSTORE PUSH1 0x20 ADD PUSH1 0x40 MSTORE PUSH1 0x40 MLOAD PUSH3 0xEBE SWAP5 SWAP4 SWAP3 SWAP2 SWAP1 PUSH3 0x1DB5 JUMP JUMPDEST PUSH1 0x20 PUSH1 0x40 MLOAD PUSH1 0x20 DUP2 SUB SWAP1 DUP1 DUP5 SUB SWAP1 DUP6 GAS STATICCALL ISZERO DUP1 ISZERO PUSH3 0xEE1 JUMPI RETURNDATASIZE PUSH1 0x0 DUP1 RETURNDATACOPY RETURNDATASIZE PUSH1 0x0 REVERT JUMPDEST POP POP POP PUSH1 0x20 PUSH1 0x40 MLOAD SUB MLOAD PUSH1 0x1 PUSH1 0x1 PUSH1 0xA0 SHL SUB AND DUP8 PUSH1 0x1 PUSH1 0x1 PUSH1 0xA0 SHL SUB AND EQ SWAP2 POP POP SWAP6 SWAP5 POP POP POP POP POP JUMP JUMPDEST PUSH1 0x60 PUSH3 0xF62 DUP3 PUSH1 0x40 MLOAD DUP1 PUSH1 0x40 ADD PUSH1 0x40 MSTORE DUP1 PUSH1 0x20 DUP2 MSTORE PUSH1 0x20 ADD PUSH32 0x5361666545524332303A206C6F772D6C6576656C2063616C6C206661696C6564 DUP2 MSTORE POP DUP6 PUSH1 0x1 PUSH1 0x1 PUSH1 0xA0 SHL SUB AND PUSH3 0xFA2 SWAP1 SWAP3 SWAP2 SWAP1 PUSH4 0xFFFFFFFF AND JUMP JUMPDEST DUP1 MLOAD SWAP1 SWAP2 POP ISZERO PUSH3 0xDC7 JUMPI DUP1 DUP1 PUSH1 0x20 ADD SWAP1 MLOAD DUP2 ADD SWAP1 PUSH3 0xF83 SWAP2 SWAP1 PUSH3 0x19B2 JUMP JUMPDEST PUSH3 0xDC7 JUMPI PUSH1 0x40 MLOAD PUSH3 0x461BCD PUSH1 0xE5 SHL DUP2 MSTORE PUSH1 0x4 ADD PUSH3 0x2A7 SWAP1 PUSH3 0x225E JUMP JUMPDEST PUSH1 0x60 PUSH3 0xFB3 DUP5 DUP5 PUSH1 0x0 DUP6 PUSH3 0xFBD JUMP JUMPDEST SWAP1 POP JUMPDEST SWAP4 SWAP3 POP POP POP JUMP JUMPDEST PUSH1 0x60 DUP3 SELFBALANCE LT ISZERO PUSH3 0xFE2 JUMPI PUSH1 0x40 MLOAD PUSH3 0x461BCD PUSH1 0xE5 SHL DUP2 MSTORE PUSH1 0x4 ADD PUSH3 0x2A7 SWAP1 PUSH3 0x2052 JUMP JUMPDEST PUSH3 0xFED DUP6 PUSH3 0x108C JUMP JUMPDEST PUSH3 0x100C JUMPI PUSH1 0x40 MLOAD PUSH3 0x461BCD PUSH1 0xE5 SHL DUP2 MSTORE PUSH1 0x4 ADD PUSH3 0x2A7 SWAP1 PUSH3 0x2227 JUMP JUMPDEST PUSH1 0x0 PUSH1 0x60 DUP7 PUSH1 0x1 PUSH1 0x1 PUSH1 0xA0 SHL SUB AND DUP6 DUP8 PUSH1 0x40 MLOAD PUSH3 0x102B SWAP2 SWAP1 PUSH3 0x1B32 JUMP JUMPDEST PUSH1 0x0 PUSH1 0x40 MLOAD DUP1 DUP4 SUB DUP2 DUP6 DUP8 GAS CALL SWAP3 POP POP POP RETURNDATASIZE DUP1 PUSH1 0x0 DUP2 EQ PUSH3 0x106A JUMPI PUSH1 0x40 MLOAD SWAP2 POP PUSH1 0x1F NOT PUSH1 0x3F RETURNDATASIZE ADD AND DUP3 ADD PUSH1 0x40 MSTORE RETURNDATASIZE DUP3 MSTORE RETURNDATASIZE PUSH1 0x0 PUSH1 0x20 DUP5 ADD RETURNDATACOPY PUSH3 0x106F JUMP JUMPDEST PUSH1 0x60 SWAP2 POP JUMPDEST POP SWAP2 POP SWAP2 POP PUSH3 0x1081 DUP3 DUP3 DUP7 PUSH3 0x1092 JUMP JUMPDEST SWAP8 SWAP7 POP POP POP POP POP POP POP JUMP JUMPDEST EXTCODESIZE ISZERO ISZERO SWAP1 JUMP JUMPDEST PUSH1 0x60 DUP4 ISZERO PUSH3 0x10A3 JUMPI POP DUP2 PUSH3 0xFB6 JUMP JUMPDEST DUP3 MLOAD ISZERO PUSH3 0x10B4 JUMPI DUP3 MLOAD DUP1 DUP5 PUSH1 0x20 ADD REVERT JUMPDEST DUP2 PUSH1 0x40 MLOAD PUSH3 0x461BCD PUSH1 0xE5 SHL DUP2 MSTORE PUSH1 0x4 ADD PUSH3 0x2A7 SWAP2 SWAP1 PUSH3 0x1DD3 JUMP JUMPDEST PUSH2 0xFBF DUP1 PUSH3 0x23D4 DUP4 CODECOPY ADD SWAP1 JUMP JUMPDEST DUP1 CALLDATALOAD PUSH1 0x1 PUSH1 0x1 PUSH1 0xA0 SHL SUB DUP2 AND DUP2 EQ PUSH3 0xE13 JUMPI PUSH1 0x0 DUP1 REVERT JUMPDEST PUSH1 0x0 DUP3 PUSH1 0x1F DUP4 ADD SLT PUSH3 0x1107 JUMPI DUP1 DUP2 REVERT JUMPDEST DUP2 CALLDATALOAD PUSH3 0x111E PUSH3 0x1118 DUP3 PUSH3 0x2384 JUMP JUMPDEST PUSH3 0x235D JUMP JUMPDEST DUP2 DUP2 MSTORE SWAP2 POP PUSH1 0x20 DUP1 DUP4 ADD SWAP1 DUP5 DUP2 ADD DUP2 DUP5 MUL DUP7 ADD DUP3 ADD DUP8 LT ISZERO PUSH3 0x1140 JUMPI PUSH1 0x0 DUP1 REVERT JUMPDEST PUSH1 0x0 JUMPDEST DUP5 DUP2 LT ISZERO PUSH3 0x116B JUMPI PUSH3 0x1158 DUP9 DUP4 PUSH3 0x10DE JUMP JUMPDEST DUP5 MSTORE SWAP3 DUP3 ADD SWAP3 SWAP1 DUP3 ADD SWAP1 PUSH1 0x1 ADD PUSH3 0x1143 JUMP JUMPDEST POP POP POP POP POP SWAP3 SWAP2 POP POP JUMP JUMPDEST PUSH1 0x0 DUP3 PUSH1 0x1F DUP4 ADD SLT PUSH3 0x1187 JUMPI DUP1 DUP2 REVERT JUMPDEST DUP2 CALLDATALOAD PUSH3 0x1198 PUSH3 0x1118 DUP3 PUSH3 0x2384 JUMP JUMPDEST DUP2 DUP2 MSTORE SWAP2 POP PUSH1 0x20 DUP1 DUP4 ADD SWAP1 DUP5 DUP2 ADD DUP2 DUP5 MUL DUP7 ADD DUP3 ADD DUP8 LT ISZERO PUSH3 0x11BA JUMPI PUSH1 0x0 DUP1 REVERT JUMPDEST PUSH1 0x0 JUMPDEST DUP5 DUP2 LT ISZERO PUSH3 0x116B JUMPI DUP2 CALLDATALOAD DUP5 MSTORE SWAP3 DUP3 ADD SWAP3 SWAP1 DUP3 ADD SWAP1 PUSH1 0x1 ADD PUSH3 0x11BD JUMP JUMPDEST PUSH1 0x0 DUP3 PUSH1 0x1F DUP4 ADD SLT PUSH3 0x11EC JUMPI DUP1 DUP2 REVERT JUMPDEST DUP2 CALLDATALOAD PUSH3 0x11FD PUSH3 0x1118 DUP3 PUSH3 0x2384 JUMP JUMPDEST DUP2 DUP2 MSTORE SWAP2 POP PUSH1 0x20 DUP1 DUP4 ADD SWAP1 DUP5 DUP2 ADD DUP2 DUP5 MUL DUP7 ADD DUP3 ADD DUP8 LT ISZERO PUSH3 0x121F JUMPI PUSH1 0x0 DUP1 REVERT JUMPDEST PUSH1 0x0 JUMPDEST DUP5 DUP2 LT ISZERO PUSH3 0x116B JUMPI PUSH3 0x1237 DUP9 DUP4 PUSH3 0x13DD JUMP JUMPDEST DUP5 MSTORE SWAP3 DUP3 ADD SWAP3 SWAP1 DUP3 ADD SWAP1 PUSH1 0x1 ADD PUSH3 0x1222 JUMP JUMPDEST PUSH1 0x0 DUP3 PUSH1 0x1F DUP4 ADD SLT PUSH3 0x125B JUMPI DUP1 DUP2 REVERT JUMPDEST DUP2 CALLDATALOAD PUSH1 0x1 PUSH1 0x1 PUSH1 0x40 SHL SUB DUP2 GT ISZERO PUSH3 0x1271 JUMPI DUP2 DUP3 REVERT JUMPDEST PUSH3 0x1286 PUSH1 0x1F DUP3 ADD PUSH1 0x1F NOT AND PUSH1 0x20 ADD PUSH3 0x235D JUMP JUMPDEST SWAP2 POP DUP1 DUP3 MSTORE DUP4 PUSH1 0x20 DUP3 DUP6 ADD ADD GT ISZERO PUSH3 0x129E JUMPI PUSH1 0x0 DUP1 REVERT JUMPDEST DUP1 PUSH1 0x20 DUP5 ADD PUSH1 0x20 DUP5 ADD CALLDATACOPY PUSH1 0x0 SWAP1 DUP3 ADD PUSH1 0x20 ADD MSTORE SWAP3 SWAP2 POP POP JUMP JUMPDEST PUSH1 0x0 PUSH2 0x120 DUP1 DUP4 DUP6 SUB SLT ISZERO PUSH3 0x12CB JUMPI DUP2 DUP3 REVERT JUMPDEST PUSH3 0x12D6 DUP2 PUSH3 0x235D JUMP JUMPDEST SWAP2 POP POP DUP2 CALLDATALOAD PUSH1 0x1 PUSH1 0x1 PUSH1 0x40 SHL SUB DUP1 DUP3 GT ISZERO PUSH3 0x12F1 JUMPI PUSH1 0x0 DUP1 REVERT JUMPDEST PUSH3 0x12FF DUP6 DUP4 DUP7 ADD PUSH3 0x1176 JUMP JUMPDEST DUP4 MSTORE PUSH1 0x20 DUP5 ADD CALLDATALOAD SWAP2 POP DUP1 DUP3 GT ISZERO PUSH3 0x1316 JUMPI PUSH1 0x0 DUP1 REVERT JUMPDEST PUSH3 0x1324 DUP6 DUP4 DUP7 ADD PUSH3 0x10F6 JUMP JUMPDEST PUSH1 0x20 DUP5 ADD MSTORE PUSH1 0x40 DUP5 ADD CALLDATALOAD SWAP2 POP DUP1 DUP3 GT ISZERO PUSH3 0x133E JUMPI PUSH1 0x0 DUP1 REVERT JUMPDEST PUSH3 0x134C DUP6 DUP4 DUP7 ADD PUSH3 0x1176 JUMP JUMPDEST PUSH1 0x40 DUP5 ADD MSTORE PUSH1 0x60 DUP5 ADD CALLDATALOAD SWAP2 POP DUP1 DUP3 GT ISZERO PUSH3 0x1366 JUMPI PUSH1 0x0 DUP1 REVERT JUMPDEST PUSH3 0x1374 DUP6 DUP4 DUP7 ADD PUSH3 0x10F6 JUMP JUMPDEST PUSH1 0x60 DUP5 ADD MSTORE PUSH3 0x1388 DUP6 PUSH1 0x80 DUP7 ADD PUSH3 0x10DE JUMP JUMPDEST PUSH1 0x80 DUP5 ADD MSTORE PUSH1 0xA0 DUP5 ADD CALLDATALOAD SWAP2 POP DUP1 DUP3 GT ISZERO PUSH3 0x13A2 JUMPI PUSH1 0x0 DUP1 REVERT JUMPDEST POP PUSH3 0x13B1 DUP5 DUP3 DUP6 ADD PUSH3 0x124A JUMP JUMPDEST PUSH1 0xA0 DUP4 ADD MSTORE POP PUSH1 0xC0 DUP3 ADD CALLDATALOAD PUSH1 0xC0 DUP3 ADD MSTORE PUSH1 0xE0 DUP3 ADD CALLDATALOAD PUSH1 0xE0 DUP3 ADD MSTORE PUSH2 0x100 DUP1 DUP4 ADD CALLDATALOAD DUP2 DUP4 ADD MSTORE POP SWAP3 SWAP2 POP POP JUMP JUMPDEST DUP1 CALLDATALOAD PUSH1 0xFF DUP2 AND DUP2 EQ PUSH3 0xE13 JUMPI PUSH1 0x0 DUP1 REVERT JUMPDEST PUSH1 0x0 PUSH1 0x20 DUP3 DUP5 SUB SLT ISZERO PUSH3 0x1401 JUMPI DUP1 DUP2 REVERT JUMPDEST PUSH3 0xE10 DUP4 DUP4 PUSH3 0x10DE JUMP JUMPDEST PUSH1 0x0 DUP1 PUSH1 0x0 PUSH1 0x60 DUP5 DUP7 SUB SLT ISZERO PUSH3 0x1422 JUMPI DUP2 DUP3 REVERT JUMPDEST DUP4 CALLDATALOAD PUSH1 0x1 PUSH1 0x1 PUSH1 0xA0 SHL SUB DUP2 AND DUP2 EQ PUSH3 0x1439 JUMPI DUP3 DUP4 REVERT JUMPDEST SWAP6 PUSH1 0x20 DUP6 ADD CALLDATALOAD SWAP6 POP PUSH1 0x40 SWAP1 SWAP5 ADD CALLDATALOAD SWAP4 SWAP3 POP POP POP JUMP JUMPDEST PUSH1 0x0 DUP1 PUSH1 0x0 DUP1 PUSH1 0x0 DUP1 PUSH1 0x0 PUSH1 0xE0 DUP9 DUP11 SUB SLT ISZERO PUSH3 0x1469 JUMPI DUP3 DUP4 REVERT JUMPDEST DUP8 CALLDATALOAD PUSH1 0x1 PUSH1 0x1 PUSH1 0x40 SHL SUB DUP1 DUP3 GT ISZERO PUSH3 0x1480 JUMPI DUP5 DUP6 REVERT JUMPDEST PUSH3 0x148E DUP12 DUP4 DUP13 ADD PUSH3 0x10F6 JUMP JUMPDEST SWAP9 POP PUSH1 0x20 DUP11 ADD CALLDATALOAD SWAP2 POP DUP1 DUP3 GT ISZERO PUSH3 0x14A4 JUMPI DUP5 DUP6 REVERT JUMPDEST PUSH3 0x14B2 DUP12 DUP4 DUP13 ADD PUSH3 0x1176 JUMP JUMPDEST SWAP8 POP PUSH1 0x40 DUP11 ADD CALLDATALOAD SWAP2 POP DUP1 DUP3 GT ISZERO PUSH3 0x14C8 JUMPI DUP5 DUP6 REVERT JUMPDEST PUSH3 0x14D6 DUP12 DUP4 DUP13 ADD PUSH3 0x11DB JUMP JUMPDEST SWAP7 POP PUSH1 0x60 DUP11 ADD CALLDATALOAD SWAP2 POP DUP1 DUP3 GT ISZERO PUSH3 0x14EC JUMPI DUP5 DUP6 REVERT JUMPDEST PUSH3 0x14FA DUP12 DUP4 DUP13 ADD PUSH3 0x1176 JUMP JUMPDEST SWAP6 POP PUSH1 0x80 DUP11 ADD CALLDATALOAD SWAP2 POP DUP1 DUP3 GT ISZERO PUSH3 0x1510 JUMPI DUP5 DUP6 REVERT JUMPDEST POP PUSH3 0x151F DUP11 DUP3 DUP12 ADD PUSH3 0x1176 JUMP JUMPDEST SWAP4 POP POP PUSH1 0xA0 DUP9 ADD CALLDATALOAD SWAP2 POP PUSH1 0xC0 DUP9 ADD CALLDATALOAD SWAP1 POP SWAP3 SWAP6 SWAP9 SWAP2 SWAP5 SWAP8 POP SWAP3 SWAP6 POP JUMP JUMPDEST PUSH1 0x0 DUP1 PUSH1 0x0 DUP1 PUSH1 0x0 DUP1 PUSH1 0x0 DUP1 PUSH1 0x0 PUSH2 0x120 DUP11 DUP13 SUB SLT ISZERO PUSH3 0x155B JUMPI DUP2 DUP3 REVERT JUMPDEST DUP10 CALLDATALOAD PUSH1 0x1 PUSH1 0x1 PUSH1 0x40 SHL SUB DUP1 DUP3 GT ISZERO PUSH3 0x1572 JUMPI DUP4 DUP5 REVERT JUMPDEST PUSH3 0x1580 DUP14 DUP4 DUP15 ADD PUSH3 0x10F6 JUMP JUMPDEST SWAP11 POP PUSH1 0x20 DUP13 ADD CALLDATALOAD SWAP2 POP DUP1 DUP3 GT ISZERO PUSH3 0x1596 JUMPI DUP4 DUP5 REVERT JUMPDEST PUSH3 0x15A4 DUP14 DUP4 DUP15 ADD PUSH3 0x1176 JUMP JUMPDEST SWAP10 POP PUSH1 0x40 DUP13 ADD CALLDATALOAD SWAP9 POP PUSH1 0x60 DUP13 ADD CALLDATALOAD SWAP2 POP DUP1 DUP3 GT ISZERO PUSH3 0x15C1 JUMPI DUP4 DUP5 REVERT JUMPDEST PUSH3 0x15CF DUP14 DUP4 DUP15 ADD PUSH3 0x10F6 JUMP JUMPDEST SWAP8 POP PUSH1 0x80 DUP13 ADD CALLDATALOAD SWAP2 POP DUP1 DUP3 GT ISZERO PUSH3 0x15E5 JUMPI DUP4 DUP5 REVERT JUMPDEST PUSH3 0x15F3 DUP14 DUP4 DUP15 ADD PUSH3 0x1176 JUMP JUMPDEST SWAP7 POP PUSH1 0xA0 DUP13 ADD CALLDATALOAD SWAP6 POP PUSH1 0xC0 DUP13 ADD CALLDATALOAD SWAP2 POP DUP1 DUP3 GT ISZERO PUSH3 0x1610 JUMPI DUP4 DUP5 REVERT JUMPDEST PUSH3 0x161E DUP14 DUP4 DUP15 ADD PUSH3 0x11DB JUMP JUMPDEST SWAP5 POP PUSH1 0xE0 DUP13 ADD CALLDATALOAD SWAP2 POP DUP1 DUP3 GT ISZERO PUSH3 0x1634 JUMPI DUP4 DUP5 REVERT JUMPDEST PUSH3 0x1642 DUP14 DUP4 DUP15 ADD PUSH3 0x1176 JUMP JUMPDEST SWAP4 POP PUSH2 0x100 DUP13 ADD CALLDATALOAD SWAP2 POP DUP1 DUP3 GT ISZERO PUSH3 0x1659 JUMPI DUP3 DUP4 REVERT JUMPDEST POP PUSH3 0x1668 DUP13 DUP3 DUP14 ADD PUSH3 0x1176 JUMP JUMPDEST SWAP2 POP POP SWAP3 SWAP6 SWAP9 POP SWAP3 SWAP6 SWAP9 POP SWAP3 SWAP6 SWAP9 JUMP JUMPDEST PUSH1 0x0 DUP1 PUSH1 0x0 DUP1 PUSH1 0x0 DUP1 PUSH1 0x0 DUP1 PUSH1 0x0 DUP1 PUSH1 0x0 DUP1 PUSH2 0x180 DUP14 DUP16 SUB SLT ISZERO PUSH3 0x169B JUMPI DUP6 DUP7 REVERT JUMPDEST PUSH1 0x1 PUSH1 0x1 PUSH1 0x40 SHL SUB DUP14 CALLDATALOAD GT ISZERO PUSH3 0x16B0 JUMPI DUP6 DUP7 REVERT JUMPDEST PUSH3 0x16BF DUP15 DUP15 CALLDATALOAD DUP16 ADD PUSH3 0x10F6 JUMP JUMPDEST SWAP12 POP PUSH1 0x1 PUSH1 0x1 PUSH1 0x40 SHL SUB PUSH1 0x20 DUP15 ADD CALLDATALOAD GT ISZERO PUSH3 0x16D9 JUMPI DUP6 DUP7 REVERT JUMPDEST PUSH3 0x16EB DUP15 PUSH1 0x20 DUP16 ADD CALLDATALOAD DUP16 ADD PUSH3 0x1176 JUMP JUMPDEST SWAP11 POP PUSH1 0x40 DUP14 ADD CALLDATALOAD SWAP10 POP PUSH1 0x1 PUSH1 0x1 PUSH1 0x40 SHL SUB PUSH1 0x60 DUP15 ADD CALLDATALOAD GT ISZERO PUSH3 0x170C JUMPI DUP6 DUP7 REVERT JUMPDEST PUSH3 0x171E DUP15 PUSH1 0x60 DUP16 ADD CALLDATALOAD DUP16 ADD PUSH3 0x11DB JUMP JUMPDEST SWAP9 POP PUSH1 0x1 PUSH1 0x1 PUSH1 0x40 SHL SUB PUSH1 0x80 DUP15 ADD CALLDATALOAD GT ISZERO PUSH3 0x1738 JUMPI DUP6 DUP7 REVERT JUMPDEST PUSH3 0x174A DUP15 PUSH1 0x80 DUP16 ADD CALLDATALOAD DUP16 ADD PUSH3 0x1176 JUMP JUMPDEST SWAP8 POP PUSH1 0x1 PUSH1 0x1 PUSH1 0x40 SHL SUB PUSH1 0xA0 DUP15 ADD CALLDATALOAD GT ISZERO PUSH3 0x1764 JUMPI DUP6 DUP7 REVERT JUMPDEST PUSH3 0x1776 DUP15 PUSH1 0xA0 DUP16 ADD CALLDATALOAD DUP16 ADD PUSH3 0x1176 JUMP JUMPDEST SWAP7 POP PUSH1 0x1 PUSH1 0x1 PUSH1 0x40 SHL SUB PUSH1 0xC0 DUP15 ADD CALLDATALOAD GT ISZERO PUSH3 0x1790 JUMPI DUP6 DUP7 REVERT JUMPDEST PUSH3 0x17A2 DUP15 PUSH1 0xC0 DUP16 ADD CALLDATALOAD DUP16 ADD PUSH3 0x1176 JUMP JUMPDEST SWAP6 POP PUSH1 0x1 PUSH1 0x1 PUSH1 0x40 SHL SUB PUSH1 0xE0 DUP15 ADD CALLDATALOAD GT ISZERO PUSH3 0x17BC JUMPI DUP3 DUP4 REVERT JUMPDEST PUSH3 0x17CE DUP15 PUSH1 0xE0 DUP16 ADD CALLDATALOAD DUP16 ADD PUSH3 0x10F6 JUMP JUMPDEST SWAP5 POP PUSH1 0x1 PUSH1 0x1 PUSH1 0x40 SHL SUB PUSH2 0x100 DUP15 ADD CALLDATALOAD GT ISZERO PUSH3 0x17E9 JUMPI DUP3 DUP4 REVERT JUMPDEST PUSH3 0x17FC DUP15 PUSH2 0x100 DUP16 ADD CALLDATALOAD DUP16 ADD PUSH3 0x1176 JUMP JUMPDEST SWAP4 POP PUSH2 0x120 DUP14 ADD CALLDATALOAD SWAP3 POP PUSH3 0x1816 DUP15 PUSH2 0x140 DUP16 ADD PUSH3 0x10DE JUMP JUMPDEST SWAP2 POP PUSH2 0x160 DUP14 ADD CALLDATALOAD SWAP1 POP SWAP3 SWAP6 SWAP9 SWAP12 POP SWAP3 SWAP6 SWAP9 SWAP12 POP SWAP3 SWAP6 SWAP9 SWAP12 JUMP JUMPDEST PUSH1 0x0 DUP1 PUSH1 0x0 DUP1 PUSH1 0x0 DUP1 PUSH1 0x0 PUSH1 0xE0 DUP9 DUP11 SUB SLT ISZERO PUSH3 0x184B JUMPI DUP1 DUP2 REVERT JUMPDEST DUP8 CALLDATALOAD PUSH1 0x1 PUSH1 0x1 PUSH1 0x40 SHL SUB DUP1 DUP3 GT ISZERO PUSH3 0x1862 JUMPI DUP3 DUP4 REVERT JUMPDEST PUSH3 0x1870 DUP12 DUP4 DUP13 ADD PUSH3 0x10F6 JUMP JUMPDEST SWAP9 POP PUSH1 0x20 DUP11 ADD CALLDATALOAD SWAP2 POP DUP1 DUP3 GT ISZERO PUSH3 0x1886 JUMPI DUP3 DUP4 REVERT JUMPDEST PUSH3 0x1894 DUP12 DUP4 DUP13 ADD PUSH3 0x1176 JUMP JUMPDEST SWAP8 POP PUSH1 0x40 DUP11 ADD CALLDATALOAD SWAP7 POP PUSH1 0x60 DUP11 ADD CALLDATALOAD SWAP2 POP DUP1 DUP3 GT ISZERO PUSH3 0x18B1 JUMPI DUP3 DUP4 REVERT JUMPDEST PUSH3 0x18BF DUP12 DUP4 DUP13 ADD PUSH3 0x11DB JUMP JUMPDEST SWAP6 POP PUSH1 0x80 DUP11 ADD CALLDATALOAD SWAP2 POP DUP1 DUP3 GT ISZERO PUSH3 0x18D5 JUMPI DUP3 DUP4 REVERT JUMPDEST PUSH3 0x18E3 DUP12 DUP4 DUP13 ADD PUSH3 0x1176 JUMP JUMPDEST SWAP5 POP PUSH1 0xA0 DUP11 ADD CALLDATALOAD SWAP2 POP DUP1 DUP3 GT ISZERO PUSH3 0x18F9 JUMPI DUP3 DUP4 REVERT JUMPDEST PUSH3 0x1907 DUP12 DUP4 DUP13 ADD PUSH3 0x1176 JUMP JUMPDEST SWAP4 POP PUSH1 0xC0 DUP11 ADD CALLDATALOAD SWAP2 POP DUP1 DUP3 GT ISZERO PUSH3 0x191D JUMPI DUP3 DUP4 REVERT JUMPDEST POP PUSH3 0x192C DUP11 DUP3 DUP12 ADD PUSH3 0x12B7 JUMP JUMPDEST SWAP2 POP POP SWAP3 SWAP6 SWAP9 SWAP2 SWAP5 SWAP8 POP SWAP3 SWAP6 POP JUMP JUMPDEST PUSH1 0x0 DUP1 PUSH1 0x0 DUP1 PUSH1 0x80 DUP6 DUP8 SUB SLT ISZERO PUSH3 0x1951 JUMPI DUP2 DUP3 REVERT JUMPDEST DUP5 CALLDATALOAD PUSH1 0x1 PUSH1 0x1 PUSH1 0x40 SHL SUB DUP1 DUP3 GT ISZERO PUSH3 0x1968 JUMPI DUP4 DUP5 REVERT JUMPDEST PUSH3 0x1976 DUP9 DUP4 DUP10 ADD PUSH3 0x10F6 JUMP JUMPDEST SWAP6 POP PUSH1 0x20 DUP8 ADD CALLDATALOAD SWAP2 POP DUP1 DUP3 GT ISZERO PUSH3 0x198C JUMPI DUP4 DUP5 REVERT JUMPDEST POP PUSH3 0x199B DUP8 DUP3 DUP9 ADD PUSH3 0x1176 JUMP JUMPDEST SWAP5 SWAP8 SWAP5 SWAP7 POP POP POP POP PUSH1 0x40 DUP4 ADD CALLDATALOAD SWAP3 PUSH1 0x60 ADD CALLDATALOAD SWAP2 SWAP1 POP JUMP JUMPDEST PUSH1 0x0 PUSH1 0x20 DUP3 DUP5 SUB SLT ISZERO PUSH3 0x19C4 JUMPI DUP1 DUP2 REVERT JUMPDEST DUP2 MLOAD DUP1 ISZERO ISZERO DUP2 EQ PUSH3 0xE10 JUMPI DUP2 DUP3 REVERT JUMPDEST PUSH1 0x0 PUSH1 0x20 DUP3 DUP5 SUB SLT ISZERO PUSH3 0x19E6 JUMPI DUP1 DUP2 REVERT JUMPDEST POP CALLDATALOAD SWAP2 SWAP1 POP JUMP JUMPDEST PUSH1 0x0 DUP1 PUSH1 0x0 DUP1 PUSH1 0x80 DUP6 DUP8 SUB SLT ISZERO PUSH3 0x1A03 JUMPI DUP2 DUP3 REVERT JUMPDEST DUP5 CALLDATALOAD PUSH1 0x1 PUSH1 0x1 PUSH1 0x40 SHL SUB DUP1 DUP3 GT ISZERO PUSH3 0x1A1A JUMPI DUP4 DUP5 REVERT JUMPDEST PUSH3 0x1A28 DUP9 DUP4 DUP10 ADD PUSH3 0x124A JUMP JUMPDEST SWAP6 POP PUSH1 0x20 DUP8 ADD CALLDATALOAD SWAP2 POP DUP1 DUP3 GT ISZERO PUSH3 0x1A3E JUMPI DUP4 DUP5 REVERT JUMPDEST PUSH3 0x1A4C DUP9 DUP4 DUP10 ADD PUSH3 0x124A JUMP JUMPDEST SWAP5 POP PUSH1 0x40 DUP8 ADD CALLDATALOAD SWAP2 POP DUP1 DUP3 GT ISZERO PUSH3 0x1A62 JUMPI DUP4 DUP5 REVERT JUMPDEST POP PUSH3 0x1A71 DUP8 DUP3 DUP9 ADD PUSH3 0x124A JUMP JUMPDEST SWAP3 POP POP PUSH3 0x1A83 DUP7 PUSH1 0x60 DUP8 ADD PUSH3 0x13DD JUMP JUMPDEST SWAP1 POP SWAP3 SWAP6 SWAP2 SWAP5 POP SWAP3 POP JUMP JUMPDEST PUSH1 0x0 DUP2 MLOAD DUP1 DUP5 MSTORE PUSH1 0x20 DUP1 DUP6 ADD SWAP5 POP DUP1 DUP5 ADD DUP4 JUMPDEST DUP4 DUP2 LT ISZERO PUSH3 0x1AC8 JUMPI DUP2 MLOAD PUSH1 0x1 PUSH1 0x1 PUSH1 0xA0 SHL SUB AND DUP8 MSTORE SWAP6 DUP3 ADD SWAP6 SWAP1 DUP3 ADD SWAP1 PUSH1 0x1 ADD PUSH3 0x1AA1 JUMP JUMPDEST POP SWAP5 SWAP6 SWAP5 POP POP POP POP POP JUMP JUMPDEST PUSH1 0x0 DUP2 MLOAD DUP1 DUP5 MSTORE PUSH1 0x20 DUP1 DUP6 ADD SWAP5 POP DUP1 DUP5 ADD DUP4 JUMPDEST DUP4 DUP2 LT ISZERO PUSH3 0x1AC8 JUMPI DUP2 MLOAD DUP8 MSTORE SWAP6 DUP3 ADD SWAP6 SWAP1 DUP3 ADD SWAP1 PUSH1 0x1 ADD PUSH3 0x1AE6 JUMP JUMPDEST PUSH1 0x0 DUP2 MLOAD DUP1 DUP5 MSTORE PUSH3 0x1B1E DUP2 PUSH1 0x20 DUP7 ADD PUSH1 0x20 DUP7 ADD PUSH3 0x23A4 JUMP JUMPDEST PUSH1 0x1F ADD PUSH1 0x1F NOT AND SWAP3 SWAP1 SWAP3 ADD PUSH1 0x20 ADD SWAP3 SWAP2 POP POP JUMP JUMPDEST PUSH1 0x0 DUP3 MLOAD PUSH3 0x1B46 DUP2 DUP5 PUSH1 0x20 DUP8 ADD PUSH3 0x23A4 JUMP JUMPDEST SWAP2 SWAP1 SWAP2 ADD SWAP3 SWAP2 POP POP JUMP JUMPDEST PUSH32 0x19457468657265756D205369676E6564204D6573736167653A0A333200000000 DUP2 MSTORE PUSH1 0x1C DUP2 ADD SWAP2 SWAP1 SWAP2 MSTORE PUSH1 0x3C ADD SWAP1 JUMP JUMPDEST PUSH1 0x1 PUSH1 0x1 PUSH1 0xA0 SHL SUB SWAP4 DUP5 AND DUP2 MSTORE SWAP2 SWAP1 SWAP3 AND PUSH1 0x20 DUP3 ADD MSTORE PUSH1 0x40 DUP2 ADD SWAP2 SWAP1 SWAP2 MSTORE PUSH1 0x60 ADD SWAP1 JUMP JUMPDEST PUSH1 0x1 PUSH1 0x1 PUSH1 0xA0 SHL SUB DUP6 AND DUP2 MSTORE PUSH1 0x80 PUSH1 0x20 DUP3 ADD DUP2 SWAP1 MSTORE PUSH1 0x0 SWAP1 PUSH3 0x1BCB SWAP1 DUP4 ADD DUP7 PUSH3 0x1B04 JUMP JUMPDEST DUP3 DUP2 SUB PUSH1 0x40 DUP5 ADD MSTORE PUSH3 0x1BDF DUP2 DUP7 PUSH3 0x1B04 JUMP JUMPDEST SWAP2 POP POP PUSH1 0xFF DUP4 AND PUSH1 0x60 DUP4 ADD MSTORE SWAP6 SWAP5 POP POP POP POP POP JUMP JUMPDEST PUSH1 0x1 PUSH1 0x1 PUSH1 0xA0 SHL SUB SWAP3 SWAP1 SWAP3 AND DUP3 MSTORE PUSH1 0x20 DUP3 ADD MSTORE PUSH1 0x40 ADD SWAP1 JUMP JUMPDEST SWAP1 DUP2 MSTORE PUSH1 0x20 ADD SWAP1 JUMP JUMPDEST PUSH1 0x0 DUP7 DUP3 MSTORE DUP6 PUSH1 0x20 DUP4 ADD MSTORE DUP5 PUSH1 0x40 DUP4 ADD MSTORE PUSH1 0xA0 PUSH1 0x60 DUP4 ADD MSTORE PUSH3 0x1C3D PUSH1 0xA0 DUP4 ADD DUP6 PUSH3 0x1A8E JUMP JUMPDEST DUP3 DUP2 SUB PUSH1 0x80 DUP5 ADD MSTORE PUSH3 0x1C51 DUP2 DUP6 PUSH3 0x1AD3 JUMP JUMPDEST SWAP9 SWAP8 POP POP POP POP POP POP POP POP JUMP JUMPDEST PUSH1 0x0 PUSH2 0x160 DUP14 DUP4 MSTORE DUP13 PUSH1 0x20 DUP5 ADD MSTORE DUP1 PUSH1 0x40 DUP5 ADD MSTORE PUSH3 0x1C7F DUP2 DUP5 ADD DUP14 PUSH3 0x1AD3 JUMP JUMPDEST DUP4 DUP2 SUB PUSH1 0x60 DUP6 ADD MSTORE PUSH3 0x1C93 DUP2 DUP14 PUSH3 0x1A8E JUMP JUMPDEST SWAP2 POP POP DUP3 DUP2 SUB PUSH1 0x80 DUP5 ADD MSTORE PUSH3 0x1CAA DUP2 DUP12 PUSH3 0x1AD3 JUMP JUMPDEST DUP4 DUP2 SUB PUSH1 0xA0 DUP6 ADD MSTORE PUSH3 0x1CBE DUP2 DUP12 PUSH3 0x1A8E JUMP JUMPDEST PUSH1 0x1 PUSH1 0x1 PUSH1 0xA0 SHL SUB DUP11 AND PUSH1 0xC0 DUP7 ADD MSTORE DUP5 DUP2 SUB PUSH1 0xE0 DUP7 ADD MSTORE SWAP2 POP PUSH3 0x1CE5 SWAP1 POP DUP2 DUP9 PUSH3 0x1B04 JUMP JUMPDEST PUSH2 0x100 DUP5 ADD SWAP7 SWAP1 SWAP7 MSTORE POP POP PUSH2 0x120 DUP2 ADD SWAP3 SWAP1 SWAP3 MSTORE PUSH2 0x140 SWAP1 SWAP2 ADD MSTORE SWAP9 SWAP8 POP POP POP POP POP POP POP POP JUMP JUMPDEST PUSH1 0x0 PUSH2 0x100 DUP11 DUP4 MSTORE DUP10 PUSH1 0x20 DUP5 ADD MSTORE DUP1 PUSH1 0x40 DUP5 ADD MSTORE PUSH3 0x1D2E DUP2 DUP5 ADD DUP11 PUSH3 0x1AD3 JUMP JUMPDEST DUP4 DUP2 SUB PUSH1 0x60 DUP6 ADD MSTORE PUSH3 0x1D42 DUP2 DUP11 PUSH3 0x1A8E JUMP JUMPDEST SWAP2 POP POP DUP3 DUP2 SUB PUSH1 0x80 DUP5 ADD MSTORE PUSH3 0x1D59 DUP2 DUP9 PUSH3 0x1AD3 JUMP JUMPDEST PUSH1 0xA0 DUP5 ADD SWAP7 SWAP1 SWAP7 MSTORE POP POP PUSH1 0x1 PUSH1 0x1 PUSH1 0xA0 SHL SUB SWAP3 SWAP1 SWAP3 AND PUSH1 0xC0 DUP4 ADD MSTORE PUSH1 0xE0 SWAP1 SWAP2 ADD MSTORE SWAP6 SWAP5 POP POP POP POP POP JUMP JUMPDEST PUSH1 0x0 DUP6 DUP3 MSTORE DUP5 PUSH1 0x20 DUP4 ADD MSTORE PUSH1 0x80 PUSH1 0x40 DUP4 ADD MSTORE PUSH3 0x1DA4 PUSH1 0x80 DUP4 ADD DUP6 PUSH3 0x1B04 JUMP JUMPDEST SWAP1 POP DUP3 PUSH1 0x60 DUP4 ADD MSTORE SWAP6 SWAP5 POP POP POP POP POP JUMP JUMPDEST SWAP4 DUP5 MSTORE PUSH1 0xFF SWAP3 SWAP1 SWAP3 AND PUSH1 0x20 DUP5 ADD MSTORE PUSH1 0x40 DUP4 ADD MSTORE PUSH1 0x60 DUP3 ADD MSTORE PUSH1 0x80 ADD SWAP1 JUMP JUMPDEST PUSH1 0x0 PUSH1 0x20 DUP3 MSTORE PUSH3 0xE10 PUSH1 0x20 DUP4 ADD DUP5 PUSH3 0x1B04 JUMP JUMPDEST PUSH1 0x0 PUSH1 0xA0 DUP3 MSTORE PUSH3 0x1DFD PUSH1 0xA0 DUP4 ADD DUP9 PUSH3 0x1B04 JUMP JUMPDEST DUP3 DUP2 SUB PUSH1 0x20 DUP5 ADD MSTORE PUSH3 0x1E11 DUP2 DUP9 PUSH3 0x1B04 JUMP JUMPDEST DUP4 DUP2 SUB PUSH1 0x40 DUP6 ADD MSTORE PUSH3 0x1E25 DUP2 DUP9 PUSH3 0x1B04 JUMP JUMPDEST PUSH1 0xFF SWAP7 SWAP1 SWAP7 AND PUSH1 0x60 DUP6 ADD MSTORE POP POP POP PUSH1 0x80 ADD MSTORE SWAP4 SWAP3 POP POP POP JUMP JUMPDEST PUSH1 0x20 DUP1 DUP3 MSTORE PUSH1 0x16 SWAP1 DUP3 ADD MSTORE PUSH22 0x4D616C666F726D6564206C697374206F662066656573 PUSH1 0x50 SHL PUSH1 0x40 DUP3 ADD MSTORE PUSH1 0x60 ADD SWAP1 JUMP JUMPDEST PUSH1 0x20 DUP1 DUP3 MSTORE PUSH1 0x3F SWAP1 DUP3 ADD MSTORE PUSH32 0x537570706C6965642063757272656E742076616C696461746F727320616E6420 PUSH1 0x40 DUP3 ADD MSTORE PUSH32 0x706F7765727320646F206E6F74206D6174636820636865636B706F696E742E00 PUSH1 0x60 DUP3 ADD MSTORE PUSH1 0x80 ADD SWAP1 JUMP JUMPDEST PUSH1 0x20 DUP1 DUP3 MSTORE PUSH1 0x36 SWAP1 DUP3 ADD MSTORE PUSH32 0x4E6577206261746368206E6F6E6365206D757374206265206772656174657220 PUSH1 0x40 DUP3 ADD MSTORE PUSH22 0x7468616E207468652063757272656E74206E6F6E6365 PUSH1 0x50 SHL PUSH1 0x60 DUP3 ADD MSTORE PUSH1 0x80 ADD SWAP1 JUMP JUMPDEST PUSH1 0x20 DUP1 DUP3 MSTORE PUSH1 0x1F SWAP1 DUP3 ADD MSTORE PUSH32 0x4D616C666F726D6564206261746368206F66207472616E73616374696F6E7300 PUSH1 0x40 DUP3 ADD MSTORE PUSH1 0x60 ADD SWAP1 JUMP JUMPDEST PUSH1 0x20 DUP1 DUP3 MSTORE PUSH1 0x3D SWAP1 DUP3 ADD MSTORE PUSH32 0x4E657720696E76616C69646174696F6E206E6F6E6365206D7573742062652067 PUSH1 0x40 DUP3 ADD MSTORE PUSH32 0x726561746572207468616E207468652063757272656E74206E6F6E6365000000 PUSH1 0x60 DUP3 ADD MSTORE PUSH1 0x80 ADD SWAP1 JUMP JUMPDEST PUSH1 0x20 DUP1 DUP3 MSTORE PUSH1 0x1B SWAP1 DUP3 ADD MSTORE PUSH32 0x536166654D6174683A206164646974696F6E206F766572666C6F770000000000 PUSH1 0x40 DUP3 ADD MSTORE PUSH1 0x60 ADD SWAP1 JUMP JUMPDEST PUSH1 0x20 DUP1 DUP3 MSTORE PUSH1 0x9 SWAP1 DUP3 ADD MSTORE PUSH9 0x151A5B5959081BDD5D PUSH1 0xBA SHL PUSH1 0x40 DUP3 ADD MSTORE PUSH1 0x60 ADD SWAP1 JUMP JUMPDEST PUSH1 0x20 DUP1 DUP3 MSTORE PUSH1 0x23 SWAP1 DUP3 ADD MSTORE PUSH32 0x56616C696461746F72207369676E617475726520646F6573206E6F74206D6174 PUSH1 0x40 DUP3 ADD MSTORE PUSH3 0x31B417 PUSH1 0xE9 SHL PUSH1 0x60 DUP3 ADD MSTORE PUSH1 0x80 ADD SWAP1 JUMP JUMPDEST PUSH1 0x20 DUP1 DUP3 MSTORE PUSH1 0x26 SWAP1 DUP3 ADD MSTORE PUSH32 0x416464726573733A20696E73756666696369656E742062616C616E636520666F PUSH1 0x40 DUP3 ADD MSTORE PUSH6 0x1C8818D85B1B PUSH1 0xD2 SHL PUSH1 0x60 DUP3 ADD MSTORE PUSH1 0x80 ADD SWAP1 JUMP JUMPDEST PUSH1 0x20 DUP1 DUP3 MSTORE PUSH1 0x3B SWAP1 DUP3 ADD MSTORE PUSH32 0x42617463682074696D656F7574206D7573742062652067726561746572207468 PUSH1 0x40 DUP3 ADD MSTORE PUSH32 0x616E207468652063757272656E7420626C6F636B206865696768740000000000 PUSH1 0x60 DUP3 ADD MSTORE PUSH1 0x80 ADD SWAP1 JUMP JUMPDEST PUSH1 0x20 DUP1 DUP3 MSTORE PUSH1 0x21 SWAP1 DUP3 ADD MSTORE PUSH32 0x4D616C666F726D6564206C697374206F6620746F6B656E207472616E73666572 PUSH1 0x40 DUP3 ADD MSTORE PUSH1 0x73 PUSH1 0xF8 SHL PUSH1 0x60 DUP3 ADD MSTORE PUSH1 0x80 ADD SWAP1 JUMP JUMPDEST PUSH1 0x20 DUP1 DUP3 MSTORE PUSH1 0x1B SWAP1 DUP3 ADD MSTORE PUSH32 0x4D616C666F726D6564206E65772076616C696461746F72207365740000000000 PUSH1 0x40 DUP3 ADD MSTORE PUSH1 0x60 ADD SWAP1 JUMP JUMPDEST PUSH1 0x20 DUP1 DUP3 MSTORE PUSH1 0x3C SWAP1 DUP3 ADD MSTORE PUSH32 0x5375626D69747465642076616C696461746F7220736574207369676E61747572 PUSH1 0x40 DUP3 ADD MSTORE PUSH32 0x657320646F206E6F74206861766520656E6F75676820706F7765722E00000000 PUSH1 0x60 DUP3 ADD MSTORE PUSH1 0x80 ADD SWAP1 JUMP JUMPDEST PUSH1 0x20 DUP1 DUP3 MSTORE PUSH1 0x37 SWAP1 DUP3 ADD MSTORE PUSH32 0x4E65772076616C736574206E6F6E6365206D7573742062652067726561746572 PUSH1 0x40 DUP3 ADD MSTORE PUSH32 0x207468616E207468652063757272656E74206E6F6E6365000000000000000000 PUSH1 0x60 DUP3 ADD MSTORE PUSH1 0x80 ADD SWAP1 JUMP JUMPDEST PUSH1 0x20 DUP1 DUP3 MSTORE PUSH1 0x1D SWAP1 DUP3 ADD MSTORE PUSH32 0x416464726573733A2063616C6C20746F206E6F6E2D636F6E7472616374000000 PUSH1 0x40 DUP3 ADD MSTORE PUSH1 0x60 ADD SWAP1 JUMP JUMPDEST PUSH1 0x20 DUP1 DUP3 MSTORE PUSH1 0x2A SWAP1 DUP3 ADD MSTORE PUSH32 0x5361666545524332303A204552433230206F7065726174696F6E20646964206E PUSH1 0x40 DUP3 ADD MSTORE PUSH10 0x1BDD081CDD58D8D95959 PUSH1 0xB2 SHL PUSH1 0x60 DUP3 ADD MSTORE PUSH1 0x80 ADD SWAP1 JUMP JUMPDEST PUSH1 0x20 DUP1 DUP3 MSTORE PUSH1 0x1F SWAP1 DUP3 ADD MSTORE PUSH32 0x4D616C666F726D65642063757272656E742076616C696461746F722073657400 PUSH1 0x40 DUP3 ADD MSTORE PUSH1 0x60 ADD SWAP1 JUMP JUMPDEST PUSH1 0x20 DUP1 DUP3 MSTORE PUSH1 0x1F SWAP1 DUP3 ADD MSTORE PUSH32 0x5265656E7472616E637947756172643A207265656E7472616E742063616C6C00 PUSH1 0x40 DUP3 ADD MSTORE PUSH1 0x60 ADD SWAP1 JUMP JUMPDEST PUSH1 0x0 DUP5 DUP3 MSTORE PUSH1 0x60 PUSH1 0x20 DUP4 ADD MSTORE PUSH3 0x2331 PUSH1 0x60 DUP4 ADD DUP6 PUSH3 0x1A8E JUMP JUMPDEST DUP3 DUP2 SUB PUSH1 0x40 DUP5 ADD MSTORE PUSH3 0x2345 DUP2 DUP6 PUSH3 0x1AD3 JUMP JUMPDEST SWAP7 SWAP6 POP POP POP POP POP POP JUMP JUMPDEST SWAP2 DUP3 MSTORE PUSH1 0x20 DUP3 ADD MSTORE PUSH1 0x40 ADD SWAP1 JUMP JUMPDEST PUSH1 0x40 MLOAD DUP2 DUP2 ADD PUSH1 0x1 PUSH1 0x1 PUSH1 0x40 SHL SUB DUP2 GT DUP3 DUP3 LT OR ISZERO PUSH3 0x237C JUMPI PUSH1 0x0 DUP1 REVERT JUMPDEST PUSH1 0x40 MSTORE SWAP2 SWAP1 POP JUMP JUMPDEST PUSH1 0x0 PUSH1 0x1 PUSH1 0x1 PUSH1 0x40 SHL SUB DUP3 GT ISZERO PUSH3 0x239A JUMPI DUP1 DUP2 REVERT JUMPDEST POP PUSH1 0x20 SWAP1 DUP2 MUL ADD SWAP1 JUMP JUMPDEST PUSH1 0x0 JUMPDEST DUP4 DUP2 LT ISZERO PUSH3 0x23C1 JUMPI DUP2 DUP2 ADD MLOAD DUP4 DUP3 ADD MSTORE PUSH1 0x20 ADD PUSH3 0x23A7 JUMP JUMPDEST DUP4 DUP2 GT ISZERO PUSH3 0xE65 JUMPI POP POP PUSH1 0x0 SWAP2 ADD MSTORE JUMP INVALID PUSH1 0x80 PUSH1 0x40 MSTORE PUSH1 0x63 NOT PUSH1 0x6 SSTORE CALLVALUE DUP1 ISZERO PUSH3 0x17 JUMPI PUSH1 0x0 DUP1 REVERT JUMPDEST POP PUSH1 0x40 MLOAD PUSH3 0xFBF CODESIZE SUB DUP1 PUSH3 0xFBF DUP4 CODECOPY DUP2 DUP2 ADD PUSH1 0x40 MSTORE PUSH1 0x80 DUP2 LT ISZERO PUSH3 0x3D JUMPI PUSH1 0x0 DUP1 REVERT JUMPDEST DUP2 MLOAD PUSH1 0x20 DUP4 ADD DUP1 MLOAD PUSH1 0x40 MLOAD SWAP3 SWAP5 SWAP3 SWAP4 DUP4 ADD SWAP3 SWAP2 SWAP1 DUP5 PUSH5 0x100000000 DUP3 GT ISZERO PUSH3 0x65 JUMPI PUSH1 0x0 DUP1 REVERT JUMPDEST SWAP1 DUP4 ADD SWAP1 PUSH1 0x20 DUP3 ADD DUP6 DUP2 GT ISZERO PUSH3 0x7B JUMPI PUSH1 0x0 DUP1 REVERT JUMPDEST DUP3 MLOAD PUSH5 0x100000000 DUP2 GT DUP3 DUP3 ADD DUP9 LT OR ISZERO PUSH3 0x96 JUMPI PUSH1 0x0 DUP1 REVERT JUMPDEST DUP3 MSTORE POP DUP2 MLOAD PUSH1 0x20 SWAP2 DUP3 ADD SWAP3 SWAP1 SWAP2 ADD SWAP1 DUP1 DUP4 DUP4 PUSH1 0x0 JUMPDEST DUP4 DUP2 LT ISZERO PUSH3 0xC5 JUMPI DUP2 DUP2 ADD MLOAD DUP4 DUP3 ADD MSTORE PUSH1 0x20 ADD PUSH3 0xAB JUMP JUMPDEST POP POP POP POP SWAP1 POP SWAP1 DUP2 ADD SWAP1 PUSH1 0x1F AND DUP1 ISZERO PUSH3 0xF3 JUMPI DUP1 DUP3 SUB DUP1 MLOAD PUSH1 0x1 DUP4 PUSH1 0x20 SUB PUSH2 0x100 EXP SUB NOT AND DUP2 MSTORE PUSH1 0x20 ADD SWAP2 POP JUMPDEST POP PUSH1 0x40 MSTORE PUSH1 0x20 ADD DUP1 MLOAD PUSH1 0x40 MLOAD SWAP4 SWAP3 SWAP2 SWAP1 DUP5 PUSH5 0x100000000 DUP3 GT ISZERO PUSH3 0x117 JUMPI PUSH1 0x0 DUP1 REVERT JUMPDEST SWAP1 DUP4 ADD SWAP1 PUSH1 0x20 DUP3 ADD DUP6 DUP2 GT ISZERO PUSH3 0x12D JUMPI PUSH1 0x0 DUP1 REVERT JUMPDEST DUP3 MLOAD PUSH5 0x100000000 DUP2 GT DUP3 DUP3 ADD DUP9 LT OR ISZERO PUSH3 0x148 JUMPI PUSH1 0x0 DUP1 REVERT JUMPDEST DUP3 MSTORE POP DUP2 MLOAD PUSH1 0x20 SWAP2 DUP3 ADD SWAP3 SWAP1 SWAP2 ADD SWAP1 DUP1 DUP4 DUP4 PUSH1 0x0 JUMPDEST DUP4 DUP2 LT ISZERO PUSH3 0x177 JUMPI DUP2 DUP2 ADD MLOAD DUP4 DUP3 ADD MSTORE PUSH1 0x20 ADD PUSH3 0x15D JUMP JUMPDEST POP POP POP POP SWAP1 POP SWAP1 DUP2 ADD SWAP1 PUSH1 0x1F AND DUP1 ISZERO PUSH3 0x1A5 JUMPI DUP1 DUP3 SUB DUP1 MLOAD PUSH1 0x1 DUP4 PUSH1 0x20 SUB PUSH2 0x100 EXP SUB NOT AND DUP2 MSTORE PUSH1 0x20 ADD SWAP2 POP JUMPDEST POP PUSH1 0x40 MSTORE PUSH1 0x20 SWAP1 DUP2 ADD MLOAD DUP6 MLOAD SWAP1 SWAP4 POP DUP6 SWAP3 POP DUP5 SWAP2 PUSH3 0x1CA SWAP2 PUSH1 0x3 SWAP2 DUP6 ADD SWAP1 PUSH3 0x3B7 JUMP JUMPDEST POP DUP1 MLOAD PUSH3 0x1E0 SWAP1 PUSH1 0x4 SWAP1 PUSH1 0x20 DUP5 ADD SWAP1 PUSH3 0x3B7 JUMP JUMPDEST POP POP PUSH1 0x5 DUP1 SLOAD PUSH1 0xFF NOT AND PUSH1 0x12 OR SWAP1 SSTORE POP PUSH3 0x204 DUP2 PUSH1 0x1 PUSH1 0x1 PUSH1 0xE0 SHL SUB PUSH3 0x222 AND JUMP JUMPDEST PUSH3 0x218 DUP5 PUSH1 0x6 SLOAD PUSH3 0x238 PUSH1 0x20 SHL PUSH1 0x20 SHR JUMP JUMPDEST POP POP POP POP PUSH3 0x45C JUMP JUMPDEST PUSH1 0x5 DUP1 SLOAD PUSH1 0xFF NOT AND PUSH1 0xFF SWAP3 SWAP1 SWAP3 AND SWAP2 SWAP1 SWAP2 OR SWAP1 SSTORE JUMP JUMPDEST PUSH1 0x1 PUSH1 0x1 PUSH1 0xA0 SHL SUB DUP3 AND PUSH3 0x294 JUMPI PUSH1 0x40 DUP1 MLOAD PUSH3 0x461BCD PUSH1 0xE5 SHL DUP2 MSTORE PUSH1 0x20 PUSH1 0x4 DUP3 ADD MSTORE PUSH1 0x1F PUSH1 0x24 DUP3 ADD MSTORE PUSH32 0x45524332303A206D696E7420746F20746865207A65726F206164647265737300 PUSH1 0x44 DUP3 ADD MSTORE SWAP1 MLOAD SWAP1 DUP2 SWAP1 SUB PUSH1 0x64 ADD SWAP1 REVERT JUMPDEST PUSH3 0x2AB PUSH1 0x0 DUP4 DUP4 PUSH1 0x1 PUSH1 0x1 PUSH1 0xE0 SHL SUB PUSH3 0x350 AND JUMP JUMPDEST PUSH3 0x2C7 DUP2 PUSH1 0x2 SLOAD PUSH3 0x355 PUSH1 0x20 SHL PUSH3 0x9B6 OR SWAP1 SWAP2 SWAP1 PUSH1 0x20 SHR JUMP JUMPDEST PUSH1 0x2 SSTORE PUSH1 0x1 PUSH1 0x1 PUSH1 0xA0 SHL SUB DUP3 AND PUSH1 0x0 SWAP1 DUP2 MSTORE PUSH1 0x20 DUP2 DUP2 MSTORE PUSH1 0x40 SWAP1 SWAP2 KECCAK256 SLOAD PUSH3 0x2FA SWAP2 DUP4 SWAP1 PUSH3 0x9B6 PUSH3 0x355 DUP3 SHL OR SWAP1 SHR JUMP JUMPDEST PUSH1 0x1 PUSH1 0x1 PUSH1 0xA0 SHL SUB DUP4 AND PUSH1 0x0 DUP2 DUP2 MSTORE PUSH1 0x20 DUP2 DUP2 MSTORE PUSH1 0x40 DUP1 DUP4 KECCAK256 SWAP5 SWAP1 SWAP5 SSTORE DUP4 MLOAD DUP6 DUP2 MSTORE SWAP4 MLOAD SWAP3 SWAP4 SWAP2 SWAP3 PUSH32 0xDDF252AD1BE2C89B69C2B068FC378DAA952BA7F163C4A11628F55A4DF523B3EF SWAP3 DUP2 SWAP1 SUB SWAP1 SWAP2 ADD SWAP1 LOG3 POP POP JUMP JUMPDEST POP POP POP JUMP JUMPDEST PUSH1 0x0 DUP3 DUP3 ADD DUP4 DUP2 LT ISZERO PUSH3 0x3B0 JUMPI PUSH1 0x40 DUP1 MLOAD PUSH3 0x461BCD PUSH1 0xE5 SHL DUP2 MSTORE PUSH1 0x20 PUSH1 0x4 DUP3 ADD MSTORE PUSH1 0x1B PUSH1 0x24 DUP3 ADD MSTORE PUSH32 0x536166654D6174683A206164646974696F6E206F766572666C6F770000000000 PUSH1 0x44 DUP3 ADD MSTORE SWAP1 MLOAD SWAP1 DUP2 SWAP1 SUB PUSH1 0x64 ADD SWAP1 REVERT JUMPDEST SWAP4 SWAP3 POP POP POP JUMP JUMPDEST DUP3 DUP1 SLOAD PUSH1 0x1 DUP2 PUSH1 0x1 AND ISZERO PUSH2 0x100 MUL SUB AND PUSH1 0x2 SWAP1 DIV SWAP1 PUSH1 0x0 MSTORE PUSH1 0x20 PUSH1 0x0 KECCAK256 SWAP1 PUSH1 0x1F ADD PUSH1 0x20 SWAP1 DIV DUP2 ADD SWAP3 DUP3 PUSH1 0x1F LT PUSH3 0x3FA JUMPI DUP1 MLOAD PUSH1 0xFF NOT AND DUP4 DUP1 ADD OR DUP6 SSTORE PUSH3 0x42A JUMP JUMPDEST DUP3 DUP1 ADD PUSH1 0x1 ADD DUP6 SSTORE DUP3 ISZERO PUSH3 0x42A JUMPI SWAP2 DUP3 ADD JUMPDEST DUP3 DUP2 GT ISZERO PUSH3 0x42A JUMPI DUP3 MLOAD DUP3 SSTORE SWAP2 PUSH1 0x20 ADD SWAP2 SWAP1 PUSH1 0x1 ADD SWAP1 PUSH3 0x40D JUMP JUMPDEST POP PUSH3 0x438 SWAP3 SWAP2 POP PUSH3 0x43C JUMP JUMPDEST POP SWAP1 JUMP JUMPDEST PUSH3 0x459 SWAP2 SWAP1 JUMPDEST DUP1 DUP3 GT ISZERO PUSH3 0x438 JUMPI PUSH1 0x0 DUP2 SSTORE PUSH1 0x1 ADD PUSH3 0x443 JUMP JUMPDEST SWAP1 JUMP JUMPDEST PUSH2 0xB53 DUP1 PUSH3 0x46C PUSH1 0x0 CODECOPY PUSH1 0x0 RETURN INVALID PUSH1 0x80 PUSH1 0x40 MSTORE CALLVALUE DUP1 ISZERO PUSH2 0x10 JUMPI PUSH1 0x0 DUP1 REVERT JUMPDEST POP PUSH1 0x4 CALLDATASIZE LT PUSH2 0xB4 JUMPI PUSH1 0x0 CALLDATALOAD PUSH1 0xE0 SHR DUP1 PUSH4 0x39509351 GT PUSH2 0x71 JUMPI DUP1 PUSH4 0x39509351 EQ PUSH2 0x212 JUMPI DUP1 PUSH4 0x70A08231 EQ PUSH2 0x23E JUMPI DUP1 PUSH4 0x95D89B41 EQ PUSH2 0x264 JUMPI DUP1 PUSH4 0xA457C2D7 EQ PUSH2 0x26C JUMPI DUP1 PUSH4 0xA9059CBB EQ PUSH2 0x298 JUMPI DUP1 PUSH4 0xDD62ED3E EQ PUSH2 0x2C4 JUMPI PUSH2 0xB4 JUMP JUMPDEST DUP1 PUSH4 0x6FDDE03 EQ PUSH2 0xB9 JUMPI DUP1 PUSH4 0x95EA7B3 EQ PUSH2 0x136 JUMPI DUP1 PUSH4 0x18160DDD EQ PUSH2 0x176 JUMPI DUP1 PUSH4 0x23B872DD EQ PUSH2 0x190 JUMPI DUP1 PUSH4 0x2EBDF54D EQ PUSH2 0x1C6 JUMPI DUP1 PUSH4 0x313CE567 EQ PUSH2 0x1F4 JUMPI JUMPDEST PUSH1 0x0 DUP1 REVERT JUMPDEST PUSH2 0xC1 PUSH2 0x2F2 JUMP JUMPDEST PUSH1 0x40 DUP1 MLOAD PUSH1 0x20 DUP1 DUP3 MSTORE DUP4 MLOAD DUP2 DUP4 ADD MSTORE DUP4 MLOAD SWAP2 SWAP3 DUP4 SWAP3 SWAP1 DUP4 ADD SWAP2 DUP6 ADD SWAP1 DUP1 DUP4 DUP4 PUSH1 0x0 JUMPDEST DUP4 DUP2 LT ISZERO PUSH2 0xFB JUMPI DUP2 DUP2 ADD MLOAD DUP4 DUP3 ADD MSTORE PUSH1 0x20 ADD PUSH2 0xE3 JUMP JUMPDEST POP POP POP POP SWAP1 POP SWAP1 DUP2 ADD SWAP1 PUSH1 0x1F AND DUP1 ISZERO PUSH2 0x128 JUMPI DUP1 DUP3 SUB DUP1 MLOAD PUSH1 0x1 DUP4 PUSH1 0x20 SUB PUSH2 0x100 EXP SUB NOT AND DUP2 MSTORE PUSH1 0x20 ADD SWAP2 POP JUMPDEST POP SWAP3 POP POP POP PUSH1 0x40 MLOAD DUP1 SWAP2 SUB SWAP1 RETURN JUMPDEST PUSH2 0x162 PUSH1 0x4 DUP1 CALLDATASIZE SUB PUSH1 0x40 DUP2 LT ISZERO PUSH2 0x14C JUMPI PUSH1 0x0 DUP1 REVERT JUMPDEST POP PUSH1 0x1 PUSH1 0x1 PUSH1 0xA0 SHL SUB DUP2 CALLDATALOAD AND SWAP1 PUSH1 0x20 ADD CALLDATALOAD PUSH2 0x388 JUMP JUMPDEST PUSH1 0x40 DUP1 MLOAD SWAP2 ISZERO ISZERO DUP3 MSTORE MLOAD SWAP1 DUP2 SWAP1 SUB PUSH1 0x20 ADD SWAP1 RETURN JUMPDEST PUSH2 0x17E PUSH2 0x3A5 JUMP JUMPDEST PUSH1 0x40 DUP1 MLOAD SWAP2 DUP3 MSTORE MLOAD SWAP1 DUP2 SWAP1 SUB PUSH1 0x20 ADD SWAP1 RETURN JUMPDEST PUSH2 0x162 PUSH1 0x4 DUP1 CALLDATASIZE SUB PUSH1 0x60 DUP2 LT ISZERO PUSH2 0x1A6 JUMPI PUSH1 0x0 DUP1 REVERT JUMPDEST POP PUSH1 0x1 PUSH1 0x1 PUSH1 0xA0 SHL SUB DUP2 CALLDATALOAD DUP2 AND SWAP2 PUSH1 0x20 DUP2 ADD CALLDATALOAD SWAP1 SWAP2 AND SWAP1 PUSH1 0x40 ADD CALLDATALOAD PUSH2 0x3AB JUMP JUMPDEST PUSH2 0x1F2 PUSH1 0x4 DUP1 CALLDATASIZE SUB PUSH1 0x40 DUP2 LT ISZERO PUSH2 0x1DC JUMPI PUSH1 0x0 DUP1 REVERT JUMPDEST POP PUSH1 0x1 PUSH1 0x1 PUSH1 0xA0 SHL SUB DUP2 CALLDATALOAD AND SWAP1 PUSH1 0x20 ADD CALLDATALOAD PUSH2 0x438 JUMP JUMPDEST STOP JUMPDEST PUSH2 0x1FC PUSH2 0x446 JUMP JUMPDEST PUSH1 0x40 DUP1 MLOAD PUSH1 0xFF SWAP1 SWAP3 AND DUP3 MSTORE MLOAD SWAP1 DUP2 SWAP1 SUB PUSH1 0x20 ADD SWAP1 RETURN JUMPDEST PUSH2 0x162 PUSH1 0x4 DUP1 CALLDATASIZE SUB PUSH1 0x40 DUP2 LT ISZERO PUSH2 0x228 JUMPI PUSH1 0x0 DUP1 REVERT JUMPDEST POP PUSH1 0x1 PUSH1 0x1 PUSH1 0xA0 SHL SUB DUP2 CALLDATALOAD AND SWAP1 PUSH1 0x20 ADD CALLDATALOAD PUSH2 0x44F JUMP JUMPDEST PUSH2 0x17E PUSH1 0x4 DUP1 CALLDATASIZE SUB PUSH1 0x20 DUP2 LT ISZERO PUSH2 0x254 JUMPI PUSH1 0x0 DUP1 REVERT JUMPDEST POP CALLDATALOAD PUSH1 0x1 PUSH1 0x1 PUSH1 0xA0 SHL SUB AND PUSH2 0x4A3 JUMP JUMPDEST PUSH2 0xC1 PUSH2 0x4BE JUMP JUMPDEST PUSH2 0x162 PUSH1 0x4 DUP1 CALLDATASIZE SUB PUSH1 0x40 DUP2 LT ISZERO PUSH2 0x282 JUMPI PUSH1 0x0 DUP1 REVERT JUMPDEST POP PUSH1 0x1 PUSH1 0x1 PUSH1 0xA0 SHL SUB DUP2 CALLDATALOAD AND SWAP1 PUSH1 0x20 ADD CALLDATALOAD PUSH2 0x51F JUMP JUMPDEST PUSH2 0x162 PUSH1 0x4 DUP1 CALLDATASIZE SUB PUSH1 0x40 DUP2 LT ISZERO PUSH2 0x2AE JUMPI PUSH1 0x0 DUP1 REVERT JUMPDEST POP PUSH1 0x1 PUSH1 0x1 PUSH1 0xA0 SHL SUB DUP2 CALLDATALOAD AND SWAP1 PUSH1 0x20 ADD CALLDATALOAD PUSH2 0x58D JUMP JUMPDEST PUSH2 0x17E PUSH1 0x4 DUP1 CALLDATASIZE SUB PUSH1 0x40 DUP2 LT ISZERO PUSH2 0x2DA JUMPI PUSH1 0x0 DUP1 REVERT JUMPDEST POP PUSH1 0x1 PUSH1 0x1 PUSH1 0xA0 SHL SUB DUP2 CALLDATALOAD DUP2 AND SWAP2 PUSH1 0x20 ADD CALLDATALOAD AND PUSH2 0x5A1 JUMP JUMPDEST PUSH1 0x3 DUP1 SLOAD PUSH1 0x40 DUP1 MLOAD PUSH1 0x20 PUSH1 0x1F PUSH1 0x2 PUSH1 0x0 NOT PUSH2 0x100 PUSH1 0x1 DUP9 AND ISZERO MUL ADD SWAP1 SWAP6 AND SWAP5 SWAP1 SWAP5 DIV SWAP4 DUP5 ADD DUP2 SWAP1 DIV DUP2 MUL DUP3 ADD DUP2 ADD SWAP1 SWAP3 MSTORE DUP3 DUP2 MSTORE PUSH1 0x60 SWAP4 SWAP1 SWAP3 SWAP1 SWAP2 DUP4 ADD DUP3 DUP3 DUP1 ISZERO PUSH2 0x37E JUMPI DUP1 PUSH1 0x1F LT PUSH2 0x353 JUMPI PUSH2 0x100 DUP1 DUP4 SLOAD DIV MUL DUP4 MSTORE SWAP2 PUSH1 0x20 ADD SWAP2 PUSH2 0x37E JUMP JUMPDEST DUP3 ADD SWAP2 SWAP1 PUSH1 0x0 MSTORE PUSH1 0x20 PUSH1 0x0 KECCAK256 SWAP1 JUMPDEST DUP2 SLOAD DUP2 MSTORE SWAP1 PUSH1 0x1 ADD SWAP1 PUSH1 0x20 ADD DUP1 DUP4 GT PUSH2 0x361 JUMPI DUP3 SWAP1 SUB PUSH1 0x1F AND DUP3 ADD SWAP2 JUMPDEST POP POP POP POP POP SWAP1 POP SWAP1 JUMP JUMPDEST PUSH1 0x0 PUSH2 0x39C PUSH2 0x395 PUSH2 0x5CC JUMP JUMPDEST DUP5 DUP5 PUSH2 0x5D0 JUMP JUMPDEST POP PUSH1 0x1 SWAP3 SWAP2 POP POP JUMP JUMPDEST PUSH1 0x2 SLOAD SWAP1 JUMP JUMPDEST PUSH1 0x0 PUSH2 0x3B8 DUP5 DUP5 DUP5 PUSH2 0x6BC JUMP JUMPDEST PUSH2 0x42E DUP5 PUSH2 0x3C4 PUSH2 0x5CC JUMP JUMPDEST PUSH2 0x429 DUP6 PUSH1 0x40 MLOAD DUP1 PUSH1 0x60 ADD PUSH1 0x40 MSTORE DUP1 PUSH1 0x28 DUP2 MSTORE PUSH1 0x20 ADD PUSH2 0xA88 PUSH1 0x28 SWAP2 CODECOPY PUSH1 0x1 PUSH1 0x1 PUSH1 0xA0 SHL SUB DUP11 AND PUSH1 0x0 SWAP1 DUP2 MSTORE PUSH1 0x1 PUSH1 0x20 MSTORE PUSH1 0x40 DUP2 KECCAK256 SWAP1 PUSH2 0x402 PUSH2 0x5CC JUMP JUMPDEST PUSH1 0x1 PUSH1 0x1 PUSH1 0xA0 SHL SUB AND DUP2 MSTORE PUSH1 0x20 DUP2 ADD SWAP2 SWAP1 SWAP2 MSTORE PUSH1 0x40 ADD PUSH1 0x0 KECCAK256 SLOAD SWAP2 SWAP1 PUSH4 0xFFFFFFFF PUSH2 0x823 AND JUMP JUMPDEST PUSH2 0x5D0 JUMP JUMPDEST POP PUSH1 0x1 SWAP4 SWAP3 POP POP POP JUMP JUMPDEST PUSH2 0x442 DUP3 DUP3 PUSH2 0x8BA JUMP JUMPDEST POP POP JUMP JUMPDEST PUSH1 0x5 SLOAD PUSH1 0xFF AND SWAP1 JUMP JUMPDEST PUSH1 0x0 PUSH2 0x39C PUSH2 0x45C PUSH2 0x5CC JUMP JUMPDEST DUP5 PUSH2 0x429 DUP6 PUSH1 0x1 PUSH1 0x0 PUSH2 0x46D PUSH2 0x5CC JUMP JUMPDEST PUSH1 0x1 PUSH1 0x1 PUSH1 0xA0 SHL SUB SWAP1 DUP2 AND DUP3 MSTORE PUSH1 0x20 DUP1 DUP4 ADD SWAP4 SWAP1 SWAP4 MSTORE PUSH1 0x40 SWAP2 DUP3 ADD PUSH1 0x0 SWAP1 DUP2 KECCAK256 SWAP2 DUP13 AND DUP2 MSTORE SWAP3 MSTORE SWAP1 KECCAK256 SLOAD SWAP1 PUSH4 0xFFFFFFFF PUSH2 0x9B6 AND JUMP JUMPDEST PUSH1 0x1 PUSH1 0x1 PUSH1 0xA0 SHL SUB AND PUSH1 0x0 SWAP1 DUP2 MSTORE PUSH1 0x20 DUP2 SWAP1 MSTORE PUSH1 0x40 SWAP1 KECCAK256 SLOAD SWAP1 JUMP JUMPDEST PUSH1 0x4 DUP1 SLOAD PUSH1 0x40 DUP1 MLOAD PUSH1 0x20 PUSH1 0x1F PUSH1 0x2 PUSH1 0x0 NOT PUSH2 0x100 PUSH1 0x1 DUP9 AND ISZERO MUL ADD SWAP1 SWAP6 AND SWAP5 SWAP1 SWAP5 DIV SWAP4 DUP5 ADD DUP2 SWAP1 DIV DUP2 MUL DUP3 ADD DUP2 ADD SWAP1 SWAP3 MSTORE DUP3 DUP2 MSTORE PUSH1 0x60 SWAP4 SWAP1 SWAP3 SWAP1 SWAP2 DUP4 ADD DUP3 DUP3 DUP1 ISZERO PUSH2 0x37E JUMPI DUP1 PUSH1 0x1F LT PUSH2 0x353 JUMPI PUSH2 0x100 DUP1 DUP4 SLOAD DIV MUL DUP4 MSTORE SWAP2 PUSH1 0x20 ADD SWAP2 PUSH2 0x37E JUMP JUMPDEST PUSH1 0x0 PUSH2 0x39C PUSH2 0x52C PUSH2 0x5CC JUMP JUMPDEST DUP5 PUSH2 0x429 DUP6 PUSH1 0x40 MLOAD DUP1 PUSH1 0x60 ADD PUSH1 0x40 MSTORE DUP1 PUSH1 0x25 DUP2 MSTORE PUSH1 0x20 ADD PUSH2 0xAF9 PUSH1 0x25 SWAP2 CODECOPY PUSH1 0x1 PUSH1 0x0 PUSH2 0x556 PUSH2 0x5CC JUMP JUMPDEST PUSH1 0x1 PUSH1 0x1 PUSH1 0xA0 SHL SUB SWAP1 DUP2 AND DUP3 MSTORE PUSH1 0x20 DUP1 DUP4 ADD SWAP4 SWAP1 SWAP4 MSTORE PUSH1 0x40 SWAP2 DUP3 ADD PUSH1 0x0 SWAP1 DUP2 KECCAK256 SWAP2 DUP14 AND DUP2 MSTORE SWAP3 MSTORE SWAP1 KECCAK256 SLOAD SWAP2 SWAP1 PUSH4 0xFFFFFFFF PUSH2 0x823 AND JUMP JUMPDEST PUSH1 0x0 PUSH2 0x39C PUSH2 0x59A PUSH2 0x5CC JUMP JUMPDEST DUP5 DUP5 PUSH2 0x6BC JUMP JUMPDEST PUSH1 0x1 PUSH1 0x1 PUSH1 0xA0 SHL SUB SWAP2 DUP3 AND PUSH1 0x0 SWAP1 DUP2 MSTORE PUSH1 0x1 PUSH1 0x20 SWAP1 DUP2 MSTORE PUSH1 0x40 DUP1 DUP4 KECCAK256 SWAP4 SWAP1 SWAP5 AND DUP3 MSTORE SWAP2 SWAP1 SWAP2 MSTORE KECCAK256 SLOAD SWAP1 JUMP JUMPDEST CALLER SWAP1 JUMP JUMPDEST PUSH1 0x1 PUSH1 0x1 PUSH1 0xA0 SHL SUB DUP4 AND PUSH2 0x615 JUMPI PUSH1 0x40 MLOAD PUSH3 0x461BCD PUSH1 0xE5 SHL DUP2 MSTORE PUSH1 0x4 ADD DUP1 DUP1 PUSH1 0x20 ADD DUP3 DUP2 SUB DUP3 MSTORE PUSH1 0x24 DUP2 MSTORE PUSH1 0x20 ADD DUP1 PUSH2 0xAD5 PUSH1 0x24 SWAP2 CODECOPY PUSH1 0x40 ADD SWAP2 POP POP PUSH1 0x40 MLOAD DUP1 SWAP2 SUB SWAP1 REVERT JUMPDEST PUSH1 0x1 PUSH1 0x1 PUSH1 0xA0 SHL SUB DUP3 AND PUSH2 0x65A JUMPI PUSH1 0x40 MLOAD PUSH3 0x461BCD PUSH1 0xE5 SHL DUP2 MSTORE PUSH1 0x4 ADD DUP1 DUP1 PUSH1 0x20 ADD DUP3 DUP2 SUB DUP3 MSTORE PUSH1 0x22 DUP2 MSTORE PUSH1 0x20 ADD DUP1 PUSH2 0xA40 PUSH1 0x22 SWAP2 CODECOPY PUSH1 0x40 ADD SWAP2 POP POP PUSH1 0x40 MLOAD DUP1 SWAP2 SUB SWAP1 REVERT JUMPDEST PUSH1 0x1 PUSH1 0x1 PUSH1 0xA0 SHL SUB DUP1 DUP5 AND PUSH1 0x0 DUP2 DUP2 MSTORE PUSH1 0x1 PUSH1 0x20 SWAP1 DUP2 MSTORE PUSH1 0x40 DUP1 DUP4 KECCAK256 SWAP5 DUP8 AND DUP1 DUP5 MSTORE SWAP5 DUP3 MSTORE SWAP2 DUP3 SWAP1 KECCAK256 DUP6 SWAP1 SSTORE DUP2 MLOAD DUP6 DUP2 MSTORE SWAP2 MLOAD PUSH32 0x8C5BE1E5EBEC7D5BD14F71427D1E84F3DD0314C0F7B2291E5B200AC8C7C3B925 SWAP3 DUP2 SWAP1 SUB SWAP1 SWAP2 ADD SWAP1 LOG3 POP POP POP JUMP JUMPDEST PUSH1 0x1 PUSH1 0x1 PUSH1 0xA0 SHL SUB DUP4 AND PUSH2 0x701 JUMPI PUSH1 0x40 MLOAD PUSH3 0x461BCD PUSH1 0xE5 SHL DUP2 MSTORE PUSH1 0x4 ADD DUP1 DUP1 PUSH1 0x20 ADD DUP3 DUP2 SUB DUP3 MSTORE PUSH1 0x25 DUP2 MSTORE PUSH1 0x20 ADD DUP1 PUSH2 0xAB0 PUSH1 0x25 SWAP2 CODECOPY PUSH1 0x40 ADD SWAP2 POP POP PUSH1 0x40 MLOAD DUP1 SWAP2 SUB SWAP1 REVERT JUMPDEST PUSH1 0x1 PUSH1 0x1 PUSH1 0xA0 SHL SUB DUP3 AND PUSH2 0x746 JUMPI PUSH1 0x40 MLOAD PUSH3 0x461BCD PUSH1 0xE5 SHL DUP2 MSTORE PUSH1 0x4 ADD DUP1 DUP1 PUSH1 0x20 ADD DUP3 DUP2 SUB DUP3 MSTORE PUSH1 0x23 DUP2 MSTORE PUSH1 0x20 ADD DUP1 PUSH2 0xA1D PUSH1 0x23 SWAP2 CODECOPY PUSH1 0x40 ADD SWAP2 POP POP PUSH1 0x40 MLOAD DUP1 SWAP2 SUB SWAP1 REVERT JUMPDEST PUSH2 0x751 DUP4 DUP4 DUP4 PUSH2 0xA17 JUMP JUMPDEST PUSH2 0x794 DUP2 PUSH1 0x40 MLOAD DUP1 PUSH1 0x60 ADD PUSH1 0x40 MSTORE DUP1 PUSH1 0x26 DUP2 MSTORE PUSH1 0x20 ADD PUSH2 0xA62 PUSH1 0x26 SWAP2 CODECOPY PUSH1 0x1 PUSH1 0x1 PUSH1 0xA0 SHL SUB DUP7 AND PUSH1 0x0 SWAP1 DUP2 MSTORE PUSH1 0x20 DUP2 SWAP1 MSTORE PUSH1 0x40 SWAP1 KECCAK256 SLOAD SWAP2 SWAP1 PUSH4 0xFFFFFFFF PUSH2 0x823 AND JUMP JUMPDEST PUSH1 0x1 PUSH1 0x1 PUSH1 0xA0 SHL SUB DUP1 DUP6 AND PUSH1 0x0 SWAP1 DUP2 MSTORE PUSH1 0x20 DUP2 SWAP1 MSTORE PUSH1 0x40 DUP1 DUP3 KECCAK256 SWAP4 SWAP1 SWAP4 SSTORE SWAP1 DUP5 AND DUP2 MSTORE KECCAK256 SLOAD PUSH2 0x7C9 SWAP1 DUP3 PUSH4 0xFFFFFFFF PUSH2 0x9B6 AND JUMP JUMPDEST PUSH1 0x1 PUSH1 0x1 PUSH1 0xA0 SHL SUB DUP1 DUP5 AND PUSH1 0x0 DUP2 DUP2 MSTORE PUSH1 0x20 DUP2 DUP2 MSTORE PUSH1 0x40 SWAP2 DUP3 SWAP1 KECCAK256 SWAP5 SWAP1 SWAP5 SSTORE DUP1 MLOAD DUP6 DUP2 MSTORE SWAP1 MLOAD SWAP2 SWAP4 SWAP3 DUP8 AND SWAP3 PUSH32 0xDDF252AD1BE2C89B69C2B068FC378DAA952BA7F163C4A11628F55A4DF523B3EF SWAP3 SWAP2 DUP3 SWAP1 SUB ADD SWAP1 LOG3 POP POP POP JUMP JUMPDEST PUSH1 0x0 DUP2 DUP5 DUP5 GT ISZERO PUSH2 0x8B2 JUMPI PUSH1 0x40 MLOAD PUSH3 0x461BCD PUSH1 0xE5 SHL DUP2 MSTORE PUSH1 0x4 ADD DUP1 DUP1 PUSH1 0x20 ADD DUP3 DUP2 SUB DUP3 MSTORE DUP4 DUP2 DUP2 MLOAD DUP2 MSTORE PUSH1 0x20 ADD SWAP2 POP DUP1 MLOAD SWAP1 PUSH1 0x20 ADD SWAP1 DUP1 DUP4 DUP4 PUSH1 0x0 JUMPDEST DUP4 DUP2 LT ISZERO PUSH2 0x877 JUMPI DUP2 DUP2 ADD MLOAD DUP4 DUP3 ADD MSTORE PUSH1 0x20 ADD PUSH2 0x85F JUMP JUMPDEST POP POP POP POP SWAP1 POP SWAP1 DUP2 ADD SWAP1 PUSH1 0x1F AND DUP1 ISZERO PUSH2 0x8A4 JUMPI DUP1 DUP3 SUB DUP1 MLOAD PUSH1 0x1 DUP4 PUSH1 0x20 SUB PUSH2 0x100 EXP SUB NOT AND DUP2 MSTORE PUSH1 0x20 ADD SWAP2 POP JUMPDEST POP SWAP3 POP POP POP PUSH1 0x40 MLOAD DUP1 SWAP2 SUB SWAP1 REVERT JUMPDEST POP POP POP SWAP1 SUB SWAP1 JUMP JUMPDEST PUSH1 0x1 PUSH1 0x1 PUSH1 0xA0 SHL SUB DUP3 AND PUSH2 0x915 JUMPI PUSH1 0x40 DUP1 MLOAD PUSH3 0x461BCD PUSH1 0xE5 SHL DUP2 MSTORE PUSH1 0x20 PUSH1 0x4 DUP3 ADD MSTORE PUSH1 0x1F PUSH1 0x24 DUP3 ADD MSTORE PUSH32 0x45524332303A206D696E7420746F20746865207A65726F206164647265737300 PUSH1 0x44 DUP3 ADD MSTORE SWAP1 MLOAD SWAP1 DUP2 SWAP1 SUB PUSH1 0x64 ADD SWAP1 REVERT JUMPDEST PUSH2 0x921 PUSH1 0x0 DUP4 DUP4 PUSH2 0xA17 JUMP JUMPDEST PUSH1 0x2 SLOAD PUSH2 0x934 SWAP1 DUP3 PUSH4 0xFFFFFFFF PUSH2 0x9B6 AND JUMP JUMPDEST PUSH1 0x2 SSTORE PUSH1 0x1 PUSH1 0x1 PUSH1 0xA0 SHL SUB DUP3 AND PUSH1 0x0 SWAP1 DUP2 MSTORE PUSH1 0x20 DUP2 SWAP1 MSTORE PUSH1 0x40 SWAP1 KECCAK256 SLOAD PUSH2 0x960 SWAP1 DUP3 PUSH4 0xFFFFFFFF PUSH2 0x9B6 AND JUMP JUMPDEST PUSH1 0x1 PUSH1 0x1 PUSH1 0xA0 SHL SUB DUP4 AND PUSH1 0x0 DUP2 DUP2 MSTORE PUSH1 0x20 DUP2 DUP2 MSTORE PUSH1 0x40 DUP1 DUP4 KECCAK256 SWAP5 SWAP1 SWAP5 SSTORE DUP4 MLOAD DUP6 DUP2 MSTORE SWAP4 MLOAD SWAP3 SWAP4 SWAP2 SWAP3 PUSH32 0xDDF252AD1BE2C89B69C2B068FC378DAA952BA7F163C4A11628F55A4DF523B3EF SWAP3 DUP2 SWAP1 SUB SWAP1 SWAP2 ADD SWAP1 LOG3 POP POP JUMP JUMPDEST PUSH1 0x0 DUP3 DUP3 ADD DUP4 DUP2 LT ISZERO PUSH2 0xA10 JUMPI PUSH1 0x40 DUP1 MLOAD PUSH3 0x461BCD PUSH1 0xE5 SHL DUP2 MSTORE PUSH1 0x20 PUSH1 0x4 DUP3 ADD MSTORE PUSH1 0x1B PUSH1 0x24 DUP3 ADD MSTORE PUSH32 0x536166654D6174683A206164646974696F6E206F766572666C6F770000000000 PUSH1 0x44 DUP3 ADD MSTORE SWAP1 MLOAD SWAP1 DUP2 SWAP1 SUB PUSH1 0x64 ADD SWAP1 REVERT JUMPDEST SWAP4 SWAP3 POP POP POP JUMP JUMPDEST POP POP POP JUMP INVALID GASLIMIT MSTORE NUMBER ORIGIN ADDRESS GASPRICE KECCAK256 PUSH21 0x72616E7366657220746F20746865207A65726F2061 PUSH5 0x6472657373 GASLIMIT MSTORE NUMBER ORIGIN ADDRESS GASPRICE KECCAK256 PUSH2 0x7070 PUSH19 0x6F766520746F20746865207A65726F20616464 PUSH19 0x65737345524332303A207472616E7366657220 PUSH2 0x6D6F PUSH22 0x6E7420657863656564732062616C616E636545524332 ADDRESS GASPRICE KECCAK256 PUSH21 0x72616E7366657220616D6F756E7420657863656564 PUSH20 0x20616C6C6F77616E636545524332303A20747261 PUSH15 0x736665722066726F6D20746865207A PUSH6 0x726F20616464 PUSH19 0x65737345524332303A20617070726F76652066 PUSH19 0x6F6D20746865207A65726F2061646472657373 GASLIMIT MSTORE NUMBER ORIGIN ADDRESS GASPRICE KECCAK256 PUSH5 0x6563726561 PUSH20 0x656420616C6C6F77616E63652062656C6F77207A PUSH6 0x726FA2646970 PUSH7 0x7358221220AB15 DUP6 OR 0xEF 0xDA 0xEC DUP11 DIV 0x2B SWAP12 PUSH30 0x85E1F6FAC1F74CD318BCE4AC375D542BF5A5FC1464736F6C634300060600 CALLER LOG2 PUSH5 0x6970667358 0x22 SLT KECCAK256 0xDC DUP15 0xD7 EXTCODESIZE ADDRESS MLOAD 0xE PUSH8 0x3685BB664BDEACB3 0xD8 0xAD NUMBER 0xB4 RETURNDATACOPY SELFDESTRUCT 0xDE ADD REVERT DUP13 0xDE PUSH26 0x299A21F264736F6C634300060600330000000000000000000000 "
        },
        "methodIdentifiers": {
          "deployERC20(string,string,string,uint8)": "f7955637",
          "lastBatchNonce(address)": "011b2174",
          "lastLogicCallNonce(bytes32)": "c9d194d5",
          "sendToCosmos(address,bytes32,uint256)": "1ffbe7f9",
          "state_gravityId()": "bdda81d4",
          "state_invalidationMapping(bytes32)": "7dfb6f86",
          "state_lastBatchNonces(address)": "df97174b",
          "state_lastEventNonce()": "73b20547",
          "state_lastValsetCheckpoint()": "f2b53307",
          "state_lastValsetNonce()": "b56561fe",
          "state_powerThreshold()": "e5a2b5d2",
          "submitBatch(address[],uint256[],uint256,uint8[],bytes32[],bytes32[],uint256[],address[],uint256[],uint256,address,uint256)": "83b435db",
          "submitLogicCall(address[],uint256[],uint256,uint8[],bytes32[],bytes32[],(uint256[],address[],uint256[],address[],address,bytes,uint256,bytes32,uint256))": "0c246c82",
          "testCheckValidatorSignatures(address[],uint256[],uint8[],bytes32[],bytes32[],bytes32,uint256)": "db7c4e57",
          "testMakeCheckpoint(address[],uint256[],uint256,bytes32)": "c227c30b",
          "updateValset(address[],uint256[],uint256,address[],uint256[],uint256,uint8[],bytes32[],bytes32[])": "e3cb9f62"
        }
      }
    }
  }
}