{
  "_format": "hh-sol-artifact-1",
  "contractName": "BandwidthGenerator",
  "sourceName": "contracts/BandwidthGenerator.sol",
  "abi": [
    {
      "inputs": [
        {
          "internalType": "contract CosmosERC20",
          "name": "_erc20",
          "type": "address"
        },
        {
          "internalType": "contract Gravity",
          "name": "_gravityBridge",
          "type": "address"
        }
      ],
      "stateMutability": "nonpayable",
      "type": "constructor"
    },
    {
      "anonymous": false,
      "inputs": [
        {
          "indexed": false,
          "internalType": "uint256",
          "name": "Bandwidth",
          "type": "uint256"
        },
        {
          "indexed": true,
          "internalType": "uint256",
          "name": "VerificationKey",
          "type": "uint256"
        },
        {
          "indexed": false,
          "internalType": "bytes",
          "name": "SignedVerificationKey",
          "type": "bytes"
        }
      ],
      "name": "BBCredentialPurchased",
      "type": "event"
    },
    {
      "inputs": [],
      "name": "erc20",
      "outputs": [
        {
          "internalType": "contract CosmosERC20",
          "name": "",
          "type": "address"
        }
      ],
      "stateMutability": "view",
      "type": "function"
    },
    {
      "inputs": [
        {
          "internalType": "uint256",
          "name": "amount",
          "type": "uint256"
        },
        {
          "internalType": "uint256",
          "name": "verificationKey",
          "type": "uint256"
        },
        {
          "internalType": "bytes",
          "name": "signedVerificationKey",
          "type": "bytes"
        },
        {
          "internalType": "bytes32",
          "name": "cosmosRecipient",
          "type": "bytes32"
        }
      ],
      "name": "generateBasicBandwidthCredential",
      "outputs": [],
      "stateMutability": "nonpayable",
      "type": "function"
    },
    {
      "inputs": [],
      "name": "gravityBridge",
      "outputs": [
        {
          "internalType": "contract Gravity",
          "name": "",
          "type": "address"
        }
      ],
      "stateMutability": "view",
      "type": "function"
    }
  ],
  "bytecode": "0x608060405234801561001057600080fd5b5060405161059c38038061059c8339818101604052604081101561003357600080fd5b5080516020909101516001600160a01b0382166100815760405162461bcd60e51b815260040180806020018281038252603081526020018061056c6030913960400191505060405180910390fd5b6001600160a01b0381166100c65760405162461bcd60e51b81526004018080602001828103825260398152602001806105336039913960400191505060405180910390fd5b600080546001600160a01b039384166001600160a01b03199182161790915560018054929093169116179055610432806101016000396000f3fe608060405234801561001057600080fd5b50600436106100415760003560e01c806373f4867714610046578063785e9e86146100fc578063a4da2d0214610120575b600080fd5b6100fa6004803603608081101561005c57600080fd5b81359160208101359181019060608101604082013564010000000081111561008357600080fd5b82018360208201111561009557600080fd5b803590602001918460018302840111640100000000831117156100b757600080fd5b91908080601f0160208091040260200160405190810160405280939291908181526020018383808284376000920191909152509295505091359250610128915050565b005b6101046103a2565b604080516001600160a01b039092168252519081900360200190f35b6101046103b1565b81516040146101685760405162461bcd60e51b81526004018080602001828103825260338152602001806103ca6033913960400191505060405180910390fd5b60008054604080516323b872dd60e01b81523360048201523060248201526044810188905290516001600160a01b03909216926323b872dd926064808401936020939083900390910190829087803b1580156101c357600080fd5b505af11580156101d7573d6000803e3d6000fd5b505050506040513d60208110156101ed57600080fd5b5050600080546001546040805163095ea7b360e01b81526001600160a01b039283166004820152602481018990529051919092169263095ea7b392604480820193602093909283900390910190829087803b15801561024b57600080fd5b505af115801561025f573d6000803e3d6000fd5b505050506040513d602081101561027557600080fd5b50506001546000805460408051631ffbe7f960e01b81526001600160a01b039283166004820152602481018690526044810189905290519190931692631ffbe7f992606480830193919282900301818387803b1580156102d457600080fd5b505af11580156102e8573d6000803e3d6000fd5b5050505060006102f7856103c0565b9050837fdf00ac1789fb2195deae1d8aa18846660c6b431833c5a52b6e68d4772439ca9d82856040518083815260200180602001828103825283818151815260200191508051906020019080838360005b83811015610360578181015183820152602001610348565b50505050905090810190601f16801561038d5780820380516001836020036101000a031916815260200191505b50935050505060405180910390a25050505050565b6000546001600160a01b031681565b6001546001600160a01b031681565b6340000000029056fe42616e64776964746847656e657261746f723a205369676e617475726520646f65736e27742068617665203634206279746573a26469706673582212206cf18759e5d47dc9818933f72eedb8a626eeec94942bcaaa21968c5801cc59e464736f6c6343000606003342616e64776964746847656e657261746f723a20677261766974792062726964676520616464726573732063616e6e6f74206265206e756c6c42616e64776964746847656e657261746f723a20657263323020616464726573732063616e6e6f74206265206e756c6c",
  "linkReferences": {},
  "deployedLinkReferences": {}
}