{
  "_format": "hh-sol-artifact-1",
  "contractName": "BandwidthGenerator",
  "sourceName": "contracts/BandwidthGenerator.sol",
  "abi": [
    {
      "inputs": [
        {
          "internalType": "contract CosmosERC20",
          "name": "_erc20",
          "type": "address"
        },
        {
          "internalType": "contract Gravity",
          "name": "_gravityBridge",
          "type": "address"
        }
      ],
      "stateMutability": "nonpayable",
      "type": "constructor"
    },
    {
      "anonymous": false,
      "inputs": [
        {
          "indexed": true,
          "internalType": "uint256",
          "name": "Bandwidth",
          "type": "uint256"
        },
        {
          "indexed": true,
          "internalType": "uint256",
          "name": "VerificationKey",
          "type": "uint256"
        },
        {
          "indexed": false,
          "internalType": "bytes",
          "name": "SignedVerificationKey",
          "type": "bytes"
        },
        {
          "indexed": true,
          "internalType": "bytes32",
          "name": "CosmosRecipient",
          "type": "bytes32"
        }
      ],
      "name": "BBCredentialPurchased",
      "type": "event"
    },
    {
      "anonymous": false,
      "inputs": [
        {
          "indexed": true,
          "internalType": "address",
          "name": "previousOwner",
          "type": "address"
        },
        {
          "indexed": true,
          "internalType": "address",
          "name": "newOwner",
          "type": "address"
        }
      ],
      "name": "OwnershipTransferred",
      "type": "event"
    },
    {
      "anonymous": false,
      "inputs": [
        {
          "indexed": true,
          "internalType": "uint256",
          "name": "NewMBPerToken",
          "type": "uint256"
        }
      ],
      "name": "RatioChanged",
      "type": "event"
    },
    {
      "inputs": [],
      "name": "MBPerToken",
      "outputs": [
        {
          "internalType": "uint256",
          "name": "",
          "type": "uint256"
        }
      ],
      "stateMutability": "view",
      "type": "function"
    },
    {
      "inputs": [
        {
          "internalType": "uint256",
          "name": "_amount",
          "type": "uint256"
        }
      ],
      "name": "bandwidthFromToken",
      "outputs": [
        {
          "internalType": "uint256",
          "name": "",
          "type": "uint256"
        }
      ],
      "stateMutability": "view",
      "type": "function"
    },
    {
      "inputs": [
        {
          "internalType": "uint256",
          "name": "_newMBPerTokenAmount",
          "type": "uint256"
        }
      ],
      "name": "changeRatio",
      "outputs": [],
      "stateMutability": "nonpayable",
      "type": "function"
    },
    {
      "inputs": [],
      "name": "erc20",
      "outputs": [
        {
          "internalType": "contract CosmosERC20",
          "name": "",
          "type": "address"
        }
      ],
      "stateMutability": "view",
      "type": "function"
    },
    {
      "inputs": [
        {
          "internalType": "uint256",
          "name": "_amount",
          "type": "uint256"
        },
        {
          "internalType": "uint256",
          "name": "_verificationKey",
          "type": "uint256"
        },
        {
          "internalType": "bytes",
          "name": "_signedVerificationKey",
          "type": "bytes"
        },
        {
          "internalType": "bytes32",
          "name": "_cosmosRecipient",
          "type": "bytes32"
        }
      ],
      "name": "generateBasicBandwidthCredential",
      "outputs": [],
      "stateMutability": "nonpayable",
      "type": "function"
    },
    {
      "inputs": [],
      "name": "gravityBridge",
      "outputs": [
        {
          "internalType": "contract Gravity",
          "name": "",
          "type": "address"
        }
      ],
      "stateMutability": "view",
      "type": "function"
    },
    {
      "inputs": [],
      "name": "owner",
      "outputs": [
        {
          "internalType": "address",
          "name": "",
          "type": "address"
        }
      ],
      "stateMutability": "view",
      "type": "function"
    },
    {
      "inputs": [],
      "name": "renounceOwnership",
      "outputs": [],
      "stateMutability": "nonpayable",
      "type": "function"
    },
    {
      "inputs": [
        {
          "internalType": "address",
          "name": "newOwner",
          "type": "address"
        }
      ],
      "name": "transferOwnership",
      "outputs": [],
      "stateMutability": "nonpayable",
      "type": "function"
    }
  ],
  "bytecode": "0x608060405234801561001057600080fd5b50604051610a0a380380610a0a8339818101604052604081101561003357600080fd5b508051602090910151600061004f6001600160e01b0361015a16565b600080546001600160a01b0319166001600160a01b0383169081178255604051929350917f8be0079c531659141344cd1fd0a4f28419497f9722a3daafe3b4186f6b6457e0908290a3506001600160a01b0382166100de5760405162461bcd60e51b81526004018080602001828103825260308152602001806109da6030913960400191505060405180910390fd5b6001600160a01b0381166101235760405162461bcd60e51b81526004018080602001828103825260398152602001806109a16039913960400191505060405180910390fd5b600180546001600160a01b039384166001600160a01b0319918216179091556002805492909316911617905561040060035561015e565b3390565b6108348061016d6000396000f3fe608060405234801561001057600080fd5b50600436106100935760003560e01c80639e0dda8b116100665780639e0dda8b14610182578063a4da2d02146101b1578063e0b5e031146101b9578063f2fde38b146101c1578063f6a33253146101e757610093565b8063715018a61461009857806373f48677146100a2578063785e9e86146101565780638da5cb5b1461017a575b600080fd5b6100a0610204565b005b6100a0600480360360808110156100b857600080fd5b8135916020810135918101906060810160408201356401000000008111156100df57600080fd5b8201836020820111156100f157600080fd5b8035906020019184600183028401116401000000008311171561011357600080fd5b91908080601f01602080910402602001604051908101604052809392919081815260200183838082843760009201919091525092955050913592506102c2915050565b61015e610534565b604080516001600160a01b039092168252519081900360200190f35b61015e610543565b61019f6004803603602081101561019857600080fd5b5035610552565b60408051918252519081900360200190f35b61015e610570565b61019f61057f565b6100a0600480360360208110156101d757600080fd5b50356001600160a01b0316610585565b6100a0600480360360208110156101fd57600080fd5b5035610699565b61020c61077c565b6001600160a01b031661021d610543565b6001600160a01b031614610278576040805162461bcd60e51b815260206004820181905260248201527f4f776e61626c653a2063616c6c6572206973206e6f7420746865206f776e6572604482015290519081900360640190fd5b600080546040516001600160a01b03909116907f8be0079c531659141344cd1fd0a4f28419497f9722a3daafe3b4186f6b6457e0908390a3600080546001600160a01b0319169055565b81516040146103025760405162461bcd60e51b81526004018080602001828103825260338152602001806107cc6033913960400191505060405180910390fd5b600154604080516323b872dd60e01b81523360048201523060248201526044810187905290516001600160a01b03909216916323b872dd916064808201926020929091908290030181600087803b15801561035c57600080fd5b505af1158015610370573d6000803e3d6000fd5b505050506040513d602081101561038657600080fd5b50506001546002546040805163095ea7b360e01b81526001600160a01b039283166004820152602481018890529051919092169163095ea7b39160448083019260209291908290030181600087803b1580156103e157600080fd5b505af11580156103f5573d6000803e3d6000fd5b505050506040513d602081101561040b57600080fd5b505060025460015460408051631ffbe7f960e01b81526001600160a01b039283166004820152602481018590526044810188905290519190921691631ffbe7f991606480830192600092919082900301818387803b15801561046c57600080fd5b505af1158015610480573d6000803e3d6000fd5b50505050600061048f85610552565b90508184827fc300d88f6eea8461741d440d04aa6147e081770af25e30862f6cc38d1033b9d1866040518080602001828103825283818151815260200191508051906020019080838360005b838110156104f35781810151838201526020016104db565b50505050905090810190601f1680156105205780820380516001836020036101000a031916815260200191505b509250505060405180910390a45050505050565b6001546001600160a01b031681565b6000546001600160a01b031690565b6000600354670de0b6b3a7640000838161056857fe5b040292915050565b6002546001600160a01b031681565b60035481565b61058d61077c565b6001600160a01b031661059e610543565b6001600160a01b0316146105f9576040805162461bcd60e51b815260206004820181905260248201527f4f776e61626c653a2063616c6c6572206973206e6f7420746865206f776e6572604482015290519081900360640190fd5b6001600160a01b03811661063e5760405162461bcd60e51b81526004018080602001828103825260268152602001806107a66026913960400191505060405180910390fd5b600080546040516001600160a01b03808516939216917f8be0079c531659141344cd1fd0a4f28419497f9722a3daafe3b4186f6b6457e091a3600080546001600160a01b0319166001600160a01b0392909216919091179055565b6106a161077c565b6001600160a01b03166106b2610543565b6001600160a01b03161461070d576040805162461bcd60e51b815260206004820181905260248201527f4f776e61626c653a2063616c6c6572206973206e6f7420746865206f776e6572604482015290519081900360640190fd5b806107495760405162461bcd60e51b81526004018080602001828103825260258152602001806107816025913960400191505060405180910390fd5b600381905560405181907fe200219383a2dbe79fad4e1549a81b6057429299f33583641c5fdddcdc0b379790600090a250565b339056fe42616e64776964746847656e657261746f723a2070726963652063616e6e6f7420626520304f776e61626c653a206e6577206f776e657220697320746865207a65726f206164647265737342616e64776964746847656e657261746f723a205369676e617475726520646f65736e27742068617665203634206279746573a26469706673582212209b77c9f0a8ba7b9bbc16ddd7d6d29dfe0ea86c27a84449e18a20ede661fb526764736f6c6343000606003342616e64776964746847656e657261746f723a20677261766974792062726964676520616464726573732063616e6e6f74206265206e756c6c42616e64776964746847656e657261746f723a20657263323020616464726573732063616e6e6f74206265206e756c6c",
  "linkReferences": {},
  "deployedLinkReferences": {}
}